:1000000012C058C27AC22AC029C028C027C026C040
:100010002AC204C223C022C021C020C01FC01EC0EB
:100020001DC01CC01BC011241FBECFE5D4E0DEBF25
:10003000CDBF10E0A0E6B0E0E8E2F6E002C0059037
:100040000D92AE36B107D9F710E0AEE6B0E001C0D0
:100050001D92A239B107E1F779D2E4C2D1CF089558
:10006000CF93DF9380ED97E005D181E008D1EC01DB
:10007000F8D0CE0161E003D0DF91CF9108950F93C6
:100080001F93CF93DF93262FCEE6D0E0FC0130E024
:100090000AE010E0309711F42317B8F0CF01B8014F
:1000A0008BD2CB01AB01440F551FB3E0880F991FD2
:1000B000BA95E1F7480F591FE41BF50BE05AFF4FC3
:1000C000808188831982FB0102C0198218823F5FF8
:1000D00022963430F9F6222359F0E22FF0E0EE0FA9
:1000E000FF1FE259FF4F808191818160918380835E
:1000F000DF91CF911F910F91089568E070E000901B
:10010000760002C0759567950A94E2F7609580E0E5
:100110002DD1E0917600F0E0EE0FFF1FE259FF4F86
:1001200081E060813CD1809176008F5F8093760082
:10013000843011F4109276000895089580917B0028
:10014000813019F410927B00089580917A00882301
:1001500029F080917A00815080937A0008958091EF
:100160007B008823A9F481E080937B0080917A0052
:100170008F5F80937A0081E041D1909379008093E2
:1001800078008091770080937C001092770008952A
:1001900080917A00882329F080917A0081508093A1
:1001A0007A000895CF93DF934091780050917900C1
:1001B00020917C0030E08FE892E0289FF001299F99
:1001C000F00D389FF00D1124CA0164E670E0F4D1FF
:1001D000E60FF71FF0937E00E0937D0080917A0098
:1001E000C0917F00D0918000C80FD11DD0938000B6
:1001F000C0937F0010927A0020916B0030916C00C8
:1002000040E050E060EA76E881E090E0E9D1C21792
:10021000D307C8F08091810090918200A091830063
:10022000B09184000196A11DB11D8093810090932F
:100230008200A0938300B0938400C21BD30BD093A1
:100240008000C0937F00DF91CF910895DC01CB0146
:100250008093810090938200A0938300B0938400E8
:100260000895609181007091820080918300909147
:100270008400089590936C0080936B000895813002
:1002800029F468E671E080E090E004C061EE70E07F
:1002900080E090E020916B0030916C0040E050E0F5
:1002A0006CD120917D0030917E0040E050E098D1EB
:1002B000C901089580917700803428F480917700F7
:1002C0008F5F80937700089539DF089548DF0895A0
:1002D000F1DF0895633060F4E62FF0E0EE0FFF1FCA
:1002E000EE0FFF1FEB57FF4F9183808342831382F2
:1002F0000895809188008F5F8093880080918C00A2
:100300008F5F80938C00809190008F5F809390002E
:100310000895109291001EC0F0E0EE0FFF1FEE0F47
:10032000FF1FEB57FF4F92818381891770F0019077
:10033000F081E02D0995E0919100F0E0EE0FFF1FB4
:10034000EE0FFF1FEB57FF4F1382809191008F5FDD
:1003500080939100E0919100E330D8F6DDCF8FEFEC
:1003600087BB84BB089580E008950895882329F40D
:1003700085B3807F862B85BB089588B3807F862BCD
:1003800088BB0895882319F0813031F402C085B309
:1003900001C088B38F70089588B38F700895882343
:1003A00011F465BB089568BB0895882311F088B3E4
:1003B000089585B308958EB582608EBD8FEF9FE757
:1003C0009DBD8CBD83B7836083BF82EC82BF89B73C
:1003D000816089BF89B7846089BF8BB780648BBF18
:1003E00085B7836085BF8BB780688BBF85B78C600E
:1003F00085BF81B38C6081BB78940895833058F4B5
:100400008CB59DB58F5F9F47880F991F2FEF3FE7F2
:100410003DBD2CBD089580E090E008951F920F929D
:100420000FB60F9211242F933F934F935F936F93C7
:100430007F938F939F93AF93BF93EF93FF9382EC40
:1004400082BF57DFFF91EF91BF91AF919F918F9145
:100450007F916F915F914F913F912F910F900FBEC0
:100460000F901F9018951F920F920FB60F921124A4
:100470002F933F934F935F936F937F938F939F93AC
:10048000AF93BF93EF93FF938FEF9FE79DBD8CBD1D
:100490001FDFFF91EF91BF91AF919F918F917F915E
:1004A0006F915F914F913F912F910F900FBE0F90E1
:1004B0001F9018951F920F920FB60F9211242F9331
:1004C0003F934F935F936F937F938F939F93AF93DC
:1004D000BF93EF93FF93F8DEFF91EF91BF91AF9140
:1004E0009F918F917F916F915F914F913F912F914C
:1004F0000F900FBE0F901F9018951F920F920FB67E
:100500000F9211242F933F934F935F936F937F9399
:100510008F939F93AF93BF93EF93FF93D7DEFF919A
:10052000EF91BF91AF919F918F917F916F915F916B
:100530004F913F912F910F900FBE0F901F901895E4
:1005400031DE08958DDD0895D8DD089534DF07DFAD
:10055000F4DD85DD80EA92E060E044E1BBDE82EA22
:1005600092E062E044E6B6DE84EA92E061E042E3D3
:10057000B1DECFDE80E090E00895629FD001739FEE
:10058000F001829FE00DF11D649FE00DF11D929F2F
:10059000F00D839FF00D749FF00D659FF00D99276E
:1005A000729FB00DE11DF91F639FB00DE11DF91F92
:1005B000BD01CF0111240895AA1BBB1B51E107C047
:1005C000AA1FBB1FA617B70710F0A61BB70B881FE3
:1005D000991F5A95A9F780959095BC01CD01089572
:1005E000A1E21A2EAA1BBB1BFD010DC0AA1FBB1F37
:1005F000EE1FFF1FA217B307E407F50720F0A21BA9
:10060000B30BE40BF50B661F771F881F991F1A9415
:1006100069F760957095809590959B01AC01BD013F
:08062000CF010895F894FFCF0B
:0E062800FC60DAF266B6BEE0FEF601C8000025
:00000001FF
