:1000000012C09BC5C0C52AC029C028C027C026C0B1
:100010006DC547C523C022C021C020C01FC01EC05F
:100020001DC01CC01BC011241FBECFE5D4E0DEBF25
:10003000CDBF10E0A0E6B0E0E2EAFCE002C005902F
:100040000D92A03AB107D9F711E0A0EAB0E001C0E3
:100050001D92AE31B107E1F7C9D521C6D1CFCF92FC
:10006000DF92EF92FF920F931F93CF93DF9300D015
:1000700000D0CDB7DEB79C01162F042F6E01089477
:10008000C11CD11CF60144E0AAE0EA2EF12C211596
:10009000310569F0C901B701CCD5962F990F892F89
:1000A000880F880F890F281B20839B0101C01082B5
:1000B00041503196442359F7E12FF0E0002369F4D1
:1000C00081E090E08C0F9D1FE80FF91F808188234D
:1000D00011F489E00EC081500CC0A1E0B0E0AC0F7B
:1000E000BD1FEA0FFB1F8081893011F4108202C00E
:1000F0008F5F808320E060E070E01EC0CA01880F3F
:10010000991FF3E0440F551FFA95E1F7480F591F67
:10011000EF5FE21799F7D6018D916D0190E0489F4E
:100120009001499F300D589F300D1124620F731FAD
:100130002E2F2F5F243021F041E050E0E0E0E9CFA6
:10014000CB010F900F900F900F90DF91CF911F91E7
:100150000F91FF90EF90DF90CF90089581E060EADB
:1001600070E042E0D9D18091A0009091A10027E2F7
:100170008031920730F080ED97E09093A10080935A
:10018000A0000895CF92DF92EF92FF92CF93DF937A
:100190008091A0009091A10051D381E054D3EC0153
:1001A00044D36B017C018091A2009091A300009741
:1001B00001F5CE0160E041E021E076D0C60161E0CA
:1001C00041E021E071D080E0FFD1C82F81E0FCD177
:1001D000C23839F481E090E09093A3008093A200AC
:1001E00059C0813809F056C081E06FEF1BD4EED4BE
:1001F00051C08091A0009091A10061E040E020E01A
:1002000053D08091A40061E044E608D180E0DCD1C5
:10021000803489F48091A4009091A5000196909378
:10022000A5008093A40084309105A1F51092A5004B
:100230001092A4002FC081E0C7D1C82F82E0C4D1A2
:10024000C23881F481E060EA70E042E020E030E012
:1002500042D181E061E040E0E1D01092A300109231
:10026000A20018C0C03441F48091A0009091A10078
:100270006091A40040E009C0803461F48091A00046
:100280009091A1006091A40041E0E9DE9093A1006B
:100290008093A000DF91CF91FF90EF90DF90CF90FF
:1002A00008958093A6000895CF92DF92EF92FF9277
:1002B0000F931F93CF93DF93322F062F10E0E801A7
:1002C00063E0CC0FDD1F6A95E1F7C955DF4FFC01F4
:1002D00020E07AE0E72EF12CACEFCA2ED12C30973B
:1002E00011F44217B8F0CF01B701A3D4CB01DB0161
:1002F000AA0FBB1F53E0880F991F5A95E1F7A80F6B
:10030000B91FEA1BFB0BE05AFF4F808188831982DB
:10031000FB0107C0332319F4D982C88202C01982B5
:1003200018822F5F22962430D1F6442381F0F80101
:10033000EE0FFF1FEE0FFF1FE40FF11DEE0FFF1F6B
:10034000E955FF4F80819181816091838083DF91A6
:10035000CF911F910F91FF90EF90DF90CF90089574
:10036000CF939091B700992381F08091B8008F5F6F
:100370008093B800891759F48091B90091E08927DA
:100380008093B9001092B80002C01092B900809119
:10039000B900813061F49091BA008091BB00981748
:1003A00031F49091BC008091BD00981789F0809144
:1003B000BA00E091BD00F0E0EE0FFF1FEE0FFF1F4F
:1003C000E80FF11DEE0FFF1FE955FF4FC08101C07F
:1003D000C0E08091A600813009F4C0956091BD0015
:1003E000660F660F8091BA00680F80E002D381E04B
:1003F0006C2F18D38091BA008F5F8093BA0084303D
:1004000059F41092BA008091BD008F5F8093BD00B7
:10041000823011F41092BD00CF9108958093BB00FB
:100420004093B7006093BC000895CF93DF93DA0147
:10043000422F50E0480F511D45305105CCF470E07B
:10044000660F771F660F771F0EC0FB01E20FF31FC9
:10045000EE0FFF1FE955FF4F2A0F3B1FE90198815F
:10046000908311828F5F282F30E0241735076CF3BB
:10047000DF91CF910895EF92FF920F931F93CF9347
:10048000DF9300D000D0CDB7DEB7DE01A20FB11DE3
:100490007A010EC0F70191917F01092F01540632B4
:1004A00028F410E005591F4FF80190819C93119793
:1004B0009E2D941B921770F3AE014F5F5F4FB5DF17
:1004C0000F900F900F900F90DF91CF911F910F9190
:1004D000FF90EF9008959091BE009923C9F44333A3
:1004E000C8F491E09093BE00AFEBB0E0FB0102C016
:1004F00091919D939E2F961B9417D0F34093F100FA
:100500008093F2003093F4002093F30081E008958B
:1005100080E0089580E00895EF92FF920F931F937B
:10052000CF93DF930F92CDB7DEB7182F7B01809169
:10053000BE00882371F080E010C0B701600F711D0C
:10054000802F810F498330D24981813019F40F5FA8
:1005500001C000E0041788F381E00F90DF91CF9194
:100560001F910F91FF90EF9008958091BE00813010
:1005700011F58091F5009091F100891761F41092C6
:10058000F5001092BE00E091F300F091F400309776
:1005900091F0099508959091F200E82FF0E0E15470
:1005A000FF4F890F6081F4D1813029F48091F500EB
:1005B0008F5F8093F500089589E0E6EFF0E0DF01BA
:1005C0001D928A95E9F7089590E0FC01EE0FFF1F58
:1005D000E80FF91FEA50FF4F8081982F9F73908397
:1005E0000895EF92FF920F931F93CF93DF930F9293
:1005F000CDB7DEB790E07C01EE0CFF1CE80EF91ED3
:1006000026EF30E0E20EF31EF70120812F738C01FC
:1006100043E0000F111F4A95E1F70B571F4FF801F8
:1006200080812983D4D129812130F9F0213020F033
:10063000223009F05CC046C0F8019181F70198179B
:1006400089F481819281019692838183F8012481CA
:1006500035812817390709F04CC081E8F7018083FC
:10066000F80134C01282118244C0F8019181F7016F
:1006700021813281F801428153819817B1F4241706
:10068000350778F02F5F3F4FF70132832183F80160
:10069000868197818217930761F582E8F70180834D
:1006A00001C0F7015283418324C042175307C8F3A6
:1006B00021503040F7013283218321153105C9F4DF
:1006C00080E413C0F8019181981731F482819381FD
:1006D000F701928381830DC0F70181819281019797
:1006E00092838183009729F480E8808302C0F70118
:1006F00010820F90DF91CF911F910F91FF90EF909B
:100700000895089580910301813019F41092030136
:10071000089580910201882329F08091020181507F
:10072000809302010895809103018823A9F481E058
:1007300080930301809102018F5F8093020181E029
:10074000A0D190930101809300018091FF008093DC
:1007500004011092FF00089580910201882329F07E
:10076000809102018150809302010895CF93DF931D
:1007700040910001509101012091040130E08FE887
:1007800092E0289FF001299FF00D389FF00D112471
:10079000CA0164E670E04DD2E60FF71FF093060140
:1007A000E093050180910201C0910701D0910801F9
:1007B000C80FD11DD0930801C09307011092020108
:1007C00020919D0030919E0040E050E060EA76E884
:1007D00081E090E042D2C217D307C8F080910901AE
:1007E00090910A01A0910B01B0910C010196A11DFD
:1007F000B11D8093090190930A01A0930B01B0935E
:100800000C01C21BD30BD0930801C0930701DF91E9
:10081000CF910895DC01CB018093090190930A01E7
:10082000A0930B01B0930C010895609109017091A0
:100830000A0180910B0190910C01089590939E0004
:1008400080939D000895CF93DF93813029F468E66B
:1008500071E080E090E004C061EE70E080E090E044
:10086000C0910501D0910601209769F020919D006B
:1008700030919E0040E050E0BDD19E0140E050E04C
:10088000ECD1C90102C080E090E02091FF0020344B
:1008900011F480E090E0DF91CF9108958091FF0006
:1008A000803428F48091FF008F5F8093FF000895CB
:1008B00029DF089538DF0895F1DF089580E091DEA3
:1008C00081E08FDE82E08DDE50DE08954FDF0895F7
:1008D00059DC089545DD0895B1D073D012DF3EDCB8
:1008E00081E0DFDC86E694E060E044E111D088E658
:1008F00094E062E042E30CD08AE694E061E042E0FA
:1009000007D08EE594E063E04AE002D01BD0089562
:10091000643060F4E62FF0E0EE0FFF1FEE0FFF1FD4
:10092000E35FFE4F91838083428313820895E0E169
:10093000F1E084E090819F5F90838150349688231A
:10094000C9F7089510921D011EC0F0E0EE0FFF1FC1
:10095000EE0FFF1FE35FFE4F92818381891770F0D6
:100960000190F081E02D0995E0911D01F0E0EE0F7E
:10097000FF1FEE0FFF1FE35FFE4F138280911D01EB
:100980008F5F80931D01E0911D01E430D8F6DDCF2B
:10099000E19908C090E09FBB8EBB6DBBE29AE19AE3
:1009A00081E0089580E00895E19909C090E09FBB3F
:1009B0008EBBE09A8DB3FB01808381E0089580E0D7
:1009C00008958FEF87BB84BB11BA82BB0895803135
:1009D00039F0813141F08F3049F480B3807108954E
:1009E00080B38072089580B38074089580E0089584
:1009F0000895882329F485B3807F862B85BB0895CD
:100A000088B3807F862B88BB0895882319F08130B6
:100A100031F402C083B301C086B38F70089586B3EA
:100A20008F700895882311F465BB089568BB0895FD
:100A3000882311F086B3089583B308958EB582603C
:100A40008EBD8FEF9FE79DBD8CBD83B7836083BF55
:100A500082EC82BF89B7816089BF89B7846089BF12
:100A60008BB780648BBF85B7836085BF8BB7806889
:100A70008BBF85B78C6085BF81B38C6081BB789458
:100A80000895833058F48CB59DB58F5F9F47880FCC
:100A9000991F2FEF3FE73DBD2CBD089580E090E00A
:100AA00008951F920F920FB60F9211242F933F9328
:100AB0004F935F936F937F938F939F93AF93BF9366
:100AC000EF93FF9382EC82BF32DFFF91EF91BF91F2
:100AD000AF919F918F917F916F915F914F913F91D6
:100AE0002F910F900FBE0F901F9018951F920F928D
:100AF0000FB60F9211242F933F934F935F936F93F1
:100B00007F938F939F93AF93BF93EF93FF938FEF59
:100B10009FE79DBD8CBDD0DEFF91EF91BF91AF915E
:100B20009F918F917F916F915F914F913F912F9105
:100B30000F900FBE0F901F9018951F920F920FB637
:100B40000F9211242F933F934F935F936F937F9353
:100B50008F939F93AF93BF93EF93FF93A9DE85B7D6
:100B6000836085BFFF91EF91BF91AF919F918F916E
:100B70007F916F915F914F913F912F910F900FBE99
:100B80000F901F9018951F920F920FB60F9211247D
:100B90002F933F934F935F936F937F938F939F9385
:100BA000AF93BF93EF93FF9385DEFF91EF91BF91DA
:100BB000AF919F918F917F916F915F914F913F91F5
:100BC0002F910F900FBE0F901F90189585B78C7FB7
:100BD00085BF85B7806285BFF89485B7806885BF7B
:100BE0007894889585B78F7785BF089575DE80E006
:100BF00090E00895629FD001739FF001829FE00D05
:100C0000F11D649FE00DF11D929FF00D839FF00D8B
:100C1000749FF00D659FF00D9927729FB00DE11D37
:100C2000F91F639FB00DE11DF91FBD01CF01112414
:100C30000895AA1BBB1B51E107C0AA1FBB1FA61723
:100C4000B70710F0A61BB70B881F991F5A95A9F775
:100C500080959095BC01CD010895A1E21A2EAA1BA2
:100C6000BB1BFD010DC0AA1FBB1FEE1FFF1FA2175C
:100C7000B307E407F50720F0A21BB30BE40BF50B59
:100C8000661F771F881F991F1A9469F760957095E2
:100C9000809590959B01AC01BD01CF010895F8941A
:020CA000FFCF84
:100CA200FC60DAF266B6BEE0FEF601EE3E9C7A9E8B
:100CB2008EF62E0C780000000000000000B6000046
:100CC2007C000000000F0006000600640010000611
:100CD20000060064001100060006006400C800005F
:00000001FF
