:1000000012C0D8C5FDC52AC029C028C027C026C037
:10001000AAC584C523C022C021C020C01FC01EC0E5
:100020001DC01CC01BC011241FBECFE5D4E0DEBF25
:10003000CDBF10E0A0E6B0E0E0E4FDE002C0059036
:100040000D92A839B107D9F711E0A8E9B0E001C0D5
:100050001D92AD31B107E1F718D670C6D1CF81E05E
:1000600068E970E049E096D28091980090919900FB
:1000700027E28031920730F080ED97E0909399006D
:100080008093980080919B0090919C0027E28031A2
:10009000920720F010929C0010929B0080919B0090
:1000A00090919C0027E28031920740F010929D00D1
:1000B00010929E0010929F001092A00080919800D4
:1000C00090919900F9D360919B0070919C0080E021
:1000D00090E0DED360919D0070919E0080919F0022
:1000E0009091A0004AD008958F929F92AF92BF92B4
:1000F000CF92DF92EF92FF920F931F93CF93DF93F4
:100100000F92CDB7DEB780919A008983CCD34B0193
:100110005C01CE0101967BD0CE01019639D06B01F6
:100120007C01CE010196B701A6019501840122D080
:10013000CE010196B3D08981881F8827881FC1D33B
:10014000BC0180E090E040E021E001E0ABD0C701DD
:10015000B60141E020E0A6D00F90DF91CF911F9132
:100160000F91FF90EF90DF90CF90BF90AF909F9056
:100170008F90089580E090E00895DC01CB0180939A
:10018000A1009093A200A093A300B093A4000895AF
:10019000FC01808185FF0DC01092A6001092A50081
:1001A0001092A1001092A2001092A3001092A4003D
:1001B00025C08091A5009091A600F4E0803B9F07A8
:1001C000C0F01092A6001092A5008091A10090911D
:1001D000A200A091A300B091A4000196A11DB11DA1
:1001E0008093A1009093A200A093A300B093A400D9
:1001F00005C001969093A6008093A5006091A10090
:100200007091A2008091A3009091A40008951F9383
:10021000CF93DF93EC0180E015D2182F81E012D24A
:100220009091A700992319F0913091F517C01230E1
:1002300031F4823051F481E08093A7002BC0103458
:1002400021F48881982F9D5F05C0803419F588813D
:10025000982F9F5F93708C7F892B15C0123039F4D3
:10026000823059F41092A700888184600CC0103449
:1002700021F488818061877F06C09881803429F4C9
:10028000892F88608F7E888305C0977E988302C0FF
:100290001092A700DF91CF911F9108950895809348
:1002A000A80008952F923F924F925F927F928F9273
:1002B0009F92AF92BF92CF92DF92EF92FF920F93F5
:1002C0001F93CF93DF9300D000D0CDB7DEB7122FAE
:1002D000702E242F30E03A83298343E0220F331F0E
:1002E0004A95E1F727553F4F6B017C0188245AE07E
:1002F000252E312C412C512C3C832B83912EC11463
:10030000D104E104F10411F4981438F1C701B601E5
:10031000A2019101F1D4122F032FB42EA52E622F2A
:10032000732F842F952F2AE030E040E050E0B1D4C5
:10033000DC01CB01C81AD90AEA0AFB0AF601E05A25
:10034000FF4F8081AB81BC818C9311961C921197D9
:10035000C12ED02EEB2CFA2C0EC0772039F42CEFC6
:1003600030E0EB81FC813183208305C0AB81BC810F
:1003700011961C921E928394EB81FC813296FC8331
:10038000EB83F4E08F1609F0BACF992089F0E98168
:10039000FA81EE0FFF1FEE0FFF1FE90DF11DEE0FAB
:1003A000FF1FE755FF4F808191818160918380839A
:1003B0000F900F900F900F90DF91CF911F910F91A1
:1003C000FF90EF90DF90CF90BF90AF909F908F9075
:1003D0007F905F904F903F902F900895CF93909192
:1003E000B900992381F08091BA008F5F8093BA00A1
:1003F000891759F48091BB0091E089278093BB0055
:100400001092BA0002C01092BB008091BB008130F4
:1004100061F49091BC008091BD00981731F49091E7
:10042000BE008091BF00981789F08091BC00E091D8
:10043000BF00F0E0EE0FFF1FEE0FFF1FE80FF11DF2
:10044000EE0FFF1FE755FF4FC08101C0C0E0809154
:10045000A800813009F4C0956091BF00660F660F57
:100460008091BC00680F80E001D381E06C2F17D32E
:100470008091BC008F5F8093BC00843059F410924F
:10048000BC008091BF008F5F8093BF00823011F469
:100490001092BF00CF9108958093BD004093B900A2
:1004A0006093BE000895CF93DF93DA01422F50E0AE
:1004B000480F511D45305105CCF470E0660F771F91
:1004C000660F771F0EC0FB01E20FF31FEE0FFF1F39
:1004D000E755FF4F2A0F3B1FE90198819083118256
:1004E0008F5F282F30E0241735076CF3DF91CF9111
:1004F0000895EF92FF920F931F93CF93DF9300D055
:1005000000D0CDB7DEB7DE01A20FB11D7A010EC05B
:10051000F70191917F01092F0154063228F410E070
:1005200005591F4FF80190819C9311979E2D941BA4
:10053000921770F3AE014F5F5F4FB5DF0F900F90D2
:100540000F900F90DF91CF911F910F91FF90EF903F
:1005500008959091C0009923C9F44333C8F491E001
:100560009093C000A1ECB0E0FB0102C091919D937B
:100570009E2F961B9417D0F34093F3008093F400C2
:100580003093F6002093F50081E0089580E008950F
:1005900080E00895EF92FF920F931F93CF93DF9324
:1005A0000F92CDB7DEB7182F7B018091C000882352
:1005B00071F080E010C0B701600F711D802F810FB6
:1005C00049832FD24981813019F40F5F01C000E0C7
:1005D000041788F381E00F90DF91CF911F910F9165
:1005E000FF90EF9008958091C000813011F58091C7
:1005F000F7009091F300891761F41092F7001092C0
:10060000C000E091F500F091F600309791F0099567
:1006100008959091F400E82FF0E0EF53FF4F890F19
:100620006081F3D1813029F48091F7008F5F80934E
:10063000F700089586E0E8EFF0E0DF011D928A956B
:10064000E9F7089590E0FC01EE0FFF1FE80FF91F96
:10065000E850FF4F8081982F9F7390830895EF9209
:10066000FF920F931F93CF93DF930F92CDB7DEB717
:1006700090E07C01EE0CFF1CE80EF91E28EF30E044
:10068000E20EF31EF70120812F738C0143E0000F6F
:10069000111F4A95E1F70B571F4FF80180812983FD
:1006A000D3D129812130F9F0213020F0223009F016
:1006B0005CC046C0F8019181F701981789F48181E7
:1006C0009281019692838183F801248135812817D4
:1006D000390709F04CC081E8F7018083F80134C084
:1006E0001282118244C0F8019181F7012181328187
:1006F000F801428153819817B1F42417350778F037
:100700002F5F3F4FF70132832183F8018681978164
:100710008217930761F582E8F701808301C0F70132
:100720005283418324C042175307C8F321503040FD
:10073000F7013283218321153105C9F480E413C008
:10074000F8019181981731F482819381F7019283A6
:1007500081830DC0F701818192810197928381830A
:10076000009729F480E8808302C0F70110820F907F
:10077000DF91CF911F910F91FF90EF900895089511
:1007800080910201813019F4109202010895809144
:100790000101882329F0809101018150809301019A
:1007A0000895809102018823A9F481E080930201D9
:1007B000809101018F5F8093010181E09FD190932F
:1007C00000018093FF008091FE008093030110924E
:1007D000FE00089580910101882329F08091010194
:1007E0008150809301010895CF93DF934091FF00E2
:1007F000509100012091030130E08FE892E0289FA2
:10080000F001299FF00D389FF00D1124CA0164E614
:1008100070E05ED2E60FF71FF0930501E09304014C
:1008200080910101C0910601D0910701C80FD11D2F
:10083000D0930701C0930601109201012091950009
:100840003091960040E050E060EA76E881E090E088
:1008500053D2C217D307C8F08091080190910901C3
:10086000A0910A01B0910B010196A11DB11D8093C9
:10087000080190930901A0930A01B0930B01C21BD8
:10088000D30BD0930701C0930601DF91CF91089558
:10089000DC01CB018093080190930901A0930A0128
:1008A000B0930B0108956091080170910901809146
:1008B0000A0190910B010895909396008093950002
:1008C0000895CF93DF93813029F468E671E080E0EA
:1008D00090E004C061EE70E080E090E0C09104011F
:1008E000D0910501209769F02091950030919600F4
:1008F00040E050E0CED19E0140E050E0FDD1C90182
:1009000002C080E090E02091FE00203411F480E0ED
:1009100090E0DF91CF9108958091FE00803428F41B
:100920008091FE008F5F8093FE00089529DF089577
:1009300038DF0895F1DF089580E091DE81E08FDEF9
:1009400052DE089551DF0895CFDB089547DD089505
:100950008AD1B1D073D013DF82DB81E0A0DC82EAE0
:1009600094E060E044E111D084EA94E062E042E384
:100970000CD086EA94E061E042E007D08CE994E094
:1009800063E04AE002D01BD00895643060F4E62FA3
:10099000F0E0EE0FFF1FEE0FFF1FE45FFE4F9183AD
:1009A0008083428313820895EFE0F1E084E0908138
:1009B0009F5F9083815034968823C9F708951092E1
:1009C0001C011EC0F0E0EE0FFF1FEE0FFF1FE45FE3
:1009D000FE4F92818381891770F00190F081E02DA4
:1009E0000995E0911C01F0E0EE0FFF1FEE0FFF1FD5
:1009F000E45FFE4F138280911C018F5F80931C0186
:100A0000E0911C01E430D8F6DDCFE19908C090E018
:100A10009FBB8EBB6DBBE29AE19A81E0089580E0B6
:100A20000895E19909C090E09FBB8EBBE09A8DB319
:100A3000FB01808381E0089580E008958FEF87BBFC
:100A400084BB11BA82BB0895803139F0813141F005
:100A50008F3049F480B38071089580B38072089517
:100A600080B38074089580E008950895882329F460
:100A700085B3807F862B85BB089588B3807F862BC6
:100A800088BB0895882319F0813031F402C083B304
:100A900001C086B38F70089586B38F700895882340
:100AA00011F465BB089568BB0895882311F086B3DF
:100AB000089583B308958EB582608EBD8FEF9FE752
:100AC0009DBD8CBD83B7836083BF82EC82BF89B735
:100AD000816089BF89B7846089BF8BB780648BBF11
:100AE00085B7836085BF8BB780688BBF85B78C6007
:100AF00085BF81B38C6081BB78940895833058F4AE
:100B00008CB59DB58F5F9F47880F991F2FEF3FE7EB
:100B10003DBD2CBD089580E090E008951F920F9296
:100B20000FB60F9211242F933F934F935F936F93C0
:100B30007F938F939F93AF93BF93EF93FF9382EC39
:100B400082BF32DFFF91EF91BF91AF919F918F9163
:100B50007F916F915F914F913F912F910F900FBEB9
:100B60000F901F9018951F920F920FB60F9211249D
:100B70002F933F934F935F936F937F938F939F93A5
:100B8000AF93BF93EF93FF938FEF9FE79DBD8CBD16
:100B9000D1DEFF91EF91BF91AF919F918F917F91A6
:100BA0006F915F914F913F912F910F900FBE0F90DA
:100BB0001F9018951F920F920FB60F9211242F932A
:100BC0003F934F935F936F937F938F939F93AF93D5
:100BD000BF93EF93FF93AADE85B7836085BFFF9134
:100BE000EF91BF91AF919F918F917F916F915F91A5
:100BF0004F913F912F910F900FBE0F901F9018951E
:100C00001F920F920FB60F9211242F933F934F9381
:100C10005F936F937F938F939F93AF93BF93EF9364
:100C2000FF9386DEFF91EF91BF91AF919F918F91DE
:100C30007F916F915F914F913F912F910F900FBED8
:100C40000F901F90189585B78C7F85BF85B7806200
:100C500085BFF89485B7806885BF7894889585B7F7
:100C60008F7785BF0895CF93DF930F92CDB7DEB70F
:100C700080E0BE016F5F7F4FD4DE8823C9F3898196
:100C800081BF0F90DF91CF91089562DE80E090E008
:100C90000895629FD001739FF001829FE00DF11DC6
:100CA000649FE00DF11D929FF00D839FF00D749FE6
:100CB000F00D659FF00D9927729FB00DE11DF91F92
:100CC000639FB00DE11DF91FBD01CF0111240895EF
:100CD000AA1BBB1B51E107C0AA1FBB1FA617B70762
:100CE00010F0A61BB70B881F991F5A95A9F780957E
:100CF0009095BC01CD010895A1E21A2EAA1BBB1B41
:100D0000FD010DC0AA1FBB1FEE1FFF1FA217B307D7
:100D1000E407F50720F0A21BB30BE40BF50B661FED
:100D2000771F881F991F1A9469F7609570958095B1
:100D300090959B01AC01BD01CF010895F894FFCFC0
:100D4000FC60DAF266B6BEE0FEF601EE3E9C7A9EEC
:100D50008EF62E0C780000000000000000B60000A7
:100D60007C000000000F0006000600640010000672
:080D70000006006400C8000049
:00000001FF
