:1000000012C0B5C9DAC92AC029C028C027C026C075
:1000100087C961C923C022C021C020C01FC01EC023
:100020001DC01CC01BC011241FBECFE5D4E0DEBF25
:10003000CDBF10E0A0E6B0E0EAEFF4E102C0059029
:100040000D92A43AB107D9F711E0A4EAB0E001C0DB
:100050001D92A735B107E1F7F5D94DCAD1CFCF929F
:10006000DF92EF92FF920F931F93CF93DF9300D015
:1000700000D0CDB7DEB79C01162F042F6E01089477
:10008000C11CD11CF60144E0AAE0EA2EF12C211596
:10009000310569F0C901B701F8D9962F990F892F59
:1000A000880F880F890F281B20839B0101C01082B5
:1000B00041503196442359F7E12FF0E0002369F4D1
:1000C00081E090E08C0F9D1FE80FF91F808188234D
:1000D00011F489E00EC081500CC0A1E0B0E0AC0F7B
:1000E000BD1FEA0FFB1F8081893011F4108202C00E
:1000F0008F5F808320E060E070E01EC0CA01880F3F
:10010000991FF3E0440F551FFA95E1F7480F591F67
:10011000EF5FE21799F7D6018D916D0190E0489F4E
:100120009001499F300D589F300D1124620F731FAD
:100130002E2F2F5F243021F041E050E0E0E0E9CFA6
:10014000CB010F900F900F900F90DF91CF911F91E7
:100150000F91FF90EF90DF90CF90089581E064EAD7
:1001600070E04FE015D58091A4009091A50027E2A2
:100170008031920730F080ED97E09093A500809356
:10018000A4008091A9009091AA00A091AB00B09129
:10019000AC00803127E2920720E0A20720E0B207FE
:1001A00040F01092A9001092AA001092AB00109299
:1001B000AC008091A9009091AA00A091AB00B091F1
:1001C000AC00803127E2920720E0A20720E0B207CE
:1001D00040F01092AD001092AE001092AF0010925D
:1001E000B0008091B1009091B20027E28031920777
:1001F00020F01092B2001092B1008091A6008430DD
:1002000010F01092A6008091A4009091A500D4D681
:100210006091A9007091AA008091AB009091AC0010
:10022000B3D66091AD007091AE008091AF00909117
:10023000B00027D28091B1009091B20009D2089508
:10024000CF93C62F2CE330E040E050E032D98CE36E
:10025000289F802D1124C81B44E650E0249FC00134
:10026000259F900D349F900D11248C0F911DCF91DF
:1002700008958F929F92AF92BF92CF92DF92EF92AA
:10028000FF920F931F93CF93DF9300D0CDB7DEB7CC
:100290008091A7009091A8009A8389838A818D7F9D
:1002A0008A83CE01019632D28A818295817069D685
:1002B0007AD6DC01CB018093A9009093AA00A09389
:1002C000AB00B093AC0081E07CD67C01009781F05C
:1002D000CE010196E5D1DC01CB018093AD00909376
:1002E000AE00A093AF00B093B0008A818D7F8A8367
:1002F0004091AD005091AE006091AF007091B000A0
:100300000091A9001091AA002091AB003091AC009F
:10031000CE0101967BD18C01CE010196B7019DD112
:100320009093B2008093B100CE01019664EA70E030
:1003300094D28090A9009090AA00A090AB00B090B9
:10034000AC00C090B100D090B2008A8182FD4FC055
:10035000C601880F991F23E0CC0CDD1C2A95E1F71C
:10036000C80ED91E88E090E0C80ED91E34E0D6949D
:10037000C7943A95E1F7C701880F991F53E0EE0C37
:10038000FF1C5A95E1F7E80EF91EA8E0B0E0EA0E6E
:10039000FB1E64E0F694E7946A95E1F7C801880FC4
:1003A000991FE3E0000F111FEA95E1F7080F191FED
:1003B000085F1F4FF4E016950795FA95E1F7C50120
:1003C000B4012AE030E040E050E040D84B015C014D
:1003D00088E090E0A0E0B0E0880E991EAA1EBB1E47
:1003E000E4E0B694A79497948794EA95D1F769814D
:1003F000677081E0C8D489814A81429541708770D5
:1004000064E1D3D48A8186958695817066E0B5D4FF
:100410008A81869586958095817065E0AED4298124
:10042000822F877090E08230910509F45AC08330A2
:1004300091053CF4009771F08130910509F0B7C047
:1004400026C08330910509F459C08430910509F024
:10045000AEC05BC026FF10C060E070E0CB0111D1E0
:1004600060E070E0CB0190D51092AD001092AE002C
:100470001092AF001092B000B70180E090E040E031
:1004800021E001E00DD2C501B40141E035C026FFF5
:1004900010C060E070E0CB01F4D060E070E0CB0110
:1004A00073D51092AD001092AE001092AF00109272
:1004B000B0006091AD007091AE008091AF0090915E
:1004C000B000BEDEBC0180E090E041E022E000E050
:1004D000E7D1B70180E090E040E021E001E0E0D129
:1004E0006FC0B80180E090E041E021E001E0D8D1A8
:1004F000B70180E090E040E021E0F1CF26FF03C0AB
:1005000080E090E0A5D0B601EDCF8A8183FF34C0B2
:1005100026FF09C08091A600833019F41092A6002E
:1005200026C08F5F09C027FF0AC08091A6008823DC
:1005300011F483E001C081508093A60018C024FF0D
:1005400008C08091A4009091A5006091A60040E0B1
:1005500009C025FF0CC08091A4009091A500609176
:10056000A60041E07CDD9093A5008093A4008091DB
:10057000A60061E044E604C08091A60061E040E08E
:1005800089D26091A4007091A50080E090E041E0E4
:1005900020E000E085D18091A4009091A5000CD5C9
:1005A00080E060E040E650E024E0A1D209C0B7015D
:1005B00080E090E040E021E001E072D11A821982EF
:1005C00089819A819093A8008093A700898183FFF5
:1005D0000EC081E064EA70E04FE020E030E0B7D286
:1005E000813029F48091A700877F8093A7000F9026
:1005F0000F90DF91CF911F910F91FF90EF90DF90BF
:10060000CF90BF90AF909F908F900895CF92DF9240
:10061000EF92FF920F931F936A017B01C901B8010A
:10062000C114D104E104F10451F02CE330E040E0C6
:1006300050E00CD7A70196013CD7C90102C080E069
:1006400090E01F910F91FF90EF90DF90CF90089571
:100650009093B4008093B3000895FC01818184FDE0
:100660000BC08091B3009091B4008617970720F4D7
:100670007093B4006093B3008091B3009091B40084
:100680000895DC01CB018093B5009093B600A09350
:10069000B700B093B8001092BA001092B900089554
:1006A000FC018091B9009091BA0024E0803B920750
:1006B000E0F01092BA001092B9004091B50050914C
:1006C000B6006091B7007091B8004F5F5F4F6F4FF9
:1006D0007F4F4093B5005093B6006093B70070937E
:1006E000B80080818860808308C0218124FD05C016
:1006F00001969093BA008093B9006091B500709113
:10070000B6008091B7009091B80008951F93CF93E1
:10071000DF93EC0180E094D2182F81E091D2909188
:10072000BB009130E9F1913038F0923009F474C097
:10073000933009F07EC075C0113021F4813071F41E
:1007400083E074C0103451F49881892F8770987FAA
:10075000882311F494600AC081500BC0803469F47E
:100760009881892F8770987F843011F4988363C0B3
:100770008F5F8770892B88835EC09981123829F436
:10078000892F809584709B7F06C0823831F4892F31
:10079000809580719F7E982B01C0926099834BC099
:1007A000388137709981292F269526952170929549
:1007B000917019821882113041F4813061F482E025
:1007C0008093BB008881886004C0103421F4888144
:1007D0008062888311C04881803411F4406107C071
:1007E000123811F4406803C0823819F44064488319
:1007F00003C08981826089838881887F832B888375
:100800002170220F220F89818B7E91709295907FAB
:10081000822B892B89830FC0112369F4882359F413
:1008200008C0112341F4882331F481E08093BB0098
:1008300002C01092BB009091BB009170990F990F6C
:10084000990F8981877F892B8983DF91CF911F91B0
:10085000089585D4D5D57BD40895FC01818181FF8D
:1008600017C08091BC009091BD0001969093BD008F
:100870008093BC00F2E088359F0771F41092BD00B0
:100880001092BC0081E04FE029E234E060D108958D
:100890001092BD001092BC0008958093BE00089590
:1008A0002F923F924F925F927F928F929F92AF9240
:1008B000BF92CF92DF92EF92FF920F931F93CF934D
:1008C000DF9300D000D0CDB7DEB7122F702E242FCB
:1008D00030E03A83298343E0220F331F4A95E1F742
:1008E00021543F4F6B017C0188245AE0252E312C86
:1008F000412C512C3C832B83912EC114D104E10453
:10090000F10411F4981438F1C701B601A201910164
:10091000D0D5122F032FB42EA52E622F732F842F24
:10092000952F2AE030E040E050E090D5DC01CB018B
:10093000C81AD90AEA0AFB0AF601EB59FF4F80816F
:10094000AB81BC818C9311961C921197C12ED02E35
:10095000EB2CFA2C0EC0772039F42CEF30E0EB8131
:10096000FC813183208305C0AB81BC8111961C9230
:100970001E928394EB81FC813296FC83EB83F4E03E
:100980008F1609F0BACF992089F0E981FA81EE0F2C
:10099000FF1FEE0FFF1FE90DF11DEE0FFF1FE154CA
:1009A000FF4F808191818160918380830F900F90B0
:1009B0000F900F90DF91CF911F910F91FF90EF90CB
:1009C000DF90CF90BF90AF909F908F907F905F907F
:1009D0004F903F902F900895CF939091CF009923FF
:1009E00081F08091D0008F5F8093D000891759F4F7
:1009F0008091D10091E089278093D1001092D0009E
:100A000002C01092D1008091D100813061F49091A8
:100A1000D2008091D300981731F49091D400809146
:100A2000D500981789F08091D200E091D500F0E0D0
:100A3000EE0FFF1FEE0FFF1FE80FF11DEE0FFF1F60
:100A4000E154FF4FC08101C0C0E08091BE00813001
:100A500009F4C0956091D500660F660F8091D200B1
:100A6000680F80E0E0D381E06C2FF6D38091D20054
:100A70008F5F8093D200843059F41092D20080911D
:100A8000D5008F5F8093D500823011F41092D5008D
:100A9000CF9108958093D3004093CF006093D4000A
:100AA0000895CF93DF93DA01422F50E0480F511D94
:100AB00045305105CCF470E0660F771F660F771F45
:100AC0000EC0FB01E20FF31FEE0FFF1FE154FF4FBB
:100AD0002A0F3B1FE9019881908311828F5F282F95
:100AE00030E0241735076CF3DF91CF910895EF9232
:100AF000FF920F931F93CF93DF9300D000D0CDB719
:100B0000DEB7DE01A20FB11D7A010EC0F70191918F
:100B10007F01092F0154063228F410E000591F4FBD
:100B2000F80190819C9311979E2D941B921770F35E
:100B3000AE014F5F5F4FB5DF0F900F900F900F909A
:100B4000DF91CF911F910F91FF90EF9008959091B9
:100B5000D6009923C9F44333C8F491E09093D600AA
:100B6000A7EDB0E0FB0102C091919D939E2F961BD3
:100B70009417D0F34093090180930A0130930C013C
:100B800020930B0181E0089580E0089580E00895AE
:100B9000EF92FF920F931F93CF93DF930F92CDB7F6
:100BA000DEB7182F7B018091D600882371F080E09A
:100BB00010C0B701600F711D802F810F4983BAD219
:100BC0004981813019F40F5F01C000E0041788F3F8
:100BD00081E00F90DF91CF911F910F91FF90EF90E7
:100BE00008958091D600813011F580910D0190918A
:100BF0000901891761F410920D011092D600E0915D
:100C00000B01F0910C01309791F0099508959091A6
:100C10000A01E82FF0E0E952FF4F890F60817ED290
:100C2000813029F480910D018F5F80930D0108952B
:100C300086E0EEE0F1E0DF011D928A95E9F7089584
:100C400090E0FC01EE0FFF1FE80FF91FE25FFE4F7F
:100C50008081982F9F7390830895EF92FF920F9356
:100C60001F93CF93DF930F92CDB7DEB790E07C0157
:100C7000EE0CFF1CE80EF91E2EE031E0E20EF31E32
:100C8000F70120812F738C0143E0000F111F4A955B
:100C9000E1F706571F4FF8018081298367D2298128
:100CA0002130F9F0213020F0223009F05CC046C03C
:100CB000F8019181F701981789F481819281019659
:100CC00092838183F801248135812817390709F03F
:100CD0004CC081E8F7018083F80134C01282118290
:100CE00044C0F8019181F70121813281F8014281EC
:100CF00053819817B1F42417350778F02F5F3F4FD1
:100D0000F70132832183F801868197818217930747
:100D100061F582E8F701808301C0F70152834183C6
:100D200024C042175307C8F321503040F7013283E3
:100D3000218321153105C9F480E413C0F8019181A4
:100D4000981731F482819381F701928381830DC0DA
:100D5000F70181819281019792838183009729F421
:100D600080E8808302C0F70110820F90DF91CF915D
:100D70001F910F91FF90EF900895E4E1F1E0E60FED
:100D8000F11D80830895982F90959170E62FF0E0E3
:100D9000EC5EFE4F8083E4E1F1E080E08613908317
:100DA0008F5F31968730D1F7089590E0FC01E55EC2
:100DB000FE4F60838E5D9E4FFC014083089587E067
:100DC000EBE1F1E0DF01982F1D929A95E9F7E2E25D
:100DD000F1E0DF01982F1D929A95E9F7E4E1F1E047
:100DE000DF01982F1D929A95E9F7E9E2F1E0DF0122
:100DF000982F1D929A95E9F7E0E3F1E0DF011D924B
:100E00008A95E9F70895CF93DF9390E0FC01EC5EBB
:100E1000FE4F2081DC01A75DBE4FEC01C05DDE4FBF
:100E20002130B9F4FC01EE5DFE4F3081313079F4B0
:100E30002C91FC01E55EFE4F4081241728F01C92A6
:100E400028812327288307C02F5F2C9304C0288381
:100E500001C018821C9286569F4FFC0180816881D8
:100E600096D1DF91CF910895089580913B01813013
:100E700019F410923B01089580913A01882329F0DA
:100E800080913A01815080933A01089580913B010D
:100E90008823A9F481E080933B0180913A018F5F20
:100EA00080933A0181E007D2909339018093380111
:100EB0008091370180933C01109237010895809111
:100EC0003A01882329F080913A01815080933A01B8
:100ED0000895409138015091390120913C0130E052
:100EE0008FE892E0289FF001299FF00D389FF00DC8
:100EF0001124CA0164E670E0C8D2E60FF71FF09330
:100F00003E01E0933D0180913F018823B9F5209196
:100F1000A1003091A20040E050E060EA76E881E074
:100F200090E0C7D240913A018091400190914101F7
:100F3000840F911D909341018093400110923A01DA
:100F400082179307E8F0409142015091430160916C
:100F50004401709145014F5F5F4F6F4F7F4F40934A
:100F60004201509343016093440170934501821BF9
:100F7000930B9093410180934001089510923A01A0
:100F8000089580933F010895DC01CB0180934201D5
:100F900090934301A0934401B09345011092410105
:100FA0001092400108956091420170914301809137
:100FB00044019091450108959093A2008093A1006F
:100FC0000895CF93DF93813029F468E671E080E0E3
:100FD00090E004C061EE70E080E090E0C0913D01DF
:100FE000D0913E01209769F02091A1003091A2009C
:100FF00040E050E02BD29E0140E050E05AD2C901BF
:1010000002C080E090E020913701203411F480E0AC
:1010100090E0DF91CF91089580913701803428F4DA
:10102000809137018F5F8093370108951EDF089507
:101030002DDF0895F1DF0895CF9380E00EDE81E08B
:101040000CDECFDDC0E08C2FDEDECF5FC730D9F7FE
:10105000CF9108953EDF08950CD90895BDDC089521
:10106000DFD106D174D000DF79D881E016DCA7DEAD
:101070008AE298E060E044E111D08CE298E062E01E
:1010800042E30CD08EE298E061E042E007D08CE1D0
:1010900098E063E04AE002D01BD00895643060F429
:1010A000E62FF0E0EE0FFF1FEE0FFF1FEA5BFE4F93
:1010B00091838083428313820895E9E4F1E084E020
:1010C00090819F5F9083815034968823C9F708955B
:1010D000109256011EC0F0E0EE0FFF1FEE0FFF1F33
:1010E000EA5BFE4F92818381891770F00190F08155
:1010F000E02D0995E0915601F0E0EE0FFF1FEE0F95
:10110000FF1FEA5BFE4F1382809156018F5F809331
:101110005601E0915601E430D8F6DDCFE19908C0E0
:1011200090E09FBB8EBB6DBBE29AE19A81E008958F
:1011300080E00895E19909C090E09FBB8EBBE09AE2
:101140008DB3FB01808381E0089580E008958FEFE7
:1011500087BB84BB83E881BB8CE782BB089517BA49
:1011600014BA11BA18BA15BA12BA0895803139F002
:10117000813141F08F3049F480B38071089580B39C
:101180008072089580B38074089580E0089582305D
:10119000E9F0833030F4882359F0813009F042C0FF
:1011A0000BC0853031F1863089F18330D9F516C016
:1011B00082B361708E7F0FC082B370E06170707017
:1011C000660F771F8D7F862B82BB089582B367954C
:1011D000662767958F77682B62BB089585B370E0AB
:1011E0006170707035E0660F771F3A95E1F78F7D7B
:1011F0000AC085B370E06170707024E0660F771FDD
:101200002A95E1F78F7E862B85BB089585B370E024
:101210006170707093E0660F771F9A95E1F7877F92
:10122000862B85BB0895882329F485B3887F862B78
:1012300085BB089588B3807F862B88BB089588235B
:1012400019F0813031F402C083B301C086B38F70CE
:10125000089586B38F700895882311F465BB0895AF
:1012600068BB0895882311F086B3089583B3089569
:101270008EB582608EBD8FEF9FE79DBD8CBD83B71D
:10128000836083BF82EC82BF89B7816089BF89B7E1
:10129000846089BF8BB780648BBF85B7836085BF4F
:1012A0008BB780688BBF85B78C6085BF81B38C603E
:1012B00081BB78940895833058F48CB59DB58F5FC9
:1012C0009F47880F991F2FEF3FE73DBD2CBD089525
:1012D00080E090E008951F920F920FB60F921124B4
:1012E0002F933F934F935F936F937F938F939F932E
:1012F000AF93BF93EF93FF9382EC82BFDEDEFF914B
:10130000EF91BF91AF919F918F917F916F915F917D
:101310004F913F912F910F900FBE0F901F901895F6
:101320001F920F920FB60F9211242F933F934F935A
:101330005F936F937F938F939F93AF93BF93EF933D
:10134000FF938FEF9FE79DBD8CBD74DEFF91EF9102
:10135000BF91AF919F918F917F916F915F914F91CD
:101360003F912F910F900FBE0F901F9018951F92D5
:101370000F920FB60F9211242F933F934F935F93C9
:101380006F937F938F939F93AF93BF93EF93FF934D
:101390004DDE85B7836085BFFF91EF91BF91AF911F
:1013A0009F918F917F916F915F914F913F912F917D
:1013B0000F900FBE0F901F9018951F920F920FB6AF
:1013C0000F9211242F933F934F935F936F937F93CB
:1013D0008F939F93AF93BF93EF93FF9329DEFF917A
:1013E000EF91BF91AF919F918F917F916F915F919D
:1013F0004F913F912F910F900FBE0F901F90189516
:1014000085B78C7F85BF85B7806285BFF89485B727
:10141000806885BF7894889585B78F7785BF089554
:10142000CF93DF930F92CDB7DEB780E0BE016F5F41
:101430007F4F80DE8823C9F3898181BF0F90DF91C0
:10144000CF9108950DDE80E090E00895629FD00175
:10145000739FF001829FE00DF11D649FE00DF11D6F
:10146000929FF00D839FF00D749FF00D659FF00D1E
:101470009927729FB00DE11DF91F639FB00DE11D0B
:10148000F91FBD01CF0111240895AA1BBB1B51E117
:1014900007C0AA1FBB1FA617B70710F0A61BB70BE4
:1014A000881F991F5A95A9F780959095BC01CD0189
:1014B0000895A1E21A2EAA1BBB1BFD010DC0AA1F95
:1014C000BB1FEE1FFF1FA217B307E407F50720F0AD
:1014D000A21BB30BE40BF50B661F771F881F991F28
:1014E0001A9469F760957095809590959B01AC0171
:0A14F000BD01CF010895F894FFCF6D
:1014FA004349524300FC60DAF266B6BEE0FEF601EA
:10150A00EE3E9C7A9E8EF62E0878000000000000BF
:10151A00000AB600007C000000000F00060006006A
:10152A0064001000060006006400000102030405BE
:04153A0006C80000DF
:00000001FF
