:1000000012C078C29AC22AC029C028C027C026C000
:100010004AC224C223C022C021C020C01FC01EC0AB
:100020001DC01CC01BC011241FBECFE5D4E0DEBF25
:10003000CDBF10E0A0E6B0E0ECE6F6E002C005902F
:100040000D92AE36B107D9F710E0AEE6B0E001C0D0
:100050001D92A339B107E1F799D206C3D1CF089514
:10006000CF93DF9380ED97E015D181E018D1EC01BB
:1000700008D1CE0161E006D0DF91CF910895809341
:100080006E0008950F931F93CF93DF93262FCFE633
:10009000D0E0FC0130E00AE010E0309711F42317C3
:1000A000B8F0CF01B801AAD2CB01AB01440F551F64
:1000B000B3E0880F991FBA95E1F7480F591FE41B69
:1000C000F50BE05AFF4F808188831982FB0102C043
:1000D000198218823F5F22963430F9F6222359F0B4
:1000E000E22FF0E0EE0FFF1FE159FF4F8081918179
:1000F000816091838083DF91CF911F910F9108954B
:10010000CF9390916E0080917700E82FF0E068E047
:1001100070E002C0759567958A95E2F7913039F4E1
:10012000EE0FFF1FE159FF4FC081C09506C06095DB
:10013000EE0FFF1FE159FF4FC08180E037D181E012
:100140006C2F4DD1809177008F5F80937700843042
:1001500011F410927700CF910895089580917C005A
:10016000813019F410927C00089580917B008823DF
:1001700029F080917B00815080937B0008958091CD
:100180007C008823A9F481E080937C0080917B002F
:100190008F5F80937B0081E051D190937A008093B0
:1001A00079008091780080937D0010927800089506
:1001B00080917B00882329F080917B00815080937F
:1001C0007B000895CF93DF934091790050917A009E
:1001D00020917D0030E08FE892E0289FF001299F78
:1001E000F00D389FF00D1124CA0164E670E006D2CC
:1001F000E60FF71FF0937F00E0937E0080917B0075
:10020000C0918000D0918100C80FD11DD093810092
:10021000C093800010927B0020916B0030916C00A5
:1002200040E050E060EA76E881E090E0FBD1C21760
:10023000D307C8F08091820090918300A091840040
:10024000B09185000196A11DB11D8093820090930D
:100250008300A0938400B0938500C21BD30BD0937E
:100260008100C0938000DF91CF910895DC01CB0124
:100270008093820090938300A0938400B0938500C4
:100280000895609182007091830080918400909124
:100290008500089590936C0080936B000895CF9330
:1002A000DF93813029F468E671E080E090E004C0DB
:1002B00061EE70E080E090E0C0917E00D0917F0020
:1002C000209769F020916B0030916C0040E050E085
:1002D00076D19E0140E050E0A5D1C90102C080E086
:1002E00090E020917800203411F480E090E0DF91DC
:1002F000CF91089580917800803428F4809178001F
:100300008F5F80937800089529DF089538DF08957E
:10031000F1DF0895633060F4E62FF0E0EE0FFF1F89
:10032000EE0FFF1FEA57FF4F9183808342831382B2
:100330000895809189008F5F8093890080918D005E
:100340008F5F80938D00809191008F5F80939100EB
:100350000895109292001EC0F0E0EE0FFF1FEE0F06
:10036000FF1FEA57FF4F92818381891770F0019038
:10037000F081E02D0995E0919200F0E0EE0FFF1F73
:10038000EE0FFF1FEA57FF4F1382809192008F5F9D
:1003900080939200E0919200E330D8F6DDCF8FEFAA
:1003A00087BB84BB089580E008950895882329F4CD
:1003B00085B3807F862B85BB089588B3807F862B8D
:1003C00088BB0895882319F0813031F402C085B3C9
:1003D00001C088B38F70089588B38F700895882303
:1003E00011F465BB089568BB0895882311F088B3A4
:1003F000089585B308958EB582608EBD8FEF9FE717
:100400009DBD8CBD83B7836083BF82EC82BF89B7FB
:10041000816089BF89B7846089BF8BB780648BBFD7
:1004200085B7836085BF8BB780688BBF85B78C60CD
:1004300085BF81B38C6081BB78940895833058F474
:100440008CB59DB58F5F9F47880F991F2FEF3FE7B2
:100450003DBD2CBD089580E090E008951F920F925D
:100460000FB60F9211242F933F934F935F936F9387
:100470007F938F939F93AF93BF93EF93FF9382EC00
:1004800082BF57DFFF91EF91BF91AF919F918F9105
:100490007F916F915F914F913F912F910F900FBE80
:1004A0000F901F9018951F920F920FB60F92112464
:1004B0002F933F934F935F936F937F938F939F936C
:1004C000AF93BF93EF93FF938FEF9FE79DBD8CBDDD
:1004D0001FDFFF91EF91BF91AF919F918F917F911E
:1004E0006F915F914F913F912F910F900FBE0F90A1
:1004F0001F9018951F920F920FB60F9211242F93F1
:100500003F934F935F936F937F938F939F93AF939B
:10051000BF93EF93FF93F8DEFF91EF91BF91AF91FF
:100520009F918F917F916F915F914F913F912F910B
:100530000F900FBE0F901F9018951F920F920FB63D
:100540000F9211242F933F934F935F936F937F9359
:100550008F939F93AF93BF93EF93FF93D7DEFF915A
:10056000EF91BF91AF919F918F917F916F915F912B
:100570004F913F912F910F900FBE0F901F901895A4
:1005800021DE08956DDD0895BBDD089534DF07DFBA
:10059000E4DD81E074DD63DD80EC92E060E044E165
:1005A000B9DE82EC92E062E044E6B4DE84EC92E0F4
:1005B00061E042E3AFDECDDE80E090E00895629F2F
:1005C000D001739FF001829FE00DF11D649FE00D4B
:1005D000F11D929FF00D839FF00D749FF00D659FAC
:1005E000F00D9927729FB00DE11DF91F639FB00DAB
:1005F000E11DF91FBD01CF0111240895AA1BBB1BEA
:1006000051E107C0AA1FBB1FA617B70710F0A61B12
:10061000B70B881F991F5A95A9F780959095BC0133
:10062000CD010895A1E21A2EAA1BBB1BFD010DC02E
:10063000AA1FBB1FEE1FFF1FA217B307E407F50792
:1006400020F0A21BB30BE40BF50B661F771F881F6E
:10065000991F1A9469F760957095809590959B0104
:0C066000AC01BD01CF010895F894FFCF5C
:0E066C00FC60DAF266B6BEE0FEF601C80000E1
:00000001FF
