:1000000012C07EC8A3C82AC029C028C027C026C0E5
:1000100050C82AC823C022C021C020C01FC01EC093
:100020001DC01CC01BC011241FBECFE5D4E0DEBF25
:10003000CDBF10E0A0E6B0E0ECE8F2E102C0059030
:100040000D92A43AB107D9F711E0A4EAB0E001C0DB
:100050001D92A233B107E1F7BED816C9D1CFCF9216
:10006000DF92EF92FF920F931F93CF93DF9300D015
:1000700000D0CDB7DEB79C01162F042F6E01089477
:10008000C11CD11CF60144E0AAE0EA2EF12C211596
:10009000310569F0C901B701C1D8962F990F892F91
:1000A000880F880F890F281B20839B0101C01082B5
:1000B00041503196442359F7E12FF0E0002369F4D1
:1000C00081E090E08C0F9D1FE80FF91F808188234D
:1000D00011F489E00EC081500CC0A1E0B0E0AC0F7B
:1000E000BD1FEA0FFB1F8081893011F4108202C00E
:1000F0008F5F808320E060E070E01EC0CA01880F3F
:10010000991FF3E0440F551FFA95E1F7480F591F67
:10011000EF5FE21799F7D6018D916D0190E0489F4E
:100120009001499F300D589F300D1124620F731FAD
:100130002E2F2F5F243021F041E050E0E0E0E9CFA6
:10014000CB010F900F900F900F90DF91CF911F91E7
:100150000F91FF90EF90DF90CF90089581E064EAD7
:1001600070E04FE039D48091A4009091A50027E27F
:100170008031920730F080ED97E09093A500809356
:10018000A4008091A9009091AA00A091AB00B09129
:10019000AC00803127E2920720E0A20720E0B207FE
:1001A00040F01092A9001092AA001092AB00109299
:1001B000AC008091A9009091AA00A091AB00B091F1
:1001C000AC00803127E2920720E0A20720E0B207CE
:1001D00040F01092AD001092AE001092AF0010925D
:1001E000B0008091B1009091B20027E28031920777
:1001F00020F01092B2001092B1008091A6008430DD
:1002000010F01092A6008091A4009091A500ADD5A9
:100210006091A9007091AA008091AB009091AC0010
:100220008CD56091AD007091AE008091AF0090913F
:10023000B00079D18091B1009091B2005FD1089562
:10024000CF92DF92EF92FF920F931F93CF93DF93A2
:1002500000D0CDB7DEB78091A7009091A8009A8317
:1002600089837AD5DC01CB018093A9009093AA0001
:10027000A093AB00B093AC00CE010196A8D1CE0103
:10028000019660D1AB01BC014093AD005093AE002C
:100290006093AF007093B0000091A9001091AA0084
:1002A0002091AB003091AC00CE01019624D16C01BD
:1002B000CE01019615D281E05DD57C0124D18C015F
:1002C0009093B2008093B1008A818295817032D57B
:1002D0008A8182FD37C0C801880F991F23E0000F73
:1002E000111F2A95E1F7080F191F085F1F4F34E00F
:1002F000169507953A95E1F7C701880F991F53E0C6
:10030000EE0CFF1C5A95E1F7E80EF91E88E090E02C
:10031000E80EF91E64E0F694E7946A95E1F7C601E9
:10032000880F991FE3E0CC0CDD1CEA95E1F7C80EBD
:10033000D91E88E090E0C80ED91EF4E0D694C79488
:10034000FA95E1F76981677081E044D48A818695E6
:100350008695817066E035D48A81869586958095EC
:10036000817065E02ED42981822F877090E08230E1
:100370009105E1F1833091053CF4009769F08130FB
:10038000910509F08DC019C08330910589F1843041
:10039000910509F085C032C0B70180E090E040E0EF
:1003A00021E001E0A1D16091A9007091AA008091A3
:1003B000AB009091AC0041E016C026FF04C060E0A5
:1003C00070E0CB01B0D06091AD007091AE00809133
:1003D000AF009091B00041E020E001E085D1B7018D
:1003E00080E090E040E021E07FD163C0B60101C031
:1003F000B80180E090E041E021E0EFCF8A8183FF07
:1004000034C026FF09C08091A600833019F41092F1
:10041000A60026C08F5F09C027FF0AC08091A600F2
:10042000882311F483E001C081508093A60018C096
:1004300024FF08C08091A4009091A5006091A600BF
:1004400040E009C025FF0CC08091A4009091A50058
:100450006091A60041E003DE9093A5008093A40084
:100460008091A60061E044E604C08091A60061E0AE
:1004700040E034D26091A4007091A50080E090E04B
:1004800041E020E000E030D18091A4009091A500EF
:100490006CD480E060E040E650E024E04CD209C03B
:1004A000B70180E090E040E021E001E01DD11A8238
:1004B000198289819A819093A8008093A7008981ED
:1004C00083FF0EC081E064EA70E04FE020E030E09E
:1004D00062D2813029F48091A700877F8093A700A2
:1004E0000F900F90DF91CF911F910F91FF90EF90A0
:1004F000DF90CF90089581EE90E108959093B4003D
:100500008093B30008952091B3003091B400281770
:10051000390720F49093B4008093B3008091B30026
:100520009091B4000895DC01CB018093B5009093C5
:10053000B600A093B700B093B8001092BA00109222
:10054000B9000895FC01218120FF0DC01092BA006E
:100550001092B9001092B5001092B6001092B70038
:100560001092B8002BC08091B9009091BA0034E08D
:10057000803B9307E0F01092BA001092B9004091CE
:10058000B5005091B6006091B7007091B8004F5F10
:100590005F4F6F4F7F4F4093B5005093B60060930D
:1005A000B7007093B80080818860808307C024FD05
:1005B00005C001969093BA008093B9006091B50090
:1005C0007091B6008091B7009091B80008951F9384
:1005D000CF93DF93EC0180E057D2182F81E054D203
:1005E0009091BB009130D9F1913038F0923009F4FC
:1005F0005AC0933009F064C05BC0113021F48130DF
:1006000071F483E05AC0103451F49881892F8770B7
:10061000987F882311F494600AC081500BC0803405
:1006200069F49881892F8770987F843011F49883BA
:1006300049C08F5F8770892B888344C099811238A5
:1006400029F4892F809584709B7F06C08238D1F56C
:10065000892F809580719F7E982B998333C09881D4
:10066000977019821882113041F4813061F482E070
:100670008093BB008881886004C0103421F4888195
:10068000806288830DC02881803411F4206107C006
:10069000123811F4206803C0823811F420642883D2
:1006A0008881887FC8CF112369F4882359F408C052
:1006B000112341F4882331F481E08093BB0002C010
:1006C0001092BB009091BB009170990F990F990FF8
:1006D0008981877F892B8983DF91CF911F9108952D
:1006E00008958093BC0008952F923F924F925F929D
:1006F0007F928F929F92AF92BF92CF92DF92EF92B2
:10070000FF920F931F93CF93DF9300D000D0CDB70C
:10071000DEB7122F702E242F30E03A83298343E076
:10072000220F331F4A95E1F723543F4F6B017C01A1
:1007300088245AE0252E312C412C512C3C832B83CC
:10074000912EC114D104E104F10411F4981438F18C
:10075000C701B601A201910175D5122F032FB42E46
:10076000A52E622F732F842F952F2AE030E040E0D2
:1007700050E035D5DC01CB01C81AD90AEA0AFB0AD8
:10078000F601EB59FF4F8081AB81BC818C931196B0
:100790001C921197C12ED02EEB2CFA2C0EC0772074
:1007A00039F42CEF30E0EB81FC813183208305C0EC
:1007B000AB81BC8111961C921E928394EB81FC81CB
:1007C0003296FC83EB83F4E08F1609F0BACF9920C0
:1007D00089F0E981FA81EE0FFF1FEE0FFF1FE90D8F
:1007E000F11DEE0FFF1FE354FF4F80819181816067
:1007F000918380830F900F900F900F90DF91CF9196
:100800001F910F91FF90EF90DF90CF90BF90AF902E
:100810009F908F907F905F904F903F902F90089582
:10082000CF939091CD00992381F08091CE008F5F7E
:100830008093CE00891759F48091CF0091E08927E9
:100840008093CF001092CE0002C01092CF00809112
:10085000CF00813061F49091D0008091D100981741
:1008600031F49091D2008091D300981789F0809153
:10087000D000E091D300F0E0EE0FFF1FEE0FFF1F5E
:10088000E80FF11DEE0FFF1FE354FF4FC08101C0C1
:10089000C0E08091BC00813009F4C0956091D30024
:1008A000660F660F8091D000680F80E085D381E0ED
:1008B0006C2F9BD38091D0008F5F8093D0008430C9
:1008C00059F41092D0008091D3008F5F8093D300B1
:1008D000823011F41092D300CF9108958093D1000B
:1008E0004093CD006093D2000895CF93DF93DA0157
:1008F000422F50E0480F511D45305105CCF470E0B7
:10090000660F771F660F771F0EC0FB01E20FF31F04
:10091000EE0FFF1FE354FF4F2A0F3B1FE9019881A1
:10092000908311828F5F282F30E0241735076CF3F6
:10093000DF91CF910895EF92FF920F931F93CF9382
:10094000DF9300D000D0CDB7DEB7DE01A20FB11D1E
:100950007A010EC0F70191917F01092F01540632EF
:1009600028F410E000591F4FF80190819C931197D3
:100970009E2D941B921770F3AE014F5F5F4FB5DF52
:100980000F900F900F900F90DF91CF911F910F91CB
:10099000FF90EF9008959091D4009923C9F44333C8
:1009A000C8F491E09093D400A5EDB0E0FB0102C043
:1009B00091919D939E2F961B9417D0F3409307011E
:1009C0008093080130930A012093090181E0089582
:1009D00080E0089580E00895EF92FF920F931F93B7
:1009E000CF93DF930F92CDB7DEB7182F7B018091A5
:1009F000D400882371F080E010C0B701600F711D32
:100A0000802F810F498366D24981813019F40F5FAD
:100A100001C000E0041788F381E00F90DF91CF91CF
:100A20001F910F91FF90EF9008958091D400813035
:100A300011F580910B0190910701891761F41092D3
:100A40000B011092D400E0910901F0910A01309756
:100A500091F00995089590910801E82FF0E0EB528C
:100A6000FF4F890F60812AD2813029F480910B01D8
:100A70008F5F80930B01089586E0ECE0F1E0DF01E9
:100A80001D928A95E9F7089590E0FC01EE0FFF1F93
:100A9000E80FF91FE45FFE4F8081982F9F739083CA
:100AA0000895EF92FF920F931F93CF93DF930F92CE
:100AB000CDB7DEB790E07C01EE0CFF1CE80EF91E0E
:100AC0002CE031E0E20EF31EF70120812F738C0140
:100AD00043E0000F111F4A95E1F706571F4FF80139
:100AE000808129830CD229812130F9F0213020F036
:100AF000223009F05CC046C0F8019181F7019817D7
:100B000089F481819281019692838183F801248105
:100B100035812817390709F04CC081E8F701808337
:100B2000F80134C01282118244C0F8019181F701AA
:100B300021813281F801428153819817B1F4241741
:100B4000350778F02F5F3F4FF70132832183F8019B
:100B5000868197818217930761F582E8F701808388
:100B600001C0F7015283418324C042175307C8F3E1
:100B700021503040F7013283218321153105C9F41A
:100B800080E413C0F8019181981731F48281938138
:100B9000F701928381830DC0F701818192810197D2
:100BA00092838183009729F480E8808302C0F70153
:100BB00010820F90DF91CF911F910F91FF90EF90D6
:100BC0000895982FEAE9F0E0E60FF11D8081692F82
:100BD000A7D10895FF920F931F93CF93DF93982F80
:100BE000F62E082F00950170E62FF0E0E656FF4F35
:100BF0008081692F95D1CAE9D0E010E01F1519F066
:100C00008881602F8DD11F5F21961730B9F7DF9152
:100C1000CF911F910F91FF90089508958091160133
:100C2000813019F4109216010895809115018823DE
:100C300029F08091150181508093150108958091CC
:100C400016018823A9F481E0809316018091150193
:100C50008F5F8093150181E0F7D190931401809309
:100C600013018091120180931701109212010895CF
:100C700080911501882329F080911501815080937E
:100C800015010895CF93DF93409113015091140102
:100C90002091170130E08FE892E0289FF001299F12
:100CA000F00D389FF00D1124CA0164E670E0B6D251
:100CB000E60FF71FF0931901E093180180911501D9
:100CC000C0911A01D0911B01C80FD11DD0931B01F7
:100CD000C0931A01109215012091A1003091A20039
:100CE00080911C01882319F540E050E060EA76E825
:100CF00081E090E0A7D2C217D307C8F080911D0110
:100D000090911E01A0911F01B09120010196A11D9B
:100D1000B11D80931D0190931E01A0931F01B093FC
:100D20002001C21BD30BD0931B01C0931A01DF918A
:100D3000CF91089580931C010895DC01CB0180932D
:100D40001D0190931E01A0931F01B09320011092EA
:100D50001B0110921A01089560911D0170911E01EE
:100D600080911F019091200108959093A20080939B
:100D7000A1000895CF93DF93813029F468E671E0F4
:100D800080E090E004C061EE70E080E090E0C0910F
:100D90001801D0911901209769F02091A10030919C
:100DA000A20040E050E01BD29E0140E050E04AD259
:100DB000C90102C080E090E020911201203411F4BA
:100DC00080E090E0DF91CF9108958091120180340E
:100DD00028F4809112018F5F8093120108951EDF25
:100DE00008952DDF0895F1DF089580E05ADE81E057
:100DF00058DE1BDE089546DF089522DA089510DDDF
:100E00000895D7D1FED073D008DFA8D981E069DC7E
:100E10008BEF96E060E044E111D08DEF96E062E068
:100E200042E30CD08FEF96E061E042E007D085EF1F
:100E300096E063E04AE002D01BD00895643060F48D
:100E4000E62FF0E0EE0FFF1FEE0FFF1FEF5DFE4FEE
:100E500091838083428313820895E4E2F1E084E089
:100E600090819F5F9083815034968823C9F70895BD
:100E7000109231011EC0F0E0EE0FFF1FEE0FFF1FBA
:100E8000EF5DFE4F92818381891770F00190F081B0
:100E9000E02D0995E0913101F0E0EE0FFF1FEE0F1C
:100EA000FF1FEF5DFE4F1382809131018F5F8093B2
:100EB0003101E0913101E430D8F6DDCFE19908C08D
:100EC00090E09FBB8EBB6DBBE29AE19A81E00895F2
:100ED00080E00895E19909C090E09FBB8EBBE09A45
:100EE0008DB3FB01808381E0089580E008958FEF4A
:100EF00087BB84BB83E881BB8CE782BB08958031CC
:100F000039F0813141F08F3049F480B38071089518
:100F100080B38072089580B38074089580E008954E
:100F20008230E9F0833030F4882359F0813009F0C1
:100F300042C00BC0853031F1863089F18330D9F55C
:100F400016C082B361708E7F0FC082B370E0617093
:100F50007070660F771F8D7F862B82BB089582B3DA
:100F60006795662767958F77682B62BB089585B371
:100F700070E06170707035E0660F771F3A95E1F7A9
:100F80008F7D0AC085B370E06170707024E0660FD9
:100F9000771F2A95E1F78F7E862B85BB089585B351
:100FA00070E06170707093E0660F771F9A95E1F7BB
:100FB000877F862B85BB0895882329F485B3887F96
:100FC000862B85BB089588B3807F862B88BB0895C8
:100FD000882319F0813031F402C083B301C086B395
:100FE0008F70089586B38F700895882311F465BBC0
:100FF000089568BB0895882311F086B3089583B3DC
:1010000008958EB582608EBD8FEF9FE79DBD8CBD2C
:1010100083B7836083BF82EC82BF89B7816089BF59
:1010200089B7846089BF8BB780648BBF85B78360C5
:1010300085BF8BB780688BBF85B78C6085BF81B358
:101040008C6081BB78940895833058F48CB59DB53D
:101050008F5F9F47880F991F2FEF3FE73DBD2CBD46
:10106000089580E090E008951F920F920FB60F92BE
:1010700011242F933F934F935F936F937F938F939D
:101080009F93AF93BF93EF93FF9382EC82BFE5DE14
:10109000FF91EF91BF91AF919F918F917F916F9150
:1010A0005F914F913F912F910F900FBE0F901F9026
:1010B00018951F920F920FB60F9211242F933F9302
:1010C0004F935F936F937F938F939F93AF93BF9350
:1010D000EF93FF938FEF9FE79DBD8CBD84DEFF9163
:1010E000EF91BF91AF919F918F917F916F915F91A0
:1010F0004F913F912F910F900FBE0F901F90189519
:101100001F920F920FB60F9211242F933F934F937C
:101110005F936F937F938F939F93AF93BF93EF935F
:10112000FF935DDE85B7836085BFFF91EF91BF912F
:10113000AF919F918F917F916F915F914F913F916F
:101140002F910F900FBE0F901F9018951F920F9226
:101150000FB60F9211242F933F934F935F936F938A
:101160007F938F939F93AF93BF93EF93FF9339DE5A
:10117000FF91EF91BF91AF919F918F917F916F916F
:101180005F914F913F912F910F900FBE0F901F9045
:10119000189585B78C7F85BF85B7806285BFF89429
:1011A00085B7806885BF7894889585B78F7785BF28
:1011B0000895CF93DF930F92CDB7DEB780E0BE01E5
:1011C0006F5F7F4F87DE8823C9F3898181BF0F90CE
:1011D000DF91CF91089515DE80E090E00895629F41
:1011E000D001739FF001829FE00DF11D649FE00D1F
:1011F000F11D929FF00D839FF00D749FF00D659F80
:10120000F00D9927729FB00DE11DF91F639FB00D7E
:10121000E11DF91FBD01CF0111240895AA1BBB1BBD
:1012200051E107C0AA1FBB1FA617B70710F0A61BE6
:10123000B70B881F991F5A95A9F780959095BC0107
:10124000CD010895A1E21A2EAA1BBB1BFD010DC002
:10125000AA1FBB1FEE1FFF1FA217B307E407F50766
:1012600020F0A21BB30BE40BF50B661F771F881F42
:10127000991F1A9469F760957095809590959B01D8
:0C128000AC01BD01CF010895F894FFCF30
:10128C004349524300FC60DAF266B6BEE0FEF6015A
:10129C00EE3E9C7A9E8EF62E0C780000000000002C
:1012AC00008CB600007C000000000F000600060059
:1012BC00640010000600060064000001020304052F
:0412CC0006C8000050
:00000001FF
