:1000000012C09EC7C3C72AC029C028C027C026C0A7
:1000100070C74AC723C022C021C020C01FC01EC055
:100020001DC01CC01BC011241FBECFE5D4E0DEBF25
:10003000CDBF10E0A0E6B0E0ECECF0E102C005902E
:100040000D92A839B107D9F711E0A8E9B0E001C0D5
:100050001D92A632B107E1F7DED736C8D1CFCF92D5
:10006000DF92EF92FF920F931F93CF93DF9300D015
:1000700000D0CDB7DEB79C01162F042F6E01089477
:10008000C11CD11CF60144E0AAE0EA2EF12C211596
:10009000310569F0C901B701E1D7962F990F892F72
:1000A000880F880F890F281B20839B0101C01082B5
:1000B00041503196442359F7E12FF0E0002369F4D1
:1000C00081E090E08C0F9D1FE80FF91F808188234D
:1000D00011F489E00EC081500CC0A1E0B0E0AC0F7B
:1000E000BD1FEA0FFB1F8081893011F4108202C00E
:1000F0008F5F808320E060E070E01EC0CA01880F3F
:10010000991FF3E0440F551FFA95E1F7480F591F67
:10011000EF5FE21799F7D6018D916D0190E0489F4E
:100120009001499F300D589F300D1124620F731FAD
:100130002E2F2F5F243021F041E050E0E0E0E9CFA6
:10014000CB010F900F900F900F90DF91CF911F91E7
:100150000F91FF90EF90DF90CF90089581E068E9D4
:1001600070E04FE0D2D3809198009091990027E2FF
:100170008031920730F080ED97E090939900809362
:10018000980080919D0090919E00A0919F00B09159
:10019000A000803127E2920720E0A20720E0B2070A
:1001A00040F010929D0010929E0010929F001092BD
:1001B000A00080919D0090919E00A0919F00B09121
:1001C000A000803127E2920720E0A20720E0B207DA
:1001D00040F01092A1001092A2001092A300109281
:1001E000A4008091A5009091A60027E2803192079B
:1001F00020F01092A6001092A50080919800909196
:10020000990020D560919D0070919E0080919F0083
:100210009091A000FFD46091A1007091A200809104
:10022000A3009091A40018D18091A5009091A60000
:10023000FED00895EF92FF920F931F93CF93DF9319
:1002400000D0CDB7DEB780919B0090919C009A833F
:100250008983EFD4DC01CB0180939D0090939E00B5
:10026000A0939F00B093A000CE01019649D1CE018A
:10027000019601D1AB01BC014093A1005093A200B3
:100280006093A3007093A40000919D0010919E00C4
:1002900020919F003091A000CE010196C5D07C0135
:1002A000CE010196B6D181E0D2D48C01C5D0909315
:1002B000A6008093A5008A8182958170A8D4B80198
:1002C00080E090E040E021E001E0A7D12981822F89
:1002D000877090E08230910571F1833091053CF494
:1002E000009769F08130910509F07CC011C083301E
:1002F000910539F18430910509F074C027C06091EF
:100300009D0070919E0080919F009091A00016C06A
:1003100026FF04C060E070E0CB019ED06091A10098
:100320007091A2008091A3009091A40041E020E090
:1003300001E073D159C0B70180E090E041E021E0D5
:10034000F7CF6091A5007091A600F6CF8A8183FF58
:1003500034C026FF09C080919A00833019F41092AE
:100360009A0026C08F5F09C027FF0AC080919A00BB
:10037000882311F483E001C0815080939A0018C053
:1003800024FF08C0809198009091990060919A0094
:1003900040E009C025FF0CC0809198009091990021
:1003A00060919A0041E05BDE909399008093980001
:1003B00080919A0061E044E604C080919A0061E077
:1003C00040E025D2609198007091990080E090E023
:1003D00041E020E000E021D18091980090919900C7
:1003E00031D402C01A82198289819A8190939C002B
:1003F00080939B00898183FF0EC081E068E970E0F3
:100400004FE020E030E060D2813029F480919B0001
:10041000877F80939B000F900F90DF91CF911F916A
:100420000F91FF90EF90089581EE90E108959093E1
:10043000A8008093A70008952091A7003091A800FC
:100440002817390720F49093A8008093A700809183
:10045000A7009091A8000895DC01CB018093A9002A
:100460009093AA00A093AB00B093AC001092AE00A2
:100470001092AD000895FC01218120FF0DC0109263
:10048000AE001092AD001092A9001092AA00109236
:10049000AB001092AC002BC08091AD009091AE00EB
:1004A00034E0803B9307E0F01092AE001092AD0074
:1004B0004091A9005091AA006091AB007091AC00EE
:1004C0004F5F5F4F6F4F7F4F4093A9005093AA003B
:1004D0006093AB007093AC0080818860808307C01C
:1004E00024FD05C001969093AE008093AD0060910D
:1004F000A9007091AA008091AB009091AC00089582
:100500001F93CF93DF93EC0180E057D2182F81E047
:1005100054D29091AF009130D9F1913038F09230AF
:1005200009F45AC0933009F064C05BC0113021F463
:10053000813071F483E05AC0103451F49881892FCE
:100540008770987F882311F494600AC081500BC093
:10055000803469F49881892F8770987F843011F4F2
:10056000988349C08F5F8770892B888344C09981A5
:10057000123829F4892F809584709B7F06C08238B9
:10058000D1F5892F809580719F7E982B998333C0F8
:100590009881977019821882113041F4813061F48A
:1005A00082E08093AF008881886004C0103421F419
:1005B0008881806288830DC02881803411F4206195
:1005C00007C0123811F4206803C0823811F4206487
:1005D00028838881887FC8CF112369F4882359F440
:1005E00008C0112341F4882331F481E08093AF00E7
:1005F00002C01092AF009091AF009170990F990FC7
:10060000990F8981877F892B8983DF91CF911F91F2
:10061000089508958093B00008952F923F924F92CD
:100620005F927F928F929F92AF92BF92CF92DF9212
:10063000EF92FF920F931F93CF93DF9300D000D0E0
:10064000CDB7DEB7122F702E242F30E03A832983E6
:1006500043E0220F331F4A95E1F72F543F4F6B01C0
:100660007C0188245AE0252E312C412C512C3C83CE
:100670002B83912EC114D104E104F10411F49814D8
:1006800038F1C701B601A2019101FCD4122F032F4A
:10069000B42EA52E622F732F842F952F2AE030E0E1
:1006A00040E050E0BCD4DC01CB01C81AD90AEA0A08
:1006B000FB0AF601E05AFF4F8081AB81BC818C932D
:1006C00011961C921197C12ED02EEB2CFA2C0EC035
:1006D000772039F42CEF30E0EB81FC8131832083EB
:1006E00005C0AB81BC8111961C921E928394EB8154
:1006F000FC813296FC83EB83F4E08F1609F0BACFCD
:10070000992089F0E981FA81EE0FFF1FEE0FFF1F9C
:10071000E90DF11DEE0FFF1FEF54FF4F8081918116
:100720008160918380830F900F900F900F90DF91E5
:10073000CF911F910F91FF90EF90DF90CF90BF90DE
:10074000AF909F908F907F905F904F903F902F90B1
:100750000895CF939091C100992381F08091C200B8
:100760008F5F8093C200891759F48091C30091E094
:1007700089278093C3001092C20002C01092C30068
:100780008091C300813061F49091C4008091C500D4
:10079000981731F49091C6008091C700981789F09E
:1007A0008091C400E091C700F0E0EE0FFF1FEE0F54
:1007B000FF1FE80FF11DEE0FFF1FEF54FF4FC08129
:1007C00001C0C0E08091B000813009F4C095609113
:1007D000C700660F660F8091C400680F80E00CD3DD
:1007E00081E06C2F22D38091C4008F5F8093C4007E
:1007F000843059F41092C4008091C7008F5F8093B9
:10080000C700823011F41092C700CF9108958093F1
:10081000C5004093C1006093C6000895CF93DF9355
:10082000DA01422F50E0480F511D45305105CCF4FC
:1008300070E0660F771F660F771F0EC0FB01E20F97
:10084000F31FEE0FFF1FEF54FF4F2A0F3B1FE9016D
:100850009881908311828F5F282F30E0241735070D
:100860006CF3DF91CF910895EF92FF920F931F9356
:10087000CF93DF9300D000D0CDB7DEB7DE01A20F5B
:10088000B11D7A010EC0F70191917F01092F01542A
:10089000063228F410E005591F4FF80190819C930F
:1008A00011979E2D941B921770F3AE014F5F5F4F0F
:1008B000B5DF0F900F900F900F90DF91CF911F91A8
:1008C0000F91FF90EF9008959091C8009923C9F47B
:1008D0004333C8F491E09093C800A9ECB0E0FB0169
:1008E00002C091919D939E2F961B9417D0F3409335
:1008F000FB008093FC003093FE002093FD0081E01C
:10090000089580E0089580E00895EF92FF920F939C
:100910001F93CF93DF930F92CDB7DEB7182F7B01D4
:100920008091C800882371F080E010C0B701600F8B
:10093000711D802F810F49833AD24981813019F48A
:100940000F5F01C000E0041788F381E00F90DF9192
:10095000CF911F910F91FF90EF9008958091C80063
:10096000813011F58091FF009091FB00891761F4AF
:100970001092FF001092C800E091FD00F091FE007F
:10098000309791F0099508959091FC00E82FF0E0E0
:10099000E753FF4F890F6081FED1813029F48091A8
:1009A000FF008F5F8093FF00089586E0E0E0F1E0B4
:1009B000DF011D928A95E9F7089590E0FC01EE0FA2
:1009C000FF1FE80FF91FE050FF4F8081982F9F73A2
:1009D00090830895EF92FF920F931F93CF93DF932D
:1009E0000F92CDB7DEB790E07C01EE0CFF1CE80E55
:1009F000F91E20E031E0E20EF31EF70120812F7393
:100A00008C0143E0000F111F4A95E1F70B571F4F70
:100A1000F80180812983DED129812130F9F021304C
:100A200020F0223009F05CC046C0F8019181F70146
:100A3000981789F481819281019692838183F801CC
:100A4000248135812817390709F04CC081E8F70166
:100A50008083F80134C01282118244C0F801918170
:100A6000F70121813281F801428153819817B1F455
:100A70002417350778F02F5F3F4FF701328321832A
:100A8000F801868197818217930761F582E8F70163
:100A9000808301C0F7015283418324C0421753076A
:100AA000C8F321503040F7013283218321153105ED
:100AB000C9F480E413C0F8019181981731F4828160
:100AC0009381F701928381830DC0F7018181928127
:100AD000019792838183009729F480E8808302C084
:100AE000F70110820F90DF91CF911F910F91FF902E
:100AF000EF900895089580910A01813019F41092C1
:100B00000A01089580910901882329F08091090143
:100B1000815080930901089580910A018823A9F4E6
:100B200081E080930A01809109018F5F8093090120
:100B300081E0AAD19093080180930701809106017A
:100B400080930B011092060108958091090188237A
:100B500029F0809109018150809309010895CF9374
:100B6000DF93409107015091080120910B0130E083
:100B70008FE892E0289FF001299FF00D389FF00D3B
:100B80001124CA0164E670E069D2E60FF71FF09302
:100B90000D01E0930C0180910901C0910E01D091EB
:100BA0000F01C80FD11DD0930F01C0930E011092F9
:100BB00009012091950030919600809110018823C1
:100BC00019F540E050E060EA76E881E090E05AD222
:100BD000C217D307C8F08091110190911201A09122
:100BE0001301B09114010196A11DB11D8093110153
:100BF00090931201A0931301B0931401C21BD30B65
:100C0000D0930F01C0930E01DF91CF91089580938F
:100C100010010895DC01CB01809311019093120122
:100C2000A0931301B093140110920F0110920E01C2
:100C300008956091110170911201809113019091BA
:100C40001401089590939600809395000895CF9392
:100C5000DF93813029F468E671E080E090E004C021
:100C600061EE70E080E090E0C0910C01D0910D0148
:100C7000209769F0209195003091960040E050E077
:100C8000CED19E0140E050E0FDD1C90102C080E01C
:100C900090E020910601203411F480E090E0DF9193
:100CA000CF91089580910601803428F48091060147
:100CB0008F5F8093060108951EDF08952DDF08954C
:100CC000F1DF089580E086DE81E084DE47DE08956E
:100CD00046DF0895AFDA08953CDD08958AD1B1D09A
:100CE00073D008DF3BDA81E095DC88E696E060E0CF
:100CF00044E111D08AE696E062E042E30CD08CE653
:100D000096E061E042E007D082E696E063E04AE0E8
:100D100002D01BD00895643060F4E62FF0E0EE0FAF
:100D2000FF1FEE0FFF1FEB5EFE4F91838083428318
:100D300013820895E8E1F1E084E090819F5F908361
:100D4000815034968823C9F70895109225011EC05A
:100D5000F0E0EE0FFF1FEE0FFF1FEB5EFE4F9281E4
:100D60008381891770F00190F081E02D0995E09161
:100D70002501F0E0EE0FFF1FEE0FFF1FEB5EFE4FB1
:100D80001382809125018F5F80932501E0912501D9
:100D9000E430D8F6DDCFE19908C090E09FBB8EBB70
:100DA0006DBBE29AE19A81E0089580E00895E199AF
:100DB00009C090E09FBB8EBBE09A8DB3FB0180839E
:100DC00081E0089580E008958FEF87BB84BB11BA5E
:100DD00082BB0895803139F0813141F08F3049F480
:100DE00080B38071089580B38072089580B3807459
:100DF000089580E008950895882329F485B3807FBD
:100E0000862B85BB089588B3807F862B88BB089589
:100E1000882319F0813031F402C083B301C086B356
:100E20008F70089586B38F700895882311F465BB81
:100E3000089568BB0895882311F086B3089583B39D
:100E400008958EB582608EBD8FEF9FE79DBD8CBDEE
:100E500083B7836083BF82EC82BF89B7816089BF1B
:100E600089B7846089BF8BB780648BBF85B7836087
:100E700085BF8BB780688BBF85B78C6085BF81B31A
:100E80008C6081BB78940895833058F48CB59DB5FF
:100E90008F5F9F47880F991F2FEF3FE73DBD2CBD08
:100EA000089580E090E008951F920F920FB60F9280
:100EB00011242F933F934F935F936F937F938F935F
:100EC0009F93AF93BF93EF93FF9382EC82BF32DF88
:100ED000FF91EF91BF91AF919F918F917F916F9112
:100EE0005F914F913F912F910F900FBE0F901F90E8
:100EF00018951F920F920FB60F9211242F933F93C4
:100F00004F935F936F937F938F939F93AF93BF9311
:100F1000EF93FF938FEF9FE79DBD8CBDD1DEFF91D7
:100F2000EF91BF91AF919F918F917F916F915F9161
:100F30004F913F912F910F900FBE0F901F901895DA
:100F40001F920F920FB60F9211242F933F934F933E
:100F50005F936F937F938F939F93AF93BF93EF9321
:100F6000FF93AADE85B7836085BFFF91EF91BF91A4
:100F7000AF919F918F917F916F915F914F913F9131
:100F80002F910F900FBE0F901F9018951F920F92E8
:100F90000FB60F9211242F933F934F935F936F934C
:100FA0007F938F939F93AF93BF93EF93FF9386DECF
:100FB000FF91EF91BF91AF919F918F917F916F9131
:100FC0005F914F913F912F910F900FBE0F901F9007
:100FD000189585B78C7F85BF85B7806285BFF894EB
:100FE00085B7806885BF7894889585B78F7785BFEA
:100FF0000895CF93DF930F92CDB7DEB780E0BE01A7
:101000006F5F7F4FD4DE8823C9F3898181BF0F9042
:10101000DF91CF91089562DE80E090E00895629FB5
:10102000D001739FF001829FE00DF11D649FE00DE0
:10103000F11D929FF00D839FF00D749FF00D659F41
:10104000F00D9927729FB00DE11DF91F639FB00D40
:10105000E11DF91FBD01CF0111240895AA1BBB1B7F
:1010600051E107C0AA1FBB1FA617B70710F0A61BA8
:10107000B70B881F991F5A95A9F780959095BC01C9
:10108000CD010895A1E21A2EAA1BBB1BFD010DC0C4
:10109000AA1FBB1FEE1FFF1FA217B307E407F50728
:1010A00020F0A21BB30BE40BF50B661F771F881F04
:1010B000991F1A9469F760957095809590959B019A
:0C10C000AC01BD01CF010895F894FFCFF2
:1010CC00FC60DAF266B6BEE0FEF601EE3E9C7A9E5D
:1010DC008EF62E0C780000000000000000B6000018
:1010EC007C000000000F00060006006400100006E3
:0810FC000006006400C80000BA
:00000001FF
