:1000000012C037C75CC72AC029C028C027C026C075
:1000100009C7E3C623C022C021C020C01FC01EC024
:100020001DC01CC01BC011241FBECFE5D4E0DEBF25
:10003000CDBF10E0A0E6B0E0EEEFFFE002C005901B
:100040000D92A839B107D9F711E0A8E9B0E001C0D5
:100050001D92A132B107E1F777D7CFC7D1CFCF92A9
:10006000DF92EF92FF920F931F93CF93DF9300D015
:1000700000D0CDB7DEB79C01162F042F6E01089477
:10008000C11CD11CF60144E0AAE0EA2EF12C211596
:10009000310569F0C901B7017AD7962F990F892FD9
:1000A000880F880F890F281B20839B0101C01082B5
:1000B00041503196442359F7E12FF0E0002369F4D1
:1000C00081E090E08C0F9D1FE80FF91F808188234D
:1000D00011F489E00EC081500CC0A1E0B0E0AC0F7B
:1000E000BD1FEA0FFB1F8081893011F4108202C00E
:1000F0008F5F808320E060E070E01EC0CA01880F3F
:10010000991FF3E0440F551FFA95E1F7480F591F67
:10011000EF5FE21799F7D6018D916D0190E0489F4E
:100120009001499F300D589F300D1124620F731FAD
:100130002E2F2F5F243021F041E050E0E0E0E9CFA6
:10014000CB010F900F900F900F90DF91CF911F91E7
:100150000F91FF90EF90DF90CF90089581E068E9D4
:1001600070E04DE076D3809198009091990027E25D
:100170008031920730F080ED97E090939900809362
:10018000980080919D0090919E00A0919F00B09159
:10019000A000803127E2920720E0A20720E0B2070A
:1001A00040F010929D0010929E0010929F001092BD
:1001B000A00080919D0090919E00A0919F00B09121
:1001C000A000803127E2920720E0A20720E0B207DA
:1001D00040F01092A1001092A2001092A300109281
:1001E000A4008091980090919900C5D460919D00E1
:1001F00070919E0080919F009091A000A8D4609182
:10020000A1007091A2008091A3009091A400DED083
:1002100008950F931F93CF93DF9300D0CDB7DEB730
:1002200080919B0090919C009A8389839BD4DC01F0
:10023000CB0180939D0090939E00A0939F00B0936C
:10024000A000CE01019614D1CE010196CED0AB0113
:10025000BC014093A1005093A2006093A30070934F
:10026000A40000919D0010919E0020919F0030916C
:10027000A000CE010196A7D0CE0101966ED18A8151
:10028000869581707DD4BC0180E090E040E021E063
:1002900001E067D12981822F837090E0823091053F
:1002A00021F18330910531F18130910559F0609150
:1002B0009D0070919E0080919F009091A00041E070
:1002C00021E011C025FF04C060E070E0CB017ED0CA
:1002D0006091A1007091A2008091A3009091A40070
:1002E00041E020E001E03DD150C061E070E080E0FD
:1002F00090E0F6CF8A8182FF34C025FF09C080914B
:100300009A00833019F410929A0026C08F5F09C0BA
:1003100026FF0AC080919A00882311F483E001C06F
:10032000815080939A0018C023FF08C080919800E4
:100330009091990060919A0040E009C024FF0CC0A0
:10034000809198009091990060919A0041E087DE39
:10035000909399008093980080919A0061E044E620
:1003600004C080919A0061E040E0F5D1609198006E
:100370007091990080E090E041E020E000E0F1D051
:100380008091980090919900F6D389819A819093F9
:100390009C0080939B00898182FF0EC081E068E908
:1003A00070E04DE020E030E033D2813029F48091DC
:1003B0009B008B7F80939B000F900F90DF91CF91DC
:1003C0001F910F91089580E090E00895DC01CB012A
:1003D0008093A5009093A600A093A700B093A800D7
:1003E0001092AA001092A9000895FC01808187FF55
:1003F0000DC01092AA001092A9001092A5001092B0
:10040000A6001092A7001092A80029C08091A90010
:100410009091AA0024E0803B9207E0F01092AA009D
:100420001092A9004091A5005091A6006091A700EC
:100430007091A8004F5F5F4F6F4F7F4F4093A500B3
:100440005093A6006093A7007093A80080818460F9
:10045000808305C001969093AA008093A9006091C3
:10046000A5007091A6008091A7009091A800089522
:100470001F93CF93DF93EC0180E043D2182F81E0EC
:1004800040D29091AB00913031F1913038F0923000
:1004900009F447C0933009F051C048C0113021F42D
:1004A000813041F483E047C0103421F48881982FD3
:1004B0009D5F05C0803429F48881982F9F5F9370D9
:1004C0002CC01238E9F58981982F909592708D7F14
:1004D000892B898335C098819370198218821130D5
:1004E00041F4813061F482E08093AB0088818460C4
:1004F00004C0103421F48881806188830DC0288174
:10050000803411F4286007C0123811F4206403C04D
:10051000823811F42062288388818C7F892B88831C
:100520000FC0112369F4882359F408C0112341F442
:10053000882331F481E08093AB0002C01092AB00BD
:100540009091AB009170990F990F89818B7F892BC6
:100550008983DF91CF911F91089508958093AC0016
:1005600008952F923F924F925F927F928F929F9227
:10057000AF92BF92CF92DF92EF92FF920F931F93B1
:10058000CF93DF9300D000D0CDB7DEB7122F702EFF
:10059000242F30E03A83298343E0220F331F4A950A
:1005A000E1F723553F4F6B017C0188245AE0252E4B
:1005B000312C412C512C3C832B83912EC114D1041E
:1005C000E104F10411F4981438F1C701B601A20155
:1005D0009101F1D4122F032FB42EA52E622F732F69
:1005E000842F952F2AE030E040E050E0B1D4DC01C8
:1005F000CB01C81AD90AEA0AFB0AF601E05AFF4FF2
:100600008081AB81BC818C9311961C921197C12E75
:10061000D02EEB2CFA2C0EC0772039F42CEF30E0E2
:10062000EB81FC813183208305C0AB81BC811196B5
:100630001C921E928394EB81FC813296FC83EB83A7
:10064000F4E08F1609F0BACF992089F0E981FA8198
:10065000EE0FFF1FEE0FFF1FE90DF11DEE0FFF1F45
:10066000E355FF4F808191818160918380830F905A
:100670000F900F900F90DF91CF911F910F91FF90EE
:10068000EF90DF90CF90BF90AF909F908F907F9032
:100690005F904F903F902F900895CF939091BD0021
:1006A000992381F08091BE008F5F8093BE008917EF
:1006B00059F48091BF0091E089278093BF00109288
:1006C000BE0002C01092BF008091BF00813061F473
:1006D0009091C0008091C100981731F49091C200B0
:1006E0008091C300981789F08091C000E091C30009
:1006F000F0E0EE0FFF1FEE0FFF1FE80FF11DEE0FF2
:10070000FF1FE355FF4FC08101C0C0E08091AC00E6
:10071000813009F4C0956091C300660F660F809127
:10072000C000680F80E001D381E06C2F17D3809167
:10073000C0008F5F8093C000843059F41092C000D5
:100740008091C3008F5F8093C300823011F41092B8
:10075000C300CF9108958093C1004093BD00609382
:10076000C2000895CF93DF93DA01422F50E0480F83
:10077000511D45305105CCF470E0660F771F660FB0
:10078000771F0EC0FB01E20FF31FEE0FFF1FE355B3
:10079000FF4F2A0F3B1FE9019881908311828F5FE1
:1007A000282F30E0241735076CF3DF91CF9108959F
:1007B000EF92FF920F931F93CF93DF9300D000D05F
:1007C000CDB7DEB7DE01A20FB11D7A010EC0F70171
:1007D00091917F01092F0154063228F410E0055948
:1007E0001F4FF80190819C9311979E2D941B921797
:1007F00070F3AE014F5F5F4FB5DF0F900F900F901A
:100800000F90DF91CF911F910F91FF90EF9008957E
:100810009091C4009923C9F44333C8F491E09093B4
:10082000C400A5ECB0E0FB0102C091919D939E2F06
:10083000961B9417D0F34093F7008093F800309301
:10084000FA002093F90081E0089580E0089580E0A7
:100850000895EF92FF920F931F93CF93DF930F9220
:10086000CDB7DEB7182F7B018091C400882371F0CB
:1008700080E010C0B701600F711D802F810F498388
:100880002FD24981813019F40F5F01C000E00417B5
:1008900088F381E00F90DF91CF911F910F91FF902E
:1008A000EF9008958091C400813011F58091FB0094
:1008B0009091F700891761F41092FB001092C40028
:1008C000E091F900F091FA00309791F009950895C0
:1008D0009091F800E82FF0E0EB53FF4F890F608113
:1008E000F3D1813029F48091FB008F5F8093FB006E
:1008F000089586E0ECEFF0E0DF011D928A95E9F7BC
:10090000089590E0FC01EE0FFF1FE80FF91FE4507F
:10091000FF4F8081982F9F7390830895EF92FF92ED
:100920000F931F93CF93DF930F92CDB7DEB790E075
:100930007C01EE0CFF1CE80EF91E2CEF30E0E20EFD
:10094000F31EF70120812F738C0143E0000F111F6C
:100950004A95E1F70B571F4FF80180812983D3D1C6
:1009600029812130F9F0213020F0223009F05CC0DB
:1009700046C0F8019181F701981789F4818192812D
:10098000019692838183F8012481358128173907E4
:1009900009F04CC081E8F7018083F80134C012826D
:1009A000118244C0F8019181F70121813281F8015F
:1009B000428153819817B1F42417350778F02F5FDF
:1009C0003F4FF70132832183F80186819781821797
:1009D000930761F582E8F701808301C0F701528334
:1009E000418324C042175307C8F321503040F70118
:1009F0003283218321153105C9F480E413C0F80145
:100A00009181981731F482819381F70192838183D8
:100A10000DC0F701818192810197928381830097B4
:100A200029F480E8808302C0F70110820F90DF91E3
:100A3000CF911F910F91FF90EF90089508958091AD
:100A40000601813019F41092060108958091050184
:100A5000882329F080910501815080930501089534
:100A6000809106018823A9F481E08093060180919A
:100A700005018F5F8093050181E09FD19093040170
:100A8000809303018091020180930701109202017B
:100A9000089580910501882329F0809105018150F6
:100AA000809305010895CF93DF9340910301509106
:100AB00004012091070130E08FE892E0289FF001C7
:100AC000299FF00D389FF00D1124CA0164E670E0F3
:100AD0005ED2E60FF71FF0930901E09308018091C1
:100AE0000501C0910A01D0910B01C80FD11DD0930F
:100AF0000B01C0930A0110920501209195003091DD
:100B0000960040E050E060EA76E881E090E053D261
:100B1000C217D307C8F080910C0190910D01A091EC
:100B20000E01B0910F010196A11DB11D80930C0122
:100B300090930D01A0930E01B0930F01C21BD30B34
:100B4000D0930B01C0930A01DF91CF910895DC018E
:100B5000CB0180930C0190930D01A0930E01B093F3
:100B60000F01089560910C0170910D0180910E01AB
:100B700090910F01089590939600809395000895A9
:100B8000CF93DF93813029F468E671E080E090E054
:100B900004C061EE70E080E090E0C0910801D09167
:100BA0000901209769F0209195003091960040E06E
:100BB00050E0CED19E0140E050E0FDD1C90102C01D
:100BC00080E090E020910201203411F480E090E078
:100BD000DF91CF91089580910201803428F48091B3
:100BE00002018F5F80930201089529DF089538DFA5
:100BF0000895F1DF089580E091DE81E08FDE52DE1E
:100C0000089551DF089505DB089547DD08958AD1E1
:100C1000B1D073D013DFA2DA81E0A0DC81E096E0EE
:100C200060E044E111D083E096E062E042E30CD062
:100C300085E096E061E042E007D08BEF95E063E06D
:100C40004AE002D01BD00895643060F4E62FF0E053
:100C5000EE0FFF1FEE0FFF1FE05FFE4F91838083BB
:100C6000428313820895E3E1F1E084E090819F5F85
:100C70009083815034968823C9F7089510922001FB
:100C80001EC0F0E0EE0FFF1FEE0FFF1FE05FFE4FF4
:100C900092818381891770F00190F081E02D099590
:100CA000E0912001F0E0EE0FFF1FEE0FFF1FE05F6D
:100CB000FE4F1382809120018F5F80932001E0918D
:100CC0002001E430D8F6DDCFE19908C090E09FBB69
:100CD0008EBB6DBBE29AE19A81E0089580E00895B1
:100CE000E19909C090E09FBB8EBBE09A8DB3FB01F8
:100CF000808381E0089580E008958FEF87BB84BBF7
:100D000011BA82BB0895803139F0813141F08F30C2
:100D100049F480B38071089580B38072089580B3E0
:100D20008074089580E008950895882329F485B398
:100D3000807F862B85BB089588B3807F862B88BBF8
:100D40000895882319F0813031F402C083B301C0C3
:100D500086B38F70089586B38F700895882311F439
:100D600065BB089568BB0895882311F086B3089584
:100D700083B308958EB582608EBD8FEF9FE79DBDD2
:100D80008CBD83B7836083BF82EC82BF89B78160EB
:100D900089BF89B7846089BF8BB780648BBF85B7F3
:100DA000836085BF8BB780688BBF85B78C6085BF3C
:100DB00081B38C6081BB78940895833058F48CB5EE
:100DC0009DB58F5F9F47880F991F2FEF3FE73DBD70
:100DD0002CBD089580E090E008951F920F920FB609
:100DE0000F9211242F933F934F935F936F937F93B1
:100DF0008F939F93AF93BF93EF93FF9382EC82BF48
:100E000032DFFF91EF91BF91AF919F918F917F91D1
:100E10006F915F914F913F912F910F900FBE0F9067
:100E20001F9018951F920F920FB60F9211242F93B7
:100E30003F934F935F936F937F938F939F93AF9362
:100E4000BF93EF93FF938FEF9FE79DBD8CBDD1DEE6
:100E5000FF91EF91BF91AF919F918F917F916F9192
:100E60005F914F913F912F910F900FBE0F901F9068
:100E700018951F920F920FB60F9211242F933F9344
:100E80004F935F936F937F938F939F93AF93BF9392
:100E9000EF93FF93AADE85B7836085BFFF91EF9143
:100EA000BF91AF919F918F917F916F915F914F9182
:100EB0003F912F910F900FBE0F901F9018951F928A
:100EC0000F920FB60F9211242F933F934F935F937E
:100ED0006F937F938F939F93AF93BF93EF93FF9302
:100EE00086DEFF91EF91BF91AF919F918F917F919E
:100EF0006F915F914F913F912F910F900FBE0F9087
:100F00001F90189585B78C7F85BF85B7806285BF98
:100F1000F89485B7806885BF7894889585B78F7772
:100F200085BF0895CF93DF930F92CDB7DEB780E0F2
:100F3000BE016F5F7F4FD4DE8823C9F3898181BFF3
:100F40000F90DF91CF91089562DE80E090E00895E8
:100F5000629FD001739FF001829FE00DF11D649F9D
:100F6000E00DF11D929FF00D839FF00D749FF00D29
:100F7000659FF00D9927729FB00DE11DF91F639FCA
:100F8000B00DE11DF91FBD01CF0111240895AA1B69
:100F9000BB1B51E107C0AA1FBB1FA617B70710F064
:100FA000A61BB70B881F991F5A95A9F78095909596
:100FB000BC01CD010895A1E21A2EAA1BBB1BFD01A5
:100FC0000DC0AA1FBB1FEE1FFF1FA217B307E40728
:100FD000F50720F0A21BB30BE40BF50B661F771F80
:100FE000881F991F1A9469F7609570958095909560
:0E0FF0009B01AC01BD01CF010895F894FFCF25
:100FFE00FC60DAF266B6BEE0FEF601EE3E9C7A9E2C
:10100E008EF62E0C780000000000000000B60000E6
:10101E007C000000000F00060006006400100006B1
:08102E000006006400C8000088
:00000001FF
