:1000000012C0E8C10AC22AC029C028C027C026C021
:1000100025C0BBC123C022C021C020C01FC01EC03C
:100020001DC01CC01BC011241FBECFE5D4E0DEBF25
:10003000CDBF10E0A0E6B0E0E8E4F5E002C0059036
:100040000D92AE36B107D9F710E0AEE6B0E001C0D0
:100050001D92A23BB107E1F709D274C2D1CF089536
:1000600088ECE2D0F0D005966AE070E035D2CB01A2
:1000700060E001D008950F931F93CF93DF93262F55
:10008000CEE6D0E0FC0130E00AE010E0309711F459
:100090002317B8F0CF01B8011FD2CB01AB01440F39
:1000A000551FB3E0880F991FBA95E1F7480F591F04
:1000B000E41BF50BE05AFF4F808188831982FB0116
:1000C00002C0198218823F5F22963430F9F622234B
:1000D00059F0E22FF0E0EE0FFF1FE259FF4F808151
:1000E0009181816091838083DF91CF911F910F91E6
:1000F000089568E070E00090760002C075956795FD
:100100000A94E2F7609580E002D1E0917600F0E099
:10011000EE0FFF1FE259FF4F81E0608111D1809106
:1001200076008F5F80937600843011F41092760011
:10013000089584E2E7E7F0E0DF011D928A95E9F790
:10014000089580919B00813019F410929B000895CE
:1001500080919C00882319F0815080939C00089521
:1001600090919B0080919C00992339F491E09093A9
:100170009B008F5F80939C000895882319F0815025
:1001800080939C00089580919D008F5F80939D00D7
:100190008A30A9F510929D0030919C002091A0001A
:1001A000E22FF0E080919E0090919F00830F911DBF
:1001B000E958FF4F4081841B910990939F008093E1
:1001C0009E00308310929C008091A1009091A2002B
:1001D000A091A300B091A4000196A11DB11D809330
:1001E000A1009093A200A093A300B093A400822F3B
:1001F0008F5F8093A000843211F41092A0000895C4
:10020000DC01CB018093A1009093A200A093A300F6
:10021000B093A40008956091A1007091A200809114
:10022000A3009091A4000895682F70E080E090E012
:1002300024E230E040E050E030D162D130936C00F5
:1002400020936B00089560919E0070919F0080E064
:1002500090E020916B0030916C0040E050E01DD1A7
:1002600024E130E040E050E04BD1C901089569DF5E
:10027000089576DF0895633060F4E62FF0E0EE0F26
:10028000FF1FEE0FFF1FEB55FF4F918380834283CB
:10029000138208958091A8008F5F8093A8008091B9
:1002A000AC008F5F8093AC008091B0008F5F809333
:1002B000B00008951092B1001EC0F0E0EE0FFF1FD5
:1002C000EE0FFF1FEB55FF4F92818381891770F06E
:1002D0000190F081E02D0995E091B100F0E0EE0F82
:1002E000FF1FEE0FFF1FEB55FF4F13828091B100F0
:1002F0008F5F8093B100E091B100E330D8F6DDCF9D
:100300008FEF87BB84BB089580E00895089588230C
:1003100029F485B3807F862B85BB089588B3807FC1
:10032000862B88BB0895882319F0813031F402C0F0
:1003300085B301C088B38F70089588B38F70089516
:10034000882311F465BB089568BB0895882311F0D4
:1003500088B3089585B3089583B7836083BF82EC23
:1003600082BF89B7816089BF8BB780648BBF85B737
:10037000836085BF8BB780688BBF85B78C6085BF76
:1003800081B38C6081BB789408951F920F920FB651
:100390000F9211242F933F934F935F936F937F930B
:1003A0008F939F93AF93BF93EF93FF9382EC82BFA2
:1003B00071DFFF91EF91BF91AF919F918F917F91ED
:1003C0006F915F914F913F912F910F900FBE0F90C2
:1003D0001F9018951F920F920FB60F9211242F9312
:1003E0003F934F935F936F937F938F939F93AF93BD
:1003F000BF93EF93FF933BDFFF91EF91BF91AF91DD
:100400009F918F917F916F915F914F913F912F912C
:100410000F900FBE0F901F9018951F920F920FB65E
:100420000F9211242F933F934F935F936F937F937A
:100430008F939F93AF93BF93EF93FF931ADFFF9137
:10044000EF91BF91AF919F918F917F916F915F914C
:100450004F913F912F910F900FBE0F901F901895C5
:1004600092DE0895FDDD089544DE089575DF48DFCE
:1004700060DEF5DD80E392E060E044E1FCDE82E3F3
:1004800092E062E044E6F7DE84E392E061E042E37A
:10049000F2DE10DF80E090E00895629FD001739F4C
:1004A000F001829FE00DF11D649FE00DF11D929F10
:1004B000F00D839FF00D749FF00D659FF00D99274F
:1004C000729FB00DE11DF91F639FB00DE11DF91F73
:1004D000BD01CF0111240895AA1BBB1B51E107C028
:1004E000AA1FBB1FA617B70710F0A61BB70B881FC4
:1004F000991F5A95A9F780959095BC01CD01089553
:10050000A1E21A2EAA1BBB1BFD010DC0AA1FBB1F17
:10051000EE1FFF1FA217B307E407F50720F0A21B89
:10052000B30BE40BF50B661F771F881F991F1A94F6
:1005300069F760957095809590959B01AC01BD0120
:08054000CF010895F894FFCFEC
:0E054800FC60DAF266B6BEE0FEF601C8000006
:00000001FF
