:1000000012C043C265C22AC029C028C027C026C06A
:1000100015C2EFC123C022C021C020C01FC01EC016
:100020001DC01CC01BC011241FBECFE5D4E0DEBF25
:10003000CDBF10E0A0E6B0E0EEEFF5E002C0059025
:100040000D92AE36B107D9F710E0AEE6B0E001C0D0
:100050001D92AF38B107E1F764D2CFC2D1CF089576
:10006000CF93DF9380ED97E0F2D081E0F5D0EC0103
:10007000E5D0CE0161E003D0DF91CF9108950F93D9
:100080001F93CF93DF93262FCEE6D0E0FC0130E024
:100090000AE010E0309711F42317B8F0CF01B8014F
:1000A00076D2CB01AB01440F551FB3E0880F991FE7
:1000B000BA95E1F7480F591FE41BF50BE05AFF4FC3
:1000C000808188831982FB0102C0198218823F5FF8
:1000D00022963430F9F6222359F0E22FF0E0EE0FA9
:1000E000FF1FE259FF4F808191818160918380835E
:1000F000DF91CF911F910F91089568E070E000901B
:10010000760002C0759567950A94E2F7609580E0E5
:1001100018D1E0917600F0E0EE0FFF1FE259FF4F9B
:1001200081E0608127D1809176008F5F8093760097
:10013000843011F41092760008950895809177002C
:10014000813019F410927700089580917800882307
:1001500019F08150809378000895909177008091F4
:100160007800992301F591E0909377008F5F809359
:10017000780081E02ED164E670E009D220917B0006
:1001800030E08FE892E0289FA001299F500D389F12
:10019000500D1124640F751F70937A0060937900DD
:1001A00010927B000895882319F081508093780085
:1001B0000895CF93DF9380917800C0917C00D09117
:1001C0007D00C80FD11DD0937D00C0937C0010929C
:1001D000780020916B0030916C0040E050E060EAC4
:1001E00076E881E090E0E7D1C217D307C8F08091AC
:1001F0007E0090917F00A0918000B09181000196D7
:10020000A11DB11D80937E0090937F00A09380007C
:10021000B0938100C21BD30BD0937D00C0937C00B0
:10022000DF91CF910895DC01CB0180937E00909304
:100230007F00A0938000B0938100089560917E00BC
:1002400070917F008091800090918100089590933B
:100250006C0080936B000895813029F468E671E0AA
:1002600080E090E004C061EE70E080E090E02091DA
:100270006B0030916C0040E050E06AD12091790031
:1002800030917A0040E050E096D1C9010895809104
:100290007B00803418F48F5F80937B0008954EDFDD
:1002A00008955BDF0895F3DF0895633060F4E62F6F
:1002B000F0E0EE0FFF1FEE0FFF1FEE57FF4F918391
:1002C0008083428313820895809185008F5F80939D
:1002D0008500809189008F5F8093890080918D00D7
:1002E0008F5F80938D00089510928E001EC0F0E005
:1002F000EE0FFF1FEE0FFF1FEE57FF4F928183811E
:10030000891770F00190F081E02D0995E0918E0041
:10031000F0E0EE0FFF1FEE0FFF1FEE57FF4F1382AF
:1003200080918E008F5F80938E00E0918E00E3308D
:10033000D8F6DDCF8FEF87BB84BB089580E00895AA
:100340000895882329F485B3807F862B85BB089583
:1003500088B3807F862B88BB0895882319F081306D
:1003600031F402C085B301C088B38F70089588B39B
:100370008F700895882311F465BB089568BB0895B4
:10038000882311F088B3089585B308958EB58260EF
:100390008EBD8FEF9FE79DBD8CBD83B7836083BF0C
:1003A00082EC82BF89B7816089BF89B7846089BFC9
:1003B0008BB780648BBF85B7836085BF8BB7806840
:1003C0008BBF85B78C6085BF81B38C6081BB78940F
:1003D0000895833058F48CB59DB58F5F9F47880F83
:1003E000991F2FEF3FE73DBD2CBD089580E090E0C1
:1003F00008951F920F920FB60F9211242F933F93DF
:100400004F935F936F937F938F939F93AF93BF931C
:10041000EF93FF9382EC82BF57DFFF91EF91BF9183
:10042000AF919F918F917F916F915F914F913F918C
:100430002F910F900FBE0F901F9018951F920F9243
:100440000FB60F9211242F933F934F935F936F93A7
:100450007F938F939F93AF93BF93EF93FF938FEF10
:100460009FE79DBD8CBD1FDFFF91EF91BF91AF91C5
:100470009F918F917F916F915F914F913F912F91BC
:100480000F900FBE0F901F9018951F920F920FB6EE
:100490000F9211242F933F934F935F936F937F930A
:1004A0008F939F93AF93BF93EF93FF93F8DEFF91EA
:1004B000EF91BF91AF919F918F917F916F915F91DC
:1004C0004F913F912F910F900FBE0F901F90189555
:1004D0001F920F920FB60F9211242F933F934F93B9
:1004E0005F936F937F938F939F93AF93BF93EF939C
:1004F000FF93D7DEFF91EF91BF91AF919F918F91C5
:100500007F916F915F914F913F912F910F900FBE0F
:100510000F901F9018954DDE0895A2DD0895EDDD32
:10052000089534DF07DF09DE9ADD8BE892E060E0B2
:1005300044E1BBDE8DE892E062E044E6B6DE8FE89F
:1005400092E061E042E3B1DECFDE80E090E008952A
:10055000629FD001739FF001829FE00DF11D649FA7
:10056000E00DF11D929FF00D839FF00D749FF00D33
:10057000659FF00D9927729FB00DE11DF91F639FD4
:10058000B00DE11DF91FBD01CF0111240895AA1B73
:10059000BB1B51E107C0AA1FBB1FA617B70710F06E
:1005A000A61BB70B881F991F5A95A9F780959095A0
:1005B000BC01CD010895A1E21A2EAA1BBB1BFD01AF
:1005C0000DC0AA1FBB1FEE1FFF1FA217B307E40732
:1005D000F50720F0A21BB30BE40BF50B661F771F8A
:1005E000881F991F1A9469F760957095809590956A
:0E05F0009B01AC01BD01CF010895F894FFCF2F
:0E05FE00FC60DAF266B6BEE0FEF601C8000050
:00000001FF
