:0400000007EF00F016
:0A0008006C8283ED09F0EAEF0CF0C2
:1006000000EE3E9C7A9E8EF62E0C780000000000D4
:10061000000000B600007C000000000F000600068D
:100620000064001000060006006400FC60DAF26658
:07063000B6BEE0FEF601007A
:100638001A6E1A50030D640EF324D96E000EF420BE
:10064800DA6EDF503F0B186E1A50080D1B0EF3249C
:10065800F66E060EF420F76E0800F55028EC0DF043
:10066800196EF2D11A50080D010EF326000EF4226D
:100678001B0EF324F66E060EF420F76E0800F550F4
:100688001918D8A459D01A50030D010EF326000EDC
:10069800F422640EF324D96E000EF420DA6EDE2AFA
:1006A800000EDD221A50030D010EF326000EF4226F
:1006B800640EF324D96E000EF420DA6E1A50080D79
:1006C800040EF326000EF4221B0EF324F66E060E1B
:1006D800F420F76EDE500900F51804E1DE50090039
:1006E800F518D8A412001A50030D640EF324D96E1D
:1006F800000EF420DA6E810EDF6E1A50080D020E1D
:10070800F326000EF4221B0EF324F66E060EF420D8
:10071800F76E1A50030D010EF326000EF422640E34
:10072800F324D96E000EF420DA6E0900F5CFDEFF4F
:100738000800F5CFDDFF12001A50030D010EF32655
:10074800000EF422640EF324D96E000EF420DA6E43
:10075800000EDE6E000EDD6E12001A50080D010E3E
:10076800F326000EF4221B0EF324F66E060EF42078
:10077800F76E0800F5501918D8A498D01A50080D2B
:10078800020EF326000EF4221B0EF324F66E060E5C
:10079800F420F76E1A50030D010EF326000EF42212
:1007A800640EF324D96E000EF420DA6E0900F550B9
:1007B800DE5C0900F550DE58D8A059D01A50030D58
:1007C800010EF326000EF422640EF324D96E000EF7
:1007D800F420DA6EDE2A000EDD221A50030D010E17
:1007E800F326000EF422640EF324D96E000EF420D2
:1007F800DA6E1A50080D060EF326000EF4221B0EB0
:10080800F324F66E060EF420F76EDE500900F51894
:1008180004E1DE500900F518D8A412001A50030D9F
:10082800640EF324D96E000EF420DA6E820EDF6EA9
:100838001A50080D020EF326000EF4221B0EF324A4
:10084800F66E060EF420F76E1A50030D010EF3260D
:10085800000EF422640EF324D96E000EF420DA6E32
:100868000900F5CFDEFF0800F5CFDDFF12001A50B2
:10087800080D020EF326000EF4221B0EF324F66E6A
:10088800060EF420F76E1A50030D010EF326000E23
:10089800F422640EF324D96E000EF420DA6E0900F7
:1008A800F5CFDEFF0800F5CFDDFF12001A50030D6B
:1008B800010EF326000EF422640EF324D96E000E06
:1008C800F420DA6E1A50080D020EF326000EF422F8
:1008D8001B0EF324F66E060EF420F76EDE500900A8
:1008E800F55CDE500900F558D8B01FD01A50080D35
:1008F800020EF326000EF4221B0EF324F66E060EEB
:10090800F420F76E1A50030D010EF326000EF422A0
:10091800640EF324D96E000EF420DA6E0900F5CFC8
:10092800DEFF0800F5CFDDFF12001A50030D010E9F
:10093800F326000EF422640EF324D96E000EF42080
:10094800DA6EDE06000EDD5A1A50030D010EF3268C
:10095800000EF422640EF324D96E000EF420DA6E31
:10096800DE50DE10D8A412001A50030D640EF324D2
:10097800D96E000EF420DA6E400EDF6E12001A50A7
:10098800080D010EF326000EF4221B0EF324F66E5A
:10099800060EF420F76E0800F5501918D8A41FD0D9
:1009A8001A50080D020EF326000EF4221B0EF32433
:1009B800F66E060EF420F76E1A50030D010EF3269C
:1009C800000EF422640EF324D96E000EF420DA6EC1
:1009D8000900F5CFDEFF0800F5CFDDFF12001A5041
:1009E800030D010EF326000EF422640EF324D96ED3
:1009F800000EF420DA6EDE06000EDD5A1A50030DE2
:100A0800010EF326000EF422640EF324D96E000EB4
:100A1800F420DA6EDE50DE10D8A412001A50030D4E
:100A2800640EF324D96E000EF420DA6E800EDF6EA9
:100A380012001A50030D640EF324D96E000EF42030
:100A4800DA6E000EDF6E12001850000AD8B40AD60B
:100A5800010AD8B482D6030AD8B491D7EAD7EF0EE0
:100A6800146E000E156E580E166E000E176E000EE0
:100A7800196E020E186ECAEC0CF078EC0EF014C069
:100A88005AF015C05BF016C05CF017C05DF0EF0EB1
:100A98001C6E000E1D6E95EC06F0EF0E146E000E27
:100AA800156E12EC0BF014C05EF015C05FF016C0A6
:100AB80060F017C061F0EF0E146E000E156E5EC088
:100AC80016F05FC017F060C018F061C019F05AC086
:100AD8001AF05BC01BF05CC01CF05DC01DF089EC17
:100AE8000EF014C0EBF015C0ECF0EF0E146E000E13
:100AF800156EBDEC0EF0010E83EC0AF02DC0EDF082
:100B08002EC0EEF0EDC014F0EEC015F027EC0EF09C
:100B180014C062F015C063F00001F0A902D0010E04
:100B280001D0000EA1EC0EF0EDC02DF0EEC02EF0BD
:100B38002F6A306A000E316E010E326E010E336E6E
:100B48008CEC07F0B8D05AC02DF05BC02EF05CC01A
:100B58002FF05DC030F0010E316E010E326E010EC5
:100B6800336E8CEC07F0BAD00001EFAD0AD0000E5E
:100B7800146E000E156E000E166E000E176E52ECF7
:100B88000EF05EC02DF05FC02EF060C02FF061C087
:100B980030F0010E316E000E326E010E336E8CECA9
:100BA80007F09CD0EBC02DF0ECC02EF02F6A306A15
:100BB800010E316E010E326E010E336E8CEC07F0B1
:100BC8008DD062C02DF063C02EF02F6A306A010EFE
:100BD800316E010E326E010E336E8CEC07F07ED052
:100BE8000001F0A73DD00001EFAD08D0030E571863
:100BF800D8A402D0000E09D0572A2AD00001EFAF9E
:100C080008D05750D8A403D0030E576E21D05706EA
:100C18001FD00001EFA90BD055C01BF056C01CF027
:100C280057C01DF0000E1E6E65EC08F00DD00001D7
:100C3800EFAB0ED055C01BF056C01CF057C01DF0CE
:100C4800010E1E6E65EC08F01BC055F01CC056F076
:100C5800010E146E640E156E575081EC0EF007D01D
:100C6800010E146E000E156E575081EC0EF055C033
:100C78002DF056C02EF02F6A306A010E316E000E2C
:100C8800326E000E336E8CEC07F055C014F056C06F
:100C980015F08EEC0EF022D0EF0E146E000E156ECD
:100CA800000E176E000E166E000E196E020E186EEC
:100CB800C2EC0DF013D00001EF51070B000AD8B4B5
:100CC80042D7010AD8B450D7030AD8B46BD7010A5F
:100CD800D8B477D7070AD8B483D7DED7580E146E9E
:100CE800000E156EEF0E166E000E176E000E196EC2
:100CF800020E186ECAEC0CF00001EFA71200550E98
:100D0800146E000E156E0F0E166E000E176E000E86
:100D1800186E010ED0EC0BF0E806D8A41200589615
:100D28001200000E94EC0DF0216E010E94EC0DF003
:100D3800226ECDD02104D8A405D02204D8A402D094
:100D4800030EC3D0400E2118D8A41FD01CC0D9FF51
:100D58001DC0DAFFDF50070B0009D8A408D01CC05B
:100D6800D9FF1DC0DAFFDF50F80B04090CD0010EC3
:100D78001E6E1CC0D9FF1DC0DAFFDF50070B1F6EA7
:100D88001E501F5E22D0DF6EB0D0400E2218D8A4AD
:100D980021D01CC0D9FF1DC0DAFFDF50070B040AA1
:100DA800D8A408D01CC0D9FF1DC0DAFFDF90DF929D
:100DB800DF949BD0010E1E6E1CC0D9FF1DC0DAFF48
:100DC800DF50070B1F6E1E501F26DF501F18F80B31
:100DD8001F18D9D7820E2118D8A408D020EE01F008
:100DE8001C50D9261D50DA22DF747FD0820E2218BB
:100DF800D8A47BD020EE01F01C50D9261D50DA2251
:100E0800DF7873D01CC0D9FF1DC0DAFFDF50070B95
:100E1800206E1CC014F01DC015F0000E176E000ED9
:100E2800166E000E196E020E186EC2EC0DF021043B
:100E3800D8A40BD02204D8A408D0020E426E1CC03D
:100E4800D9FF1DC0DAFFDF8627D0400E2118D8A4AD
:100E580006D01CC0D9FF1DC0DAFFDF8A1DD0400EA6
:100E68002218D8A406D01CC0D9FF1DC0DAFFDF881D
:100E780013D0820E2118D8A406D01CC0D9FF1DC0DB
:100E8800DAFFDF8E09D0820E2218D8A405D01CC044
:100E9800D9FF1DC0DAFFDF8C1CC0D9FF1DC0DAFFE7
:100EA800DF502018F80B20186ED72150D8A41DD079
:100EB8002250D8A41AD008D02150D8A416D0225035
:100EC800D8A413D0010E01D0000E426E0ED04250AD
:100ED800000AD8B42FD7010AD8B494D7030AD8B4D3
:100EE800E4D7010AD8B4E8D7EFD742C01EF0010E04
:100EF8001E1620EE01F01C50D9261D50DA221E467F
:100F08001E461E46DF501E18F70B1E18DF6E120015
:100F18002DC0E6F02EC0E7F02FC0E8F030C0E9F0B1
:100F2800000E0001EA6F030E0001EA6501D0AAD0A5
:100F38000001E6510001E7110001E8110001E91183
:100F4800D8A405D00001EA51325CD8A059D0E6C037
:100F5800DEF0E7C0DFF0E8C0E0F0E9C0E1F0E6C0AD
:100F680020F0E7C021F0E8C022F0E9C023F00A0E23
:100F7800246E000E256E000E266E000E276E57ECAE
:100F88000BF020C0E6F021C0E7F022C0E8F023C053
:100F9800E9F0E6C014F0E7C015F0E8C016F0E9C0C3
:100FA80017F00A0E186E000E196E000E1A6E000E5B
:100FB8001B6E31EC0CF0141E151E161E171E142A7B
:100FC800000E1522162217220001DE5114240001FA
:100FD800E26F0001DF5115200001E36F0001E051CD
:100FE80016200001E46F0001E15117200001E56FB0
:100FF8002B0E0001E225F66E060EE321F76E0CD0EB
:101008000001EA51325CD8B003D03350D8A420D0C4
:101018002B0EF66E060EF76E0800F550346E356A24
:101028003150080DC20E366E000E376EF35036265C
:10103800F45037220001EA51020DF3503624D96EDC
:10104800F4503720DA6E34C0DEFF35C0DDFF17D02C
:101058003150080DC20E346E000E356EF350342632
:10106800F45035220001EA51020DF3503424D96EB0
:10107800F4503520DA6E000EDE6E000EDD6E0001D3
:10108800EA2B51D73250D8B412003150080DC20E95
:10109800346E000E356EF3503426F450352232503B
:1010A800020DF3503424D96EF4503520DA6E350E23
:1010B800F66E060EF76E0800F550DE12000EDD1211
:1010C8001200000E236E000E226E000E266E010E18
:1010D800256E000E2B6E030E2B6401D030D01B50F2
:1010E8001C10D8B420D01BC020F01CC021F01BC09D
:1010F80014F01CC015F0000E176E0A0E166E5CEC8C
:101108000CF014C01BF015C01CF02B50010D270E5D
:10111800F324D96E000EF420DA6E1B500A0DF3503A
:101128000008202409D02B50010D270EF324D96E76
:10113800000EF420DA6E000EDF6E2B2ACCD71E507C
:10114800D8A41FD01D50010D270EF324D96E000E10
:10115800F420DA6EDF50D8A40AD01D50010D270EF6
:10116800F324D96E000EF420DA6E090E1FD01D503C
:10117800010D270EF324D96E000EF420DA6EDF0677
:1011880020D01D50010D270EF324D96E000EF42037
:10119800DA6E090EDE18D8A40BD01D50010D270EEB
:1011A800F324D96E000EF420DA6E000EDF6E09D03B
:1011B8001D50010D270EF324D96E000EF420DA6EAF
:1011C800DF2A000E2B6E030E2B6401D033D0000EE5
:1011D800246E0FD025C014F026C015F0000E176E2F
:1011E8000A0E166E01EC0EF014C025F015C026F09C
:1011F800242A2B50245CD8A0EDD72B50010D270EA4
:10120800F324D96E000EF420DA6EDF501F6E1F50E3
:10121800146E156A25C016F026C017F001EC0EF002
:101228001450222615502322000E266E010E256E1C
:101238002B2AC9D722C01BF023C01CF01200550E60
:10124800186E000E196E0F0E1A6E010E85EC0CF05A
:10125800100E555C270E5658D8A004D0070E566EAF
:10126800D00E556E5D505C1006E1100E5A5C270ECC
:101278005B58D8A008D0000E5A6E000E5B6E000EA8
:101288005C6E000E5D6E5D505C1006E1100E5A5CDF
:10129800270E5B58D8A008D0000E5E6E000E5F6E59
:1012A800000E606E000E616E100E625C270E6358B1
:1012B800D8A004D0000E636E000E626E55C014F004
:1012C80056C015F08EEC0EF05AC014F05BC015F045
:1012D8005CC016F05DC017F044EC0EF05EC014F070
:1012E8005FC015F060C016F061C017F052EC0EF048
:1012F80062C014F063C015F093EC0EF01200060003
:10130800FACF06F0FBCF07F0E9CF08F0EACF09F0F3
:10131800E1CF0AF0E2CF0BF0D9CF0CF0DACF0DF025
:10132800F3CF0EF0F4CF0FF0F6CF10F0F7CF11F0A7
:10133800F8CF12F0F5CF13F0F2A405D0F294120E04
:10134800D66ED8EC0DF0A1A205D0A192EF0EB36E27
:10135800000EB26E9EA007D09E90000ECF6E000EBB
:10136800CE6EB2EC0EF09EB29E92F2A203D0F29232
:10137800B8EC0EF0F0A003D0F090B5EC0EF013C06E
:10138800F5FF12C0F8FF11C0F7FF10C0F6FF0FC03D
:10139800F4FF0EC0F3FF0DC0DAFF0CC0D9FF0BC07D
:1013A800E2FF0AC0E1FF09C0EAFF08C0E9FF07C081
:1013B800FBFF06C0FAFF6C9211003CC014F03DC060
:1013C80015F0000E176E640E166E5CEC0CF014C06F
:1013D8002DF015C02EF046C014F0156A020E176ED7
:1013E8008F0E166E01EC0EF014502D243E6E155023
:1013F8002E203F6E47500001DC27000EDD23000E33
:10140800476EA00E206E860E216E010E226E000E13
:10141800236E6AC024F06BC025F0266A276A57EC51
:101428000BF020C02FF021C030F04550D8A4120096
:101438002F500001DC5D30500001DD59D8A01200AA
:10144800010E0001D627000ED723D823D9232F5009
:101458000001DC5F30500001DD5B12005250D8B44F
:101468000AD04E2A52504E18D8A407D0010E501A4E
:10147800000E4E6E02D0000E506E5004D8A40AD052
:1014880053504F18D8A406D04D505118D8A402D0A4
:10149800000E13D04D50080DC20E166E000E176EBA
:1014A800F3501626F45017224F50020DF35016240D
:1014B800D96EF4501720DA6EDF50196E5404D8B480
:1014C800191E4D50040DF3504F24186E18C014F017
:1014D800000E64EC0DF019C014F0010E14EC0EF0BF
:1014E8004F2A040E4F18D8A41200000E4F6E4D2A32
:1014F800020E4D18D8A41200000E4D6E12002F6E69
:10150800000E356E000E346E2F04D8A404D0680E79
:10151800306E010E03D0E10E306E000E316E000EFB
:10152800326E000E336E3E503F10D8B424D06AC0DD
:1015380014F06BC015F0166A176A30C018F031C085
:1015480019F032C01AF033C01BF031EC0CF014C0A3
:1015580020F015C021F016C022F017C023F03EC0BD
:1015680024F03FC025F0266A276A57EC0BF020C00C
:1015780034F021C035F0400E4418D8A404D0000E31
:10158800356E000E346E34C02DF035C02EF01200CA
:10159800000E436E030E436401D0FAD74350040D86
:1015A800020EF326000EF422B20EF324D96E000EBA
:1015B800F420DA6E4350040D030EF326000EF422D5
:1015C800B20EF324E16E000EF420E26EDE50E65C0B
:1015D800D8A022D04350040DB20EF324D96E000EC9
:1015E800F420DA6E01D80AD00500FA6EDE50FD6EDE
:1015F800DE50FE6EF850FF6EFA5012004350040D94
:10160800030EF326000EF422B20EF324D96E000E58
:10161800F420DA6E000EDF6E432ABCD720EE01F00C
:101628001450D9261550DA22DFA00FD0000E000181
:10163800DB6F000EDA6F000E0001D26F000ED36F61
:10164800000ED46F000ED56F25D0B00E0001DA5D04
:10165800040E0001DB59D8A012D0000E0001DB6F88
:10166800000EDA6F010E0001D227000ED323D42317
:10167800D52314C0D9FF15C0DAFFDF860BD020EEC2
:1016880001F01450D9261550DA22DFB803D0000132
:10169800DA4BDB2BD2C014F0D3C015F0D4C016F04F
:1016A800D5C017F01200000E286E000E296E000E2D
:1016B8002A6E000E2B6E2450251026102710D8B441
:1016C8002AD0010E2C6E06D0D89024362536263620
:1016D80027362C2A27AEF8D7D890283629362A3626
:1016E8002B362450205C255021582650225827504C
:1016F8002358D8A009D02450205E2550215A2650BE
:10170800225A2750235A2880D89027322632253249
:1017180024322C2EE1D728C020F029C021F02AC07D
:1017280022F02BC023F01200BEEC0EF009EC0DF0F5
:1017380060EC0EF0BCEC0EF023EC09F0010EA5EC09
:101748000EF05E0E146E1D0E156E000E166E140E43
:10175800176E05EC0CF0580E146E1D0E156E020E69
:10176800166E320E176E05EC0CF0520E146E1D0E2E
:10177800156E010E166E020E176E05EC0CF06C0E4F
:10178800146E1C0E156E030E166E0A0E176E05ECFF
:101798000CF0CCEC0AF01200196E14C01AF015C047
:1017A8001BF04C50D8A429D0330E166026D0010E59
:1017B8004C6E000E1D6E13D01D50010DF3501A24EF
:1017C800D96EF4501B20DA6E1D50010D800EF324E3
:1017D800E16E000EF420E26EDFCFE7FF1D2A1650FF
:1017E8001D5CD8A0E9D716C04AF019C04BF017C045
:1017F80040F018C041F0010E01D0000E1C6E1C50C4
:101808001200040E166012001650040DB20EF324D6
:10181800D96E000EF420DA6E14C0DEFF15C0DDFFAD
:101828001650040D020EF326000EF422B20EF32415
:10183800D96E000EF420DA6E17C0DFFF1650040DC3
:10184800030EF326000EF422B20EF324D96E000E16
:10185800F420DA6E000EDF6E1200000E1C6E000E11
:101868001D6E000E1E6E000E1F6E14A008D01850BC
:101878001C2619501D221A501E221B501F22D890B8
:10188800183619361A361B36D890173216321532D2
:1018980014321450151016101710D8A4E6D71CC00F
:1018A80014F01DC015F01EC016F01FC017F012006E
:1018B800000E1A6E000E196E16501710D8B41CD0F0
:1018C800010E186E04D0D89016361736182A17AE9F
:1018D800FAD7D89019361A361650145C175015587E
:1018E800D8A005D01650145E1750155A1980D890F4
:1018F80017321632182EEDD719C014F01AC015F089
:1019080012001E6E000E206E18C01CF019C01DF0CB
:101918004C50D8B411D017D02050010DF3501C24CE
:10192800146EF4501D20156E1E502024EDEC0DF0A1
:101938001F6E1F04D8B4202A1A50205CD8A0ECD7F8
:10194800010E1B6E1200000E1B6E12004C04D8A470
:1019580012004A504918D8A405D0000E496E000E4E
:101968004C6E12004950010D800EF324D96E000E02
:10197800F420DA6EDF50146E4B5049247DEC0DF0E4
:10198800176E1704D8A41200492A120016C01CF0BA
:1019980017C01DF014C01AF015C01BF00ED01CC0E3
:1019A800D9FF1DC0DAFF1AC0E1FF1BC0E2FFDFCF7D
:1019B800E7FF1C4A1D2A1A4A1B2A1806D8A019062E
:1019C8001828EDE11928D8B41200E9D7760EF66E7A
:1019D8001D0EF76E000EF86E0900F5CF6AF00900CB
:1019E800F5CF6BF000EE80F05E0EEE6AE806FDE1E2
:1019F80000EE3AF0300EEE6AE806FDE16C906C926B
:101A0800000EF86E00019DEF0EF093809382F00EA9
:101A1800F26E080EF06ED10ED56E850ECD6E9D0E4F
:101A2800B16EF18CF18AF294F28A9E909D80A19217
:101A3800A082130ED66E000ECF6E000ECE6E000E74
:101A4800B26E000EB36E1200146E0FD0000E81B489
:101A5800010E09D0000E81B6010E05D0000E81B826
:101A6800010E01D0000E156E0BD014500F0AD8B419
:101A7800EDD71F0AD8B4EED7010AD8B4EFD7F2D7FA
:101A880015501200036E000E056E000E046E09D08C
:101A9800CECF04F0CFCF05F0000ECF6E000ECE6E85
:101AA8000AD00350000AD8B4F3D7010AD8B4F0D743
:101AB800030AD8B4EDD704C001F005C002F0120043
:101AC800156E0FD08B50F00B1410826E12008C50D4
:101AD800F00B1410836E12008C50F00B1410836EF0
:101AE80012001550000AD8B4EDD7010AD8B4EFD7C0
:101AF800F3D7156EA6B210D015C0A9FF14C0A8FF61
:101B0800A69EA69CA684F29E550EA76EAA0EA76E48
:101B1800A682F28E010E01D0000E166E165012002B
:101B2800156E1550030D640EF324D96E000EF420C3
:101B3800DA6EDF50146E1550030D640EF324D96E5F
:101B4800000EF420DA6E3F0EDF16145012004850D3
:101B5800D8A40FD0010E486E472A010E46EC0DF0AE
:101B680001C03CF002C03DF044C046F0000E446E97
:101B780012004750D8B412004706120014C01AF0D9
:101B880015C01BF008D01AC0D9FF1BC0DAFF16C059
:101B9800DFFF1A4A1B2A1806D8A019061828F3E1ED
:101BA8001928D8B41200EFD7000E016E030E016495
:101BB80001D012000150040D030EF326000EF4228A
:101BC800B20EF324D96E000EF420DA6EDF2A012A51
:101BD800EDD7166EA6B20DD016C0A9FFA69EA69C7C
:101BE800A68014C0D9FF15C0DAFFA8CFDFFF010E09
:101BF80001D0000E176E1750120014501602F3CFC2
:101C080018F0F4CF19F014501702F3501926155094
:101C18001602F350192618C014F019C015F0120056
:101C2800156E09D014C082FF120014C083FF120081
:101C380014C083FF12001550000AD8B4F3D7010A64
:101C4800D8B4F3D7F5D714503A5C15503B58D8B0F0
:101C580004D014C03AF015C03BF03AC014F03BC0B1
:101C680015F01200000E1B6E010E1B6401D005D08A
:101C78001B501CEC03F01B2AF7D7AAEC0CF012003F
:101C880014C0D6F015C0D7F016C0D8F017C0D9F0D8
:101C9800000E0001DD6F000EDC6F120014C0D2F0E0
:101CA80015C0D3F016C0D4F017C0D5F0000E00014F
:101CB800DB6F000EDA6F1200000E956E000E836E59
:101CC800000E946E938493869388939A939C939E24
:101CD80012004804D8A403D0000E486E12004750E2
:101CE800D8B4120047061200D6C014F0D7C015F0B9
:101CF800D8C016F0D9C017F01200166E16C053F0EF
:101D080015C052F014C051F01200100E156EE10EFD
:101D1800146E120014C06AF015C06BF0120014C0E3
:101D28003AF015C03BF01200400E44601200442AFD
:101D3800120098EC0BF007EF00F0146E14C045F099
:101D48001200146E14C054F0120032EC0AF01200A3
:101D580033EC05F01200E1EC09F0120098EC0EF0FB
:101D68001200ABEC0DF012006DEC0EF01200C80082
:061D78001200120012002F
:020000040020DA
:08000000FFFFFFFFFFFFFFFF00
:020000040030CA
:0E000000FF011F1EFF0185FF0FC00FE00F4024
:00000001FF
