:0400000007EF00F016
:0A0008006C8248ED06F038EF09F0B5
:100600000061686D656420696D626162792053578D
:1006100020454550524F4D204F4B203A44000F008B
:100620000400040064001000040004006400FC6086
:10063000DAF266B6BEE0FEF60100556E5550030DC7
:10064000350EF324D96E000EF420DA6EDF507F0BE6
:10065000536E5550080D1E0EF324F66E060EF42050
:10066000F76E0800F550ADEC09F0546EF2D155501C
:10067000080D010EF326000EF4221E0EF324F66E72
:10068000060EF420F76E0800F5505418D8A459D07F
:100690005550030D010EF326000EF422350EF324FF
:1006A000D96E000EF420DA6EDE2A000EDD225550DF
:1006B000030D010EF326000EF422350EF324D96E3D
:1006C000000EF420DA6E5550080D040EF326000ECD
:1006D000F4221E0EF324F66E060EF420F76EDE50A2
:1006E0000900F51804E1DE500900F518D8A412003D
:1006F0005550030D350EF324D96E000EF420DA6E3A
:10070000810EDF6E5550080D020EF326000EF42206
:100710001E0EF324F66E060EF420F76E5550030DF0
:10072000010EF326000EF422350EF324D96E000ECE
:10073000F420DA6E0900F5CFDEFF0800F5CFDDFF0B
:1007400012005550030D010EF326000EF422350E53
:10075000F324D96E000EF420DA6E000EDE6E000E69
:10076000DD6E12005550080D010EF326000EF42226
:100770001E0EF324F66E060EF420F76E0800F550F8
:100780005418D8A498D05550080D020EF326000E28
:10079000F4221E0EF324F66E060EF420F76E55506A
:1007A000030D010EF326000EF422350EF324D96E4C
:1007B000000EF420DA6E0900F550DE5C0900F550F9
:1007C000DE58D8A059D05550030D010EF326000E67
:1007D000F422350EF324D96E000EF420DA6EDE2AF0
:1007E000000EDD225550030D010EF326000EF422FB
:1007F000350EF324D96E000EF420DA6E5550080D34
:10080000060EF326000EF4221E0EF324F66E060EDC
:10081000F420F76EDE500900F51804E1DE500900FF
:10082000F518D8A412005550030D350EF324D96ED7
:10083000000EF420DA6E820EDF6E5550080D020EA7
:10084000F326000EF4221E0EF324F66E060EF4209C
:10085000F76E5550030D010EF326000EF422350EEF
:10086000F324D96E000EF420DA6E0900F5CFDEFF16
:100870000800F5CFDDFF12005550080D020EF326DB
:10088000000EF4221E0EF324F66E060EF420F76E10
:100890005550030D010EF326000EF422350EF324FD
:1008A000D96E000EF420DA6E0900F5CFDEFF0800E5
:1008B000F5CFDDFF12005550030D010EF326000E9B
:1008C000F422350EF324D96E000EF420DA6E555062
:1008D000080D020EF326000EF4221E0EF324F66E0F
:1008E000060EF420F76EDE500900F55CDE500900BC
:1008F000F558D8B01FD05550080D020EF326000E43
:10090000F4221E0EF324F66E060EF420F76E5550F8
:10091000030D010EF326000EF422350EF324D96EDA
:10092000000EF420DA6E0900F5CFDEFF0800F5CFE7
:10093000DDFF12005550030D010EF326000EF422C8
:10094000350EF324D96E000EF420DA6EDE06000EAA
:10095000DD5A5550030D010EF326000EF422350E1C
:10096000F324D96E000EF420DA6EDE50DE10D8A427
:1009700012005550030D350EF324D96E000EF420ED
:10098000DA6E800EDF6E12005550080D010EF32650
:10099000000EF4221E0EF324F66E060EF420F76EFF
:1009A0000800F5505418D8A41FD05550080D020E59
:1009B000F326000EF4221E0EF324F66E060EF4202B
:1009C000F76E5550030D010EF326000EF422350E7E
:1009D000F324D96E000EF420DA6E0900F5CFDEFFA5
:1009E0000800F5CFDDFF12005550030D010EF32670
:1009F000000EF422350EF324D96E000EF420DA6EC8
:100A0000DE06000EDD5A5550030D010EF326000ED2
:100A1000F422350EF324D96E000EF420DA6EDE5087
:100A2000DE10D8A412005550030D350EF324D96EF4
:100A3000000EF420DA6E800EDF6E12005550030DAA
:100A4000350EF324D96E000EF420DA6E000EDF6E40
:100A500012005350000AD8B40AD6010AD8B482D67C
:100A6000030AD8B491D7EAD7080E506E080E4F6E1D
:100A7000A3EC0AF0010EA6EC06F068C0BFF069C056
:100A8000C0F094EC0AF04FC0BAF050C0BBF051C0B7
:100A9000BCF052C0BDF0BAC04FF0BBC050F0BCC0FB
:100AA00051F0BDC052F00A0E536E000E546E000E8F
:100AB000556E000E566EA3EC08F04FC0BAF050C051
:100AC000BBF051C0BCF052C0BDF0040E0001B96FC4
:100AD000D8900001BD33BC33BB33BA330001B92F0A
:100AE000F7D7BF0E4F6E000E506E020E516E010E04
:100AF0004AEC08F0BF0E536E000E546E020E556E97
:100B0000010EF7EC08F0BFC056F0C0C057F0010E60
:100B1000586ECDEC05F023502410D8A40FD0000E51
:100B2000DBEC09F00001BE6F820E0001BE19D8A4F3
:100B30001200000E246E010E236E1200640E4F6E22
:100B400025509DEC0AF0000EDBEC09F00001BE6FB1
:100B5000810E0001BE19D8A40CD0254A262A040E05
:100B600025182610D8A41200000E266E000E256E41
:100B70001200010EDBEC09F00001BE6F820E0001D5
:100B8000BE19D8A41200000E4F6E010E9DEC0AF0A3
:100B9000000E246E000E236E120056C05FF057C088
:100BA00060F0000E616E030E616401D05CD05F5096
:100BB0006010D8A404D06150585CD8A02DD05FC07C
:100BC0005BF060C05CF05FC04FF060C050F0000EA2
:100BD000526E0A0E516ECEEC08F04FC05FF050C05E
:100BE00060F05FC04FF060C050F0000E526E0A0E11
:100BF000516E48EC0AF04F1E501E4F4A502A5B506F
:100C00004F245D6E5C5050205E6E2E0E5D24F66E9D
:100C1000060E5E20F76E08D06150585CD8A015D043
:100C20002E0EF66E060EF76E0800F550596E5A6AD3
:100C30006150020D110EF324D96E000EF420DA6E0D
:100C400059C0DEFF5AC0DDFF0CD06150020D110EFD
:100C5000F324D96E000EF420DA6E000EDE6E000E64
:100C6000DD6E612AA0D75850D8B412005850020D3A
:100C7000110EF324D96E000EF420DA6E380EF66EE3
:100C8000060EF76E0800F550DE12000EDD1212009F
:100C90000600FACF41F0FBCF42F0E9CF43F0EACFB4
:100CA00044F0E1CF45F0E2CF46F0D9CF47F0DACFBC
:100CB00048F0F3CF49F0F4CF4AF0F6CF4BF0F7CF3E
:100CC0004CF0F8CF4DF0F5CF4EF0F2A405D0F294F1
:100CD000120ED66E1FEC0AF0A1A205D0A192EF0E63
:100CE000B36E000EB26E9EA007D09E90000ECF6E27
:100CF000000ECE6EBEEC0AF09EB29E92F2A203D01F
:100D0000F292C4EC0AF0F0A003D0F090C1EC0AF02B
:100D10004EC0F5FF4DC0F8FF4CC0F7FF4BC0F6FFCB
:100D20004AC0F4FF49C0F3FF48C0DAFF47C0D9FF0B
:100D300046C0E2FF45C0E1FF44C0EAFF43C0E9FF0F
:100D400042C0FBFF41C0FAFF6C9211000001B26F7C
:100D5000000E0001B86F000EB76F0001B205D8A4F5
:100D600005D0680E0001B36F010E04D0E10E000142
:100D7000B36F000EB46F000EB56F000EB66F1F504C
:100D80002010D8B424D06AC04FF06BC050F0516A24
:100D9000526AB3C053F0B4C054F0B5C055F0B6C0F9
:100DA00056F0A3EC08F04FC05BF050C05CF051C0AF
:100DB0005DF052C05EF01FC05FF020C060F0616A5D
:100DC000626AD3EC07F05BC0B7F05CC0B8F0400ECD
:100DD0002818D8A405D0000E0001B86F000EB76F18
:100DE000B7C068F0B8C069F012001DC04FF01EC057
:100DF00050F0000E526E640E516ECEEC08F04FC0F3
:100E000068F050C069F029C04FF0506A020E526E6F
:100E10008F0E516E48EC0AF04F5068241F6E5050F0
:100E20006920206E2A502126000E2222000E2A6EF2
:100E3000A00E5B6E860E5C6E010E5D6E000E5E6E29
:100E40006AC05FF06BC060F0616A626AD3EC07F061
:100E50005BC0B2F05CC0B3F00001B251215C000194
:100E6000B3512258D8A01200010E1926000E1A22E2
:100E70001B221C220001B251215E0001B351225AF3
:100E80001200000E546E3250D8B40AD0302A3250BC
:100E90003018D8A407D0010E311A000E306E02D0DF
:100EA000000E316E3104D8A407D033503B18D8A4BB
:100EB00003D00F0E536E1AD03B280008516E040E5B
:100EC0005126010E526E512A02D0D8905236512E20
:100ED000FCD75250FF0A536E3B50020D110EF32403
:100EE000D96E000EF420DA6EDF50546E3404D8A4AC
:100EF00002D0531E541E53C04FF0000E94EC09F064
:100F000054C04FF0010E5BEC0AF03B2A040E3B1874
:100F1000D8A41200000E3B6E1200000E276E030EC6
:100F2000276401D0FAD72750040D020EF326000ED5
:100F3000F422010EF324D96E000EF420DA6E27504D
:100F4000040D030EF326000EF422010EF324E16ECD
:100F5000000EF420E26EDE50E65CD8A022D02750CE
:100F6000040D010EF324D96E000EF420DA6E01D8C0
:100F70000AD00500FA6EDE50FD6EDE50FE6EF850AF
:100F8000FF6EFA5012002750040D030EF326000ED8
:100F9000F422010EF324D96E000EF420DA6E000E56
:100FA000DF6E272ABCD7000E636E000E646E000E43
:100FB000656E000E666E5F50601061106210D8B4EE
:100FC0002AD0010E676E06D0D8905F366036613643
:100FD0006236672A62AEF8D7D890633664366536D3
:100FE00066365F505B5C60505C5861505D58625083
:100FF0005E58D8A009D05F505B5E60505C5A61506B
:101000005D5A62505E5A6380D890623261326032BB
:101010005F32672EE1D763C05BF064C05CF065C0EF
:101020005DF066C05EF0120057EC09F07CEC0AF04F
:10103000C8EC0AF009EC0AF0010EB1EC0AF0760EE9
:101040004F6E150E506E000E516E140E526E77ECF0
:1010500008F0700E4F6E150E506E020E516E640E3B
:10106000526E77EC08F06A0E4F6E150E506E010E40
:10107000516E040E526E77EC08F0DC0E4F6E140EBB
:10108000506E030E516E0A0E526E77EC08F08DEC26
:1010900007F01200536E2F50D8A426D0330E5160A3
:1010A00023D0010E2F6E000E546E13D05450010D3C
:1010B000F3504F24D96EF4505020DA6E5450010D85
:1010C000800EF324E16E000EF420E26EDFCFE7FF26
:1010D000542A5150545CD8A0E9D751C02DF053C0C8
:1010E0002EF0010E526E1200000E526E1200040E0F
:1010F000516012005150040D010EF324D96E000E00
:10110000F420DA6E4FC0DEFF50C0DDFF5150040DF9
:10111000020EF326000EF422010EF324D96E000E07
:10112000F420DA6E52C0DFFF5150040D030EF32697
:10113000000EF422010EF324D96E000EF420DA6EB4
:10114000000EDF6E1200000E576E000E586E000E7D
:10115000596E000E5A6E4FA008D053505726545067
:1011600058225550592256505A22D8905336543648
:1011700055365636D8905232513250324F324F5047
:10118000501051105210D8A4E6D757C04FF058C095
:1011900050F059C051F05AC052F01200000E556E76
:1011A000000E546E51505210D8B41CD0010E536E24
:1011B00004D0D89051365236532A52AEFAD7D8902E
:1011C0005436553651504F5C52505058D8A005D027
:1011D00051504F5E5250505A5480D8905232513232
:1011E000532EEDD754C04FF055C050F01200576E3B
:1011F000000E596E2F50D8B411D017D05950010D90
:10120000F35053244F6EF4505420506E57505924CD
:1012100034EC0AF0586E5804D8B4592A5550595C29
:10122000D8A0ECD7010E566E1200000E566E1200BA
:101230002F04D8A412002D502C18D8A405D0000ECD
:101240002C6E000E2F6E12002C50010D800EF32418
:10125000D96E000EF420DA6EDF504F6E2E502C2423
:10126000C4EC09F0526E5204D8A412002C2A1200C9
:101270008E0EF66E150EF76E000EF86E0900F5CFA5
:101280006AF00900F5CF6BF000EE80F0320EEE6AE6
:10129000E806FDE100EE01F03B0EEE6AE806FDE136
:1012A0006C906C92000EF86E0001ADEF0AF0938026
:1012B0009382F00EF26E080EF06ED10ED56E850E92
:1012C000CD6E9D0EB16EF18CF18AF294F28A9E90F1
:1012D0009D80A192A082130ED66E000ECF6E000EDE
:1012E000CE6E000EB26E000EB36E12003E6E000E99
:1012F000406E000E3F6E09D0CECF3FF0CFCF40F012
:10130000000ECF6E000ECE6E0AD03E50000AD8B44A
:10131000F3D7010AD8B4F0D7030AD8B4EDD73FC049
:101320003CF040C03DF01200506E0FD08B50F00BDF
:101330004F10826E12008C50F00B4F10836E120013
:101340008C50F00B4F10836E12005050000AD8B42E
:10135000EDD7010AD8B4EFD7F3D74F6E0BD0000EFC
:1013600081B4010E05D0000E81B6010E01D0000E31
:10137000506E08D04F500F0AD8B4F1D71F0AD8B416
:10138000F2D7F5D750501200506EA6B210D050C010
:10139000A9FF4FC0A8FFA69EA69CA684F29E550E4C
:1013A000A76EAA0EA76EA682F28E010E01D0000EC5
:1013B000516E51501200506E5050030D350EF324F3
:1013C000D96E000EF420DA6EDF504F6E5050030DD0
:1013D000350EF324D96E000EF420DA6E7F0EDF1680
:1013E0004F5012002B50D8A40FD0010E2B6E2A2A7A
:1013F000010E76EC09F03CC01DF03DC01EF028C087
:1014000029F0000E286E12002A50D8B412002A06C5
:101410001200010EF66E060EF76E20EEB2F01C0EF4
:101420000900F5CFDEFFE806FBE2B20E4F6E000EBC
:10143000506E1D0E516E080E4AEC08F01200000EA0
:101440003C6E030E3C6401D012003C50040D030EB0
:10145000F326000EF422010EF324D96E000EF420C0
:10146000DA6EDF2A3C2AEDD7516EA6B20DD051C0FC
:10147000A9FFA69EA69CA6804FC0D9FF50C0DAFF48
:10148000A8CFDFFF010E01D0000E526E52501200A5
:101490004F505102F3CF53F0F4CF54F04F5052025B
:1014A000F350542650505102F350542653C04FF07D
:1014B00054C050F01200506E09D04FC082FF12008D
:1014C0004FC083FF12004FC083FF12005050000A2C
:1014D000D8B4F3D7010AD8B4F3D7F5D7000E566EB7
:1014E000010E566401D005D056501DEC03F0562A6B
:1014F000F7D718EC09F01200000E956E000E836EFF
:10150000000E946E938493869398939A939C939EE3
:1015100012002B04D8A403D0000E2B6E12002A5008
:10152000D8B412002A06120019C04FF01AC050F0A9
:101530001BC051F01CC052F01200506E50C033F06E
:101540004FC032F012004FC06AF050C06BF0120072
:10155000400E28601200282A120014EC08F007EF51
:1015600000F04F6E4FC034F0120041EC07F0120053
:1015700034EC05F01200F5EC06F01200A8EC0AF0CD
:101580001200F2EC09F0120089EC0AF01200C80017
:02159000120047
:020000040020DA
:08000000FFFFFFFFFFFFFFFF00
:020000040030CA
:0E000000FF011F1EFF0185FF0FC00FE00F4024
:00000001FF
