:0400000007EF00F016
:0A000800628282ED03F02AEF06F099
:0D06000000FC60DAF266B6BEE0FEF6010016
:10060E001BC024F01CC025F0000E266E030E2664BF
:10061E0001D05CD024502510D8A404D026501D5CE7
:10062E00D8A02DD024C020F025C021F024C014F075
:10063E0025C015F0000E176E0A0E166E9CEC05F016
:10064E0014C024F015C025F024C014F025C015F0F8
:10065E00000E176E0A0E166E88EC06F0141E151E8E
:10066E00144A152A20501424226E21501520236E70
:10067E00010E2224F66E060E2320F76E08D02650A9
:10068E001D5CD8A015D0010EF66E060EF76E080092
:10069E00F5501E6E1F6A2650020D480EF324D96EB9
:1006AE00000EF420DA6E1EC0DEFF1FC0DDFF0CD080
:1006BE002650020D480EF324D96E000EF420DA6E89
:1006CE00000EDE6E000EDD6E262AA0D71D50D8B4A9
:1006DE0012001D50020D480EF324D96E000EF420A8
:1006EE00DA6E0B0EF66E060EF76E0800F550DE1281
:1006FE00000EDD1212000600FACF06F0FBCF07F057
:10070E00E9CF08F0EACF09F0E1CF0AF0E2CF0BF023
:10071E00D9CF0CF0DACF0DF0F3CF0EF0F4CF0FF0FF
:10072E00F6CF10F0F7CF11F0F8CF12F0F5CF13F09F
:10073E00F2A405D0F294120ED66E73EC06F0A1A2BE
:10074E0005D0A192EF0EB36E000EB26E9EA007D032
:10075E009E90000ECF6E000ECE6EDCEC06F09EB2BA
:10076E009E92F2A203D0F292E2EC06F0F0A003D039
:10077E00F090DFEC06F013C0F5FF12C0F8FF11C0C9
:10078E00F7FF10C0F6FF0FC0F4FF0EC0F3FF0DC051
:10079E00DAFF0CC0D9FF0BC0E2FF0AC0E1FF09C0AF
:1007AE00EAFF08C0E9FF07C0FBFF06C0FAFF62922E
:1007BE00110054C014F055C015F0000E176E640EE3
:1007CE00166E9CEC05F014C02DF015C02EF05CC01A
:1007DE0014F0156A020E176E8F0E166E88EC06F068
:1007EE0014502D24566E15502E20576E5D505826DF
:1007FE00000E5922000E5D6EA00E206E860E216E2A
:10080E00010E226E000E236E60C024F061C025F032
:10081E00266A276A6EEC04F020C02FF021C030F05B
:10082E002F50585C30505958D8A01200010E502647
:10083E00000E5122522253222F50585E3050595AD8
:10084E001200000E5A6E020E5A6401D0FAD75A5098
:10085E00040D020EF326000EF4223C0EF324D96E84
:10086E00000EF420DA6E5A50040D030EF326000E1D
:10087E00F4223C0EF324E16E000EF420E26EDE5004
:10088E00E65CD8A022D05A50040D3C0EF324D96E4B
:10089E00000EF420DA6E01D80AD00500FA6EDE5092
:1008AE00FD6EDE50FE6EF850FF6EFA5012005A507A
:1008BE00040D030EF326000EF4223C0EF324D96E23
:1008CE00000EF420DA6E000EDF6E5A2ABCD7000E30
:1008DE00286E000E296E000E2A6E000E2B6E24500E
:1008EE00251026102710D8B42AD0010E2C6E06D053
:1008FE00D89024362536263627362C2A27AEF8D71A
:10090E00D890283629362A362B362450205C25508E
:10091E0021582650225827502358D8A009D02450A9
:10092E00205E2550215A2650225A2750235A2880BD
:10093E00D89027322632253224322C2EE1D728C0E9
:10094E0020F029C021F02AC022F02BC023F0120083
:10095E00316E3104D8A404D0680E326E010E03D06D
:10096E00E10E326E000E336E000E346E000E356EDA
:10097E0060C014F061C015F0166A176A32C018F024
:10098E0033C019F034C01AF035C01BF047EC05F037
:10099E0014C020F015C021F016C022F017C023F0AD
:1009AE0056C024F057C025F0266A276A6EEC04F074
:1009BE0020C02FF021C030F02FC02DF030C02EF00F
:1009CE001200070E156ED00E146EC9EC06F0010E55
:1009DE00AFEC04F02DC036F02EC037F0B9EC06F0B7
:1009EE0014C038F015C039F038C014F039C015F005
:1009FE00000E176E0A0E166E88EC06F014C038F054
:100A0E0015C039F0383A393A0F0E38163950F00B06
:100A1E0038120F0E391636C01BF037C01CF0010EFF
:100A2E001D6E07EC03F01200030E16601200165036
:100A3E00040D3C0EF324D96E000EF420DA6E14C0B1
:100A4E00DEFF15C0DDFF1650040D020EF326000E5C
:100A5E00F4223C0EF324D96E000EF420DA6E17C089
:100A6E00DFFF1650040D030EF326000EF4223C0E8B
:100A7E00F324D96E000EF420DA6E000EDF6E120033
:100A8E00000E1C6E000E1D6E000E1E6E000E1F6EF2
:100A9E0014A008D018501C2619501D221A501E22C0
:100AAE001B501F22D890183619361A361B36D8907E
:100ABE001732163215321432145015101610171034
:100ACE00D8A4E6D71CC014F01DC015F01EC016F039
:100ADE001FC017F01200EDEC05F0C2EC06F0E6ECCC
:100AEE0006F0E7EC06F0B20E146E0D0E156E000E4B
:100AFE00166E140E176E1BEC05F0AC0E146E0D0E6A
:100B0E00156E020E166E640E176E1BEC05F0A60E19
:100B1E00146E0D0E156E010E166E320E176E1BEC48
:100B2E0005F028EC04F007EF00F0000E196E000E31
:100B3E00186E16501710D8B41CD0010E1A6E04D0B1
:100B4E00D890163617361A2A17AEFAD7D890183606
:100B5E0019361650145C17501558D8A005D01650DB
:100B6E00145E1750155A1880D890173216321A2E56
:100B7E00EDD718C014F019C015F012005FC016F0B2
:100B8E00080E176E000E186E162A03D0183418327F
:100B9E001732162EFBD71750FF0A146E000E43ECB9
:100BAE0006F05F50020D480EF324D96E000EF420AD
:100BBE00DA6EDF50146E010E9BEC06F05F2A040E07
:100BCE005F18D8A41200000E5F6E120093809382FD
:100BDE00F00EF26E080EF06ED10ED56E850ECD6E45
:100BEE009D0EB16EF18CF18AF294F28A9E909D80E8
:100BFE00A192A082130ED66E000ECF6E000ECE6E98
:100C0E00000EB26E000EB36E1200036E000E056E75
:100C1E00000E046E09D0CECF04F0CFCF05F0000E3B
:100C2E00CF6E000ECE6E0AD00350000AD8B4F3D7A2
:100C3E00010AD8B4F0D7030AD8B4EDD704C001F036
:100C4E0005C002F01200CA0EF66E0D0EF76E000E03
:100C5E00F86E0900F5CF60F00900F5CF61F000EEF7
:100C6E003CF0240EEE6AE806FDE162906292000E00
:100C7E00F86E000172EF05F0156E0FD08B50F00B71
:100C8E001410826E12008C50F00B1410836E120032
:100C9E008C50F00B1410836E12001550000AD8B44D
:100CAE00EDD7010AD8B4EFD7F3D75E50D8A40FD042
:100CBE00010E5E6E5D2A010E0CEC06F001C054F0C2
:100CCE0002C055F05BC05CF0000E5B6E12005D5012
:100CDE00D8B412005D061200000E016E020E016401
:100CEE0001D012000150040D030EF326000EF42263
:100CFE003C0EF324D96E000EF420DA6EDF2A012AA0
:100D0E00EDD714501602F3CF18F0F4CF19F014509B
:100D1E001702F350192615501602F350192618C053
:100D2E0014F019C015F01200156E09D014C082FF10
:100D3E00120014C083FF120014C083FF120015505E
:100D4E00000AD8B4F3D7010AD8B4F3D7F5D75E04A6
:100D5E00D8A403D0000E5E6E12005D50D8B41200FF
:100D6E005D06120050C014F051C015F052C016F0BE
:100D7E0053C017F01200000E956E000E836E000E1B
:100D8E00946E120014C060F015C061F01200400E97
:100D9E005B6012005B2A1200C5EC05F01200E8EC55
:100DAE0004F01200E0EC03F01200CEEC06F012009C
:100DBE005CEC06F01200AEEC06F01200C800120059
:020DCE00120011
:020000040020DA
:08000000FFFFFFFFFFFFFFFF00
:020000040030CA
:0E000000FF011F1EFF0185FF0FC00FE00F4024
:00000001FF
