:0400000007EF00F016
:0A000800618282ED03F066EF06F05E
:0D06000000FC60DAF266B6BEE0FEF6010016
:10060E001DC026F01EC027F0000E286E030E2864B3
:10061E0001D05CD026502710D8A404D028501F5CDF
:10062E00D8A02DD026C022F027C023F026C016F069
:10063E0027C017F0000E196E0A0E186EAFEC05F0FB
:10064E0016C026F017C027F026C016F027C017F0E8
:10065E00000E196E0A0E186EADEC06F0161E171E61
:10066E00164A172A22501624246E23501720256E60
:10067E00010E2424F66E060E2520F76E08D02850A3
:10068E001F5CD8A015D0010EF66E060EF76E080090
:10069E00F550206E216A2850020D4A0EF324D96EB1
:1006AE00000EF420DA6E20C0DEFF21C0DDFF0CD07C
:1006BE002850020D4A0EF324D96E000EF420DA6E85
:1006CE00000EDE6E000EDD6E282AA0D71F50D8B4A5
:1006DE0012001F50020D4A0EF324D96E000EF420A4
:1006EE00DA6E0B0EF66E060EF76E0800F550DE1281
:1006FE00000EDD1212000600FACF08F0FBCF09F053
:10070E00E9CF0AF0EACF0BF0E1CF0CF0E2CF0DF01B
:10071E00D9CF0EF0DACF0FF0F3CF10F0F4CF11F0F7
:10072E00F6CF12F0F7CF13F0F8CF14F0F5CF15F097
:10073E00F2A405D0F294120ED66E98EC06F0A1A299
:10074E0005D0A192EF0EB36E000EB26E9EA007D032
:10075E009E90000ECF6E000ECE6E14EC07F09EB281
:10076E009E92F2A203D0F2921AEC07F0F0A003D000
:10077E00F09017EC07F015C0F5FF14C0F8FF13C08A
:10078E00F7FF12C0F6FF11C0F4FF10C0F3FF0FC049
:10079E00DAFF0EC0D9FF0DC0E2FF0CC0E1FF0BC0A7
:1007AE00EAFF0AC0E9FF09C0FBFF08C0FAFF619229
:1007BE001100000E5A6E020E5A6401D0FAD75A502A
:1007CE00040D020EF326000EF4223E0EF324D96E13
:1007DE00000EF420DA6E5A50040D030EF326000EAE
:1007EE00F4223E0EF324E16E000EF420E26EDE5093
:1007FE00E65CD8A022D05A50040D3E0EF324D96EDA
:10080E00000EF420DA6E01D80AD00500FA6EDE5022
:10081E00FD6EDE50FE6EF850FF6EFA5012005A500A
:10082E00040D030EF326000EF4223E0EF324D96EB1
:10083E00000EF420DA6E000EDF6E5A2ABCD7000EC0
:10084E002A6E000E2B6E000E2C6E000E2D6E265094
:10085E00271028102910D8B42AD0010E2E6E06D0DB
:10086E00D89026362736283629362E2A29AEF8D79E
:10087E00D8902A362B362C362D362650225C275011
:10088E0023582850245829502558D8A009D026502E
:10089E00225E2750235A2850245A2950255A2A803E
:1008AE00D89029322832273226322E2EE1D72AC06E
:1008BE0022F02BC023F02CC024F02DC025F0120006
:1008CE00336E3304D8A404D0680E346E010E03D0F8
:1008DE00E10E346E000E356E000E366E000E376E63
:1008EE005FC016F060C017F0186A196A34C01AF0AB
:1008FE0035C01BF036C01CF037C01DF05AEC05F0A9
:10090E0016C022F017C023F018C024F019C025F02D
:10091E0056C026F057C027F0286A296A26EC04F044
:10092E0022C031F023C032F031C02FF032C030F08F
:10093E001200070E176ED00E166E01EC07F0010EA8
:10094E0067EC04F02FC038F030C039F0F1EC06F04F
:10095E0016C03AF017C03BF03AC016F03BC017F085
:10096E00000E196E0A0E186EADEC06F016C03AF0B7
:10097E0017C03BF03A3A3B3A0F0E3A163B50F00B8B
:10098E003A120F0E3B1638C01DF039C01EF0010E84
:10099E001F6E07EC03F012005D50D8A428D0010E94
:1009AE005D6E5C2A010E48EC06F001C056F002C0E6
:1009BE0057F056C001F057C002F0000E046E640EE0
:1009CE00036ED8EC05F001C056F002C057F05BC0C4
:1009DE0001F0026A020E046E8F0E036ED3EC06F067
:1009EE000150562602505722000E5B6E12005C50CC
:1009FE00D8B412005C061200030E186012001850D4
:100A0E00040D3E0EF324D96E000EF420DA6E16C0DD
:100A1E00DEFF17C0DDFF1850040D020EF326000E88
:100A2E00F4223E0EF324D96E000EF420DA6E19C0B5
:100A3E00DFFF1850040D030EF326000EF4223E0EB7
:100A4E00F324D96E000EF420DA6E000EDF6E120063
:100A5E005C505826000E5922000E5C6EA00E226EBF
:100A6E00860E236E010E246E000E256E5FC026F0DC
:100A7E0060C027F0286A296A26EC04F022C02FF005
:100A8E0023C030F02F50585C30505958D8A0120067
:100A9E00010E5226000E5322542255222F50585E1C
:100AAE003050595A1200000E1E6E000E1F6E000EB0
:100ABE00206E000E216E16A008D01A501E261B5056
:100ACE001F221C5020221D502122D8901A361B3670
:100ADE001C361D36D890193218321732163216506F
:100AEE00171018101910D8A4E6D71EC016F01FC084
:100AFE0017F020C018F021C019F0120029EC06F0F2
:100B0E00FAEC06F01EEC07F01FEC07F0220E166E44
:100B1E000E0E176E000E186E140E196E03EC05F005
:100B2E001C0E166E0E0E176E020E186E640E196ED9
:100B3E0003EC05F0160E166E0E0E176E010E186EE5
:100B4E00320E196E03EC05F0E0EC03F007EF00F047
:100B5E00000E1B6E000E1A6E18501910D8B41CD051
:100B6E00010E1C6E04D0D890183619361C2A19AEF8
:100B7E00FAD7D8901A361B361850165C19501758DB
:100B8E00D8A005D01850165E1950175A1A80D89052
:100B9E00193218321C2EEDD71AC016F01BC017F0E2
:100BAE001200000E066E000E056E03500410D8B42F
:100BBE001CD0010E076E04D0D89003360436072AD7
:100BCE0004AEFAD7D890053606360350015C0450B1
:100BDE000258D8A005D00350015E0450025A058079
:100BEE00D89004320332072EEDD705C001F006C0AF
:100BFE0002F012005EC018F0080E196E000E1A6E8A
:100C0E00182A03D01A341A321932182EFBD719505B
:100C1E00FF0A166E000E7FEC06F05E50020D4A0EB5
:100C2E00F324D96E000EF420DA6EDF50166E010E2C
:100C3E00C0EC06F05E2A040E5E18D8A41200000E58
:100C4E005E6E120093809382F00EF26E080EF06EBE
:100C5E00D10ED56E850ECD6E9D0EB16EF18CF18AD4
:100C6E00F294F28A9E909D80A192A082130ED66E6F
:100C7E00000ECF6E000ECE6E000EB26E000EB36E74
:100C8E001200036E000E056E000E046E09D0CECF5C
:100C9E0004F0CFCF05F0000ECF6E000ECE6E0AD050
:100CAE000350000AD8B4F3D7010AD8B4F0D7030A18
:100CBE00D8B4EDD704C001F005C002F012003A0E10
:100CCE00F66E0E0EF76E000EF86E0900F5CF5FF0A1
:100CDE000900F5CF60F000EE3EF0210EEE6AE80658
:100CEE00FDE161906192000EF86E000185EF05F056
:100CFE00176E0FD08B50F00B1610826E12008C50A8
:100D0E00F00B1610836E12008C50F00B1610836EC3
:100D1E0012001750000AD8B4EDD7010AD8B4EFD795
:100D2E00F3D7000E016E020E016401D012000150C5
:100D3E00040D030EF326000EF4223E0EF324D96E9C
:100D4E00000EF420DA6EDF2A012AEDD716501802B3
:100D5E00F3CF1AF0F4CF1BF016501902F3501B26E6
:100D6E0017501802F3501B261AC016F01BC017F0AE
:100D7E001200176E09D016C082FF120016C083FF34
:100D8E00120016C083FF12001750000AD8B4F3D712
:100D9E00010AD8B4F3D7F5D701500302F3CF05F00B
:100DAE00F4CF06F001500402F3500626025003025F
:100DBE00F350062605C001F006C002F012005D04D5
:100DCE00D8A403D0000E5D6E12005C50D8B4120091
:100DDE005C06120052C016F053C017F054C018F043
:100DEE0055C019F01200000E956E000E836E000EA7
:100DFE00946E120016C05FF017C060F01200400E25
:100E0E005B6012005B2A120001EC06F01200A0ECEF
:100E1E0004F012002FEC05F0120006EC07F01200A1
:100E2E00D3EC04F01200E6EC06F01200C80012003B
:020E3E001200A0
:020000040020DA
:08000000FFFFFFFFFFFFFFFF00
:020000040030CA
:0E000000FF011F1EFF0185FF0FC00FE00F4024
:00000001FF
