:0400000007EF00F016
:0A0008006C8216ED06F0D1EF08F04F
:10060000000F0004000400640010000400040064F3
:0D06100000FC60DAF266B6BEE0FEF6010006
:10061E00506E5050030D300EF324D96E000EF420A0
:10062E00DA6EDF507F0B4E6E5050080D010EF32424
:10063E00F66E060EF420F76E0800F55003EC09F086
:10064E004F6EF2D15050080D010EF326000EF4221B
:10065E00010EF324F66E060EF420F76E0800F55028
:10066E004F18D8A459D05050030D010EF326000E8A
:10067E00F422300EF324D96E000EF420DA6EDE2A48
:10068E00000EDD225050030D010EF326000EF42253
:10069E00300EF324D96E000EF420DA6E5050080D91
:1006AE00040EF326000EF422010EF324F66E060E4F
:1006BE00F420F76EDE500900F51804E1DE50090053
:1006CE00F518D8A412005050030D300EF324D96E35
:1006DE00000EF420DA6E810EDF6E5050080D020E01
:1006EE00F326000EF422010EF324F66E060EF4200D
:1006FE00F76E5050030D010EF326000EF422300E4D
:10070E00F324D96E000EF420DA6E0900F5CFDEFF69
:10071E000800F5CFDDFF12005050030D010EF32639
:10072E00000EF422300EF324D96E000EF420DA6E91
:10073E00000EDE6E000EDD6E12005050080D010E22
:10074E00F326000EF422010EF324F66E060EF420AC
:10075E00F76E0800F5504F18D8A498D05050080DD9
:10076E00020EF326000EF422010EF324F66E060E90
:10077E00F420F76E5050030D010EF326000EF422F6
:10078E00300EF324D96E000EF420DA6E0900F55007
:10079E00DE5C0900F550DE58D8A059D05050030D3C
:1007AE00010EF326000EF422300EF324D96E000E45
:1007BE00F420DA6EDE2A000EDD225050030D010EFB
:1007CE00F326000EF422300EF324D96E000EF42020
:1007DE00DA6E5050080D060EF326000EF422010EAE
:1007EE00F324F66E060EF420F76EDE500900F518AF
:1007FE0004E1DE500900F518D8A412005050030D84
:10080E00300EF324D96E000EF420DA6E820EDF6EF7
:10081E005050080D020EF326000EF422010EF324A2
:10082E00F66E060EF420F76E5050030D010EF326F1
:10083E00000EF422300EF324D96E000EF420DA6E80
:10084E000900F5CFDEFF0800F5CFDDFF1200505096
:10085E00080D020EF326000EF422010EF324F66E9E
:10086E00060EF420F76E5050030D010EF326000E07
:10087E00F422300EF324D96E000EF420DA6E090045
:10088E00F5CFDEFF0800F5CFDDFF12005050030D4F
:10089E00010EF326000EF422300EF324D96E000E54
:1008AE00F420DA6E5050080D020EF326000EF422DC
:1008BE00010EF324F66E060EF420F76EDE500900DC
:1008CE00F55CDE500900F558D8B01FD05050080D19
:1008DE00020EF326000EF422010EF324F66E060E1F
:1008EE00F420F76E5050030D010EF326000EF42285
:1008FE00300EF324D96E000EF420DA6E0900F5CF17
:10090E00DEFF0800F5CFDDFF12005050030D010E83
:10091E00F326000EF422300EF324D96E000EF420CE
:10092E00DA6EDE06000EDD5A5050030D010EF32670
:10093E00000EF422300EF324D96E000EF420DA6E7F
:10094E00DE50DE10D8A412005050030D300EF324EA
:10095E00D96E000EF420DA6E800EDF6E120050504B
:10096E00080D010EF326000EF422010EF324F66E8E
:10097E00060EF420F76E0800F5504F18D8A41FD0BD
:10098E005050080D020EF326000EF422010EF32431
:10099E00F66E060EF420F76E5050030D010EF32680
:1009AE00000EF422300EF324D96E000EF420DA6E0F
:1009BE000900F5CFDEFF0800F5CFDDFF1200505025
:1009CE00030D010EF326000EF422300EF324D96E21
:1009DE00000EF420DA6EDE06000EDD5A5050030DC6
:1009EE00010EF326000EF422300EF324D96E000E03
:1009FE00F420DA6EDE50DE10D8A412005050030D33
:100A0E00300EF324D96E000EF420DA6E800EDF6EF7
:100A1E0012005050030D300EF324D96E000EF42048
:100A2E00DA6E000EDF6E12004E50000AD8B40AD6EF
:100A3E00010AD8B482D6030AD8B491D7EAD751C0E6
:100A4E005AF052C05BF0000E5C6E030E5C6401D077
:100A5E005CD05A505B10D8A404D05C50535CD8A024
:100A6E002DD05AC056F05BC057F05AC04AF05BC04A
:100A7E004BF0000E4D6E0A0E4C6E6BEC08F04AC039
:100A8E005AF04BC05BF05AC04AF05BC04BF0000E00
:100A9E004D6E0A0E4C6E5DEC09F04A1E4B1E4A4A14
:100AAE004B2A56504A24586E57504B20596E110EF1
:100ABE005824F66E060E5920F76E08D05C50535C23
:100ACE00D8A015D0110EF66E060EF76E0800F55072
:100ADE00546E556A5C50020D110EF324D96E000E41
:100AEE00F420DA6E54C0DEFF55C0DDFF0CD05C5032
:100AFE00020D110EF324D96E000EF420DA6E000EE4
:100B0E00DE6E000EDD6E5C2AA0D75350D8B41200F4
:100B1E005350020D110EF324D96E000EF420DA6E2E
:100B2E001B0EF66E060EF76E0800F550DE12000E66
:100B3E00DD121200080E4B6E080E4A6EB5EC09F06F
:100B4E00010E74EC06F063C087F064C088F0A6EC6A
:100B5E0009F04AC089F04BC08AF089C04AF08AC0B9
:100B6E004BF0000E4D6E0A0E4C6E5DEC09F04AC055
:100B7E0089F04BC08AF00001893B8A3B0F0E891722
:100B8E008A51F00B89130F0E8A1787C051F088C057
:100B9E0052F0010E536E26EC05F023502410D8A40B
:100BAE000FD0000E1AEC09F000018B6F820E0001BF
:100BBE008B19D8A41200000E246E010E236E1200A3
:100BCE00640E4A6E2550AFEC09F0000E1AEC09F0D7
:100BDE0000018B6F810E00018B19D8A40CD0254A11
:100BEE00262A040E25182610D8A41200000E266EF2
:100BFE00000E256E1200010E1AEC09F000018B6F2B
:100C0E00820E00018B19D8A41200000E4A6E010E3E
:100C1E00AFEC09F0000E246E000E236E12000600DB
:100C2E00FACF3CF0FBCF3DF0E9CF3EF0EACF3FF0FC
:100C3E00E1CF40F0E2CF41F0D9CF42F0DACF43F02E
:100C4E00F3CF44F0F4CF45F0F6CF46F0F7CF47F0B0
:100C5E00F8CF48F0F5CF49F0F2A405D0F294120E79
:100C6E00D66E48EC09F0A1A205D0A192EF0EB36E9C
:100C7E00000EB26E9EA007D09E90000ECF6E000E9C
:100C8E00CE6ED0EC09F09EB29E92F2A203D0F292FA
:100C9E00D6EC09F0F0A003D0F090D3EC09F049C0E7
:100CAE00F5FF48C0F8FF47C0F7FF46C0F6FF45C046
:100CBE00F4FF44C0F3FF43C0DAFF42C0D9FF41C086
:100CCE00E2FF40C0E1FF3FC0EAFF3EC0E9FF3DC08A
:100CDE00FBFF3CC0FAFF6C9211000001806F000E0A
:100CEE000001866F000E856F00018005D8A405D027
:100CFE00680E0001816F010E04D0E10E0001816FBC
:100D0E00000E826F000E836F000E846F1F50201036
:100D1E00D8B424D069C04AF06AC04BF04C6A4D6A10
:100D2E0081C04EF082C04FF083C050F084C051F0AD
:100D3E0040EC08F04AC056F04BC057F04CC058F08B
:100D4E004DC059F01FC05AF020C05BF05C6A5D6A5E
:100D5E009DEC07F056C085F057C086F0400E28185F
:100D6E00D8A405D0000E0001866F000E856F85C0D9
:100D7E0063F086C064F01200000E4F6E2E50D8B491
:100D8E000AD02C2A2E502C18D8A407D0010E2D1ABA
:100D9E00000E2C6E02D0000E2D6E2D04D8A407D09E
:100DAE002F503618D8A403D00F0E4E6E1AD03628F8
:100DBE0000084C6E040E4C26010E4D6E4C2A02D0CD
:100DCE00D8904D364C2EFCD74D50FF0A4E6E3650F5
:100DDE00020D110EF324D96E000EF420DA6EDF50E0
:100DEE004F6E6B04D8A402D04E1E4F1E4EC04AF05A
:100DFE00000EEAEC08F04FC04AF0010E70EC09F05C
:100E0E00362A040E3618D8A41200000E366E1200C2
:100E1E001DC04AF01EC04BF0000E4D6E640E4C6E9F
:100E2E006BEC08F04AC063F04BC064F029C04AF086
:100E3E004B6A020E4D6E8F0E4C6E5DEC09F04A50F1
:100E4E0063241F6E4B506420206E2A502126000E04
:100E5E002222000E2A6EA00E566E860E576E010EC0
:100E6E00586E000E596E69C05AF06AC05BF05C6A2B
:100E7E005D6A9DEC07F056C065F057C066F0655090
:100E8E00215C66502258D8A01200010E1926000EC1
:100E9E001A221B221C226550215E6650225A120015
:100EAE00000E276E030E276401D0FAD72750040DCB
:100EBE00020EF326000EF422010EF324D96E000E5C
:100ECE00F420DA6E2750040D030EF326000EF422E2
:100EDE00010EF324E16E000EF420E26EDE50E65CAD
:100EEE00D8A022D02750040D010EF324D96E000E87
:100EFE00F420DA6E01D80AD00500FA6EDE50FD6ECF
:100F0E00DE50FE6EF850FF6EFA5012002750040DA0
:100F1E00030EF326000EF422010EF324D96E000EFA
:100F2E00F420DA6E000EDF6E272ABCD7000E5E6E3E
:100F3E00000E5F6E000E606E000E616E5A505B10FA
:100F4E005C105D10D8B42AD0010E626E06D0D89017
:100F5E005A365B365C365D36622A5DAEF8D7D8906F
:100F6E005E365F36603661365A50565C5B50575867
:100F7E005C5058585D505958D8A009D05A50565EFA
:100F8E005B50575A5C50585A5D50595A5E80D890F3
:100F9E005D325C325B325A32622EE1D75EC056F061
:100FAE005FC057F060C058F061C059F0120094EC69
:100FBE0008F083EC09F0DAEC09F0DBEC09F0010E35
:100FCE00C3EC09F09A0E4A6E130E4B6E000E4C6E69
:100FDE00140E4D6E14EC08F0940E4A6E130E4B6EFA
:100FEE00020E4C6E640E4D6E14EC08F08E0E4A6EB0
:100FFE00130E4B6E010E4C6E040E4D6E14EC08F07B
:10100E00200E4A6E130E4B6E030E4C6E0A0E4D6E74
:10101E0014EC08F057EC07F01200040E4C601200AE
:10102E004C50040D010EF324D96E000EF420DA6E2E
:10103E004AC0DEFF4BC0DDFF4C50040D020EF326FE
:10104E00000EF422010EF324D96E000EF420DA6E97
:10105E004DC0DFFF4C50040D030EF326000EF4229C
:10106E00010EF324D96E000EF420DA6E000EDF6E40
:10107E001200000E526E000E536E000E546E000ED5
:10108E00556E4AA008D04E5052264F505322505003
:10109E00542251505522D8904E364F365036513636
:1010AE00D8904D324C324B324A324A504B104C1083
:1010BE004D10D8A4E6D752C04AF053C04BF054C0DE
:1010CE004CF055C04DF01200000E506E000E4F6EDB
:1010DE004C504D10D8B41CD0010E4E6E04D0D8908A
:1010EE004C364D364E2A4DAEFAD7D8904F36503636
:1010FE004C504A5C4D504B58D8A005D04C504A5ECF
:10110E004D504B5A4F80D8904D324C324E2EEDD71B
:10111E004FC04AF050C04BF0120093809382F00EF5
:10112E00F26E080EF06ED10ED56E850ECD6E9D0E42
:10113E00B16EF18CF18AF294F28A9E909D80A1920A
:10114E00A082130ED66E000ECF6E000ECE6E000E67
:10115E00B26E000EB36E1200396E000E3B6E000EB4
:10116E003A6E09D0CECF3AF0CFCF3BF0000ECF6E15
:10117E00000ECE6E0AD03950000AD8B4F3D7010A49
:10118E00D8B4F0D7030AD8B4EDD73AC037F03BC085
:10119E0038F01200B20EF66E130EF76E000EF86EE9
:1011AE000900F5CF69F00900F5CF6AF000EE01F005
:1011BE00360EEE6AE806FDE16C906C92000EF86E4B
:1011CE000001BFEF09F04B6E0FD08B50F00B4A10A1
:1011DE00826E12008C50F00B4A10836E12008C50EF
:1011EE00F00B4A10836E12004B50000AD8B4EDD7A4
:1011FE00010AD8B4EFD7F3D74A6E0BD0000E81B4E4
:10120E00010E05D0000E81B6010E01D0000E4B6E00
:10121E0008D04A500F0AD8B4F1D71F0AD8B4F2D763
:10122E00F5D74B5012004B6E4B50030D300EF3247E
:10123E00D96E000EF420DA6EDF504A6E4B50030D5D
:10124E00300EF324D96E000EF420DA6E7F0EDF1608
:10125E004A5012002B50D8A40FD0010E2B6E2A2A02
:10126E00010EB3EC08F037C01DF038C01EF028C0D8
:10127E0029F0000E286E12002A50D8B412002A0649
:10128E001200000E376E030E376401D01200375075
:10129E00040D030EF326000EF422010EF324D96E74
:1012AE00000EF420DA6EDF2A372AEDD74A504C02B0
:1012BE00F3CF4EF0F4CF4FF04A504D02F3504F267D
:1012CE004B504C02F3504F264EC04AF04FC04BF0DD
:1012DE0012004B6E09D04AC082FF12004AC083FF33
:1012EE0012004AC083FF12004B50000AD8B4F3D745
:1012FE00010AD8B4F3D7F5D7000E956E000E836EA3
:10130E00000E946E938493869398939A939C939ED7
:10131E001200000E516E010E516401D01200515098
:10132E000FEC03F0512AF7D72B04D8A403D0000EEC
:10133E002B6E12002A50D8B412002A06120019C0C1
:10134E004AF01AC04BF01BC04CF01CC04DF01200FE
:10135E004B6E4BC02FF04AC02EF012004AC069F0FF
:10136E004BC06AF01200400E28601200282A1200AC
:10137E00DEEC07F007EF00F04A6E4AC06BF0120089
:10138E00C3EC06F01200A1EC05F012000FEC07F012
:10139E001200BAEC09F0120031EC09F012009BECCD
:0A13AE0009F01200C800120012003E
:020000040020DA
:08000000FFFFFFFFFFFFFFFF00
:020000040030CA
:0E000000FF011F1EFF0185FF0FC00FE00F4024
:00000001FF
