:0400000007EF00F016
:0A000800688267ED07F056EF0AF07A
:1006000000EE3E9C7A9E8EF62E0C780000000000D4
:10061000000000B600007C000000000F000600068D
:1006200000640010000600060064001100060006C9
:0F063000006400FC60DAF266B6BEE0FEF6010080
:100640001A6E1A50030D5B0EF324D96E000EF420BF
:10065000DA6EDF503F0B186E1A50080D1B0EF32494
:10066000F66E060EF420F76E0800F55094EC0AF0D2
:10067000196EF2D11A50080D010EF326000EF42265
:100680001B0EF324F66E060EF420F76E0800F550EC
:100690001918D8A459D01A50030D010EF326000ED4
:1006A000F4225B0EF324D96E000EF420DA6EDE2AFB
:1006B000000EDD221A50030D010EF326000EF42267
:1006C0005B0EF324D96E000EF420DA6E1A50080D7A
:1006D000040EF326000EF4221B0EF324F66E060E13
:1006E000F420F76EDE500900F51804E1DE50090031
:1006F000F518D8A412001A50030D5B0EF324D96E1E
:10070000000EF420DA6E810EDF6E1A50080D020E14
:10071000F326000EF4221B0EF324F66E060EF420D0
:10072000F76E1A50030D010EF326000EF4225B0E35
:10073000F324D96E000EF420DA6E0900F5CFDEFF47
:100740000800F5CFDDFF12001A50030D010EF3264D
:10075000000EF4225B0EF324D96E000EF420DA6E44
:10076000000EDE6E000EDD6E12001A50080D010E36
:10077000F326000EF4221B0EF324F66E060EF42070
:10078000F76E0800F5501918D8A498D01A50080D23
:10079000020EF326000EF4221B0EF324F66E060E54
:1007A000F420F76E1A50030D010EF326000EF4220A
:1007B0005B0EF324D96E000EF420DA6E0900F550BA
:1007C000DE5C0900F550DE58D8A059D01A50030D50
:1007D000010EF326000EF4225B0EF324D96E000EF8
:1007E000F420DA6EDE2A000EDD221A50030D010E0F
:1007F000F326000EF4225B0EF324D96E000EF420D3
:10080000DA6E1A50080D060EF326000EF4221B0EA7
:10081000F324F66E060EF420F76EDE500900F5188C
:1008200004E1DE500900F518D8A412001A50030D97
:100830005B0EF324D96E000EF420DA6E820EDF6EAA
:100840001A50080D020EF326000EF4221B0EF3249C
:10085000F66E060EF420F76E1A50030D010EF32605
:10086000000EF4225B0EF324D96E000EF420DA6E33
:100870000900F5CFDEFF0800F5CFDDFF12001A50AA
:10088000080D020EF326000EF4221B0EF324F66E62
:10089000060EF420F76E1A50030D010EF326000E1B
:1008A000F4225B0EF324D96E000EF420DA6E0900F8
:1008B000F5CFDEFF0800F5CFDDFF12001A50030D63
:1008C000010EF326000EF4225B0EF324D96E000E07
:1008D000F420DA6E1A50080D020EF326000EF422F0
:1008E0001B0EF324F66E060EF420F76EDE500900A0
:1008F000F55CDE500900F558D8B01FD01A50080D2D
:10090000020EF326000EF4221B0EF324F66E060EE2
:10091000F420F76E1A50030D010EF326000EF42298
:100920005B0EF324D96E000EF420DA6E0900F5CFC9
:10093000DEFF0800F5CFDDFF12001A50030D010E97
:10094000F326000EF4225B0EF324D96E000EF42081
:10095000DA6EDE06000EDD5A1A50030D010EF32684
:10096000000EF4225B0EF324D96E000EF420DA6E32
:10097000DE50DE10D8A412001A50030D5B0EF324D3
:10098000D96E000EF420DA6E400EDF6E12001A509F
:10099000080D010EF326000EF4221B0EF324F66E52
:1009A000060EF420F76E0800F5501918D8A41FD0D1
:1009B0001A50080D020EF326000EF4221B0EF3242B
:1009C000F66E060EF420F76E1A50030D010EF32694
:1009D000000EF4225B0EF324D96E000EF420DA6EC2
:1009E0000900F5CFDEFF0800F5CFDDFF12001A5039
:1009F000030D010EF326000EF4225B0EF324D96ED4
:100A0000000EF420DA6EDE06000EDD5A1A50030DD9
:100A1000010EF326000EF4225B0EF324D96E000EB5
:100A2000F420DA6EDE50DE10D8A412001A50030D46
:100A30005B0EF324D96E000EF420DA6E800EDF6EAA
:100A400012001A50030D5B0EF324D96E000EF42031
:100A5000DA6E000EDF6E12001850000AD8B40AD603
:100A6000010AD8B482D6030AD8B491D7EAD764C0B1
:100A700014F065C015F0C8EC0BF0010E16EC08F090
:100A80002DC0D2F02EC0D3F0B7EC0BF014C0D5F0CF
:100A900015C0D6F016C0D7F017C0D8F0D5C014F0E6
:100AA000D6C015F0D7C016F0D8C017F00A0E186ED1
:100AB000000E196E000E1A6E000E1B6EC1EC09F0CE
:100AC00014C0D5F015C0D6F016C0D7F017C0D8F0B6
:100AD000040E366ED8900001D833D733D633D533D1
:100AE000362EF8D75A50D8A4120045504610D8A434
:100AF0001BD0D2C01BF0D3C01CF0000E1D6E010E27
:100B00001E6E010E1F6ECBEC06F0000E00EC0BF01B
:100B10000001D96F820E0001D919D8A41200000E6D
:100B2000466E010E456E120064C01BF065C01CF0DD
:100B3000010E1D6E000E1E6E000E1F6ECBEC06F039
:100B4000010E146E640E156E4750C0EC0BF0000ED3
:100B500000EC0BF00001D96F400E0001D919D8A4A8
:100B60000CD0474A482A040E47184810D8A412004F
:100B7000000E486E000E476E1200010E00EC0BF0E6
:100B80000001D96F020E00EC0BF00001D46F820E51
:100B90000001D919D8A419D0640E146E000E156E78
:100BA000020E166E000E176E000E186E010E64EC2B
:100BB00009F0010E146E000E156E010EC0EC0BF064
:100BC000000E466E000E456E1200400E0001D9194F
:100BD000D8A40FD064C01BF065C01CF047C01DF046
:100BE000000E1E6E0DEC06F01BC064F01CC065F01C
:100BF0001200400E0001D419D8A4120064C01BF0EA
:100C000065C01CF047C01DF0010E1E6E0DEC06F015
:100C10001BC064F01CC065F01200000E236E000EB5
:100C2000226E000E266E010E256E000E2B6E030E38
:100C30002B6401D030D01B501C10D8B420D01BC066
:100C400020F01CC021F01BC014F01CC015F0000ED9
:100C5000176E0A0E166EECEC09F014C01BF015C0EE
:100C60001CF02B50010D270EF324D96E000EF4203A
:100C7000DA6E1B500A0DF3500008202409D02B50C7
:100C8000010D270EF324D96E000EF420DA6E000E4B
:100C9000DF6E2B2ACCD71E50D8A41FD01D50010DBB
:100CA000270EF324D96E000EF420DA6EDF50D8A49C
:100CB0000AD01D50010D270EF324D96E000EF4202A
:100CC000DA6E090E1FD01D50010D270EF324D96EC8
:100CD000000EF420DA6EDF0620D01D50010D270E25
:100CE000F324D96E000EF420DA6E090EDE18D8A4B3
:100CF0000BD01D50010D270EF324D96E000EF420E9
:100D0000DA6E000EDF6E09D01D50010D270EF324A0
:100D1000D96E000EF420DA6EDF2A000E2B6E030E61
:100D20002B6401D033D0000E246E0FD025C014F0F8
:100D300026C015F0000E176E0A0E166E6BEC0BF047
:100D400014C025F015C026F0242A2B50245CD8A00E
:100D5000EDD72B50010D270EF324D96E000EF42091
:100D6000DA6EDF501F6E1F50146E156A25C016F024
:100D700026C017F06BEC0BF01450222615502322DE
:100D8000000E266E010E256E2B2AC9D722C01BF03D
:100D900023C01CF012001BC028F01CC029F0000E5C
:100DA0002A6E030E2A6401D073D028502910D8A4CB
:100DB00004D02A501E5CD8A02DD028C024F029C011
:100DC00025F028C014F029C015F0000E176E0A0E89
:100DD000166EECEC09F014C028F015C029F028C0FC
:100DE00014F029C015F0000E176E0A0E166E6BEC8B
:100DF0000BF0141E151E144A152A24501424266EB6
:100E000025501520276E330E2624F66E060E272059
:100E1000F76E0BD02A501E5CD8B003D01F50D8A458
:100E20001FD0330EF66E060EF76E0800F550206EDA
:100E3000216A1D50080DC20E226E000E236EF35063
:100E40002226F45023222A50020DF3502224D96E78
:100E5000F4502320DA6E20C0DEFF21C0DDFF16D063
:100E60001D50080DC20E206E000E216EF35020267C
:100E7000F45021222A50020DF3502024D96EF45050
:100E80002120DA6E000EDE6E000EDD6E2A2A89D772
:100E90001E50D8B412001D50080DC20E206E000E58
:100EA000216EF3502026F45021221E50020DF350E3
:100EB0002024D96EF4502120DA6E3D0EF66E060E17
:100EC000F76E0800F550DE12000EDD12120006006B
:100ED000FACF06F0FBCF07F0E9CF08F0EACF09F030
:100EE000E1CF0AF0E2CF0BF0D9CF0CF0DACF0DF062
:100EF000F3CF0EF0F4CF0FF0F6CF10F0F7CF11F0E4
:100F0000F8CF12F0F5CF13F0F2A405D0F294120E40
:100F1000D66E2EEC0BF0A1A205D0A192EF0EB36E0F
:100F2000000EB26E9EA007D09E90000ECF6E000EF7
:100F3000CE6EE3EC0BF09EB29E92F2A203D0F29240
:100F4000E9EC0BF0F0A003D0F090E6EC0BF013C04E
:100F5000F5FF12C0F8FF11C0F7FF10C0F6FF0FC079
:100F6000F4FF0EC0F3FF0DC0DAFF0CC0D9FF0BC0B9
:100F7000E2FF0AC0E1FF09C0EAFF08C0E9FF07C0BD
:100F8000FBFF06C0FAFF689211005750D8B40AD090
:100F9000532A57505318D8A407D0010E551A000EE3
:100FA000536E02D0000E556E5504D8A40AD0585086
:100FB0005418D8A406D052505618D8A402D0000E07
:100FC00013D05250080DC20E166E000E176EF3505D
:100FD0001626F45017225450020DF3501624D96EE1
:100FE000F4501720DA6EDF50196E5904D8B4191E68
:100FF0005250040DF3505424186E18C014F0000E13
:10100000D0EC0AF019C014F0010E7EEC0BF0542A5B
:10101000040E5418D8A41200000E546E522A020E68
:101020005218D8A41200000E526E12002F6E000E3D
:10103000356E000E346E2F04D8A404D0680E306EC6
:10104000010E03D0E10E306E000E316E000E326ED6
:10105000000E336E3F504010D8B424D066C014F058
:1010600067C015F0166A176A30C018F031C019F061
:1010700032C01AF033C01BF0C1EC09F014C020F0EC
:1010800015C021F016C022F017C023F03FC024F095
:1010900040C025F0266A276AEDEC08F020C034F045
:1010A00021C035F0400E4A18D8A404D0000E356E89
:1010B000000E346E34C02DF035C02EF012003DC04D
:1010C00014F03EC015F0000E176E640E166EECECB8
:1010D00009F014C02DF015C02EF04BC014F0156AA5
:1010E000020E176E8F0E166E6BEC0BF014502D2443
:1010F0003F6E15502E20406E4C504126000E42226D
:10110000000E4C6EA00E206E860E216E010E226E19
:10111000000E236E66C024F067C025F0266A276A99
:10112000EDEC08F020C02FF021C030F02F50415CD2
:1011300030504258D8A01200010E3926000E3A2233
:101140003B223C222F50415E3050425A1200000E8A
:10115000496E030E496401D0FAD74950040D020EBE
:10116000F326000EF422B20EF324D96E000EF42002
:10117000DA6E4950040D030EF326000EF422B20E6F
:10118000F324E16E000EF420E26EDE50E65CD8A09F
:1011900022D04950040DB20EF324D96E000EF42073
:1011A000DA6E01D80AD00500FA6EDE50FD6EDE5010
:1011B000FE6EF850FF6EFA5012004950040D030EF7
:1011C000F326000EF422B20EF324D96E000EF420A2
:1011D000DA6E000EDF6E492ABCD7000E286E000EB4
:1011E000296E000E2A6E000E2B6E2450251026103C
:1011F0002710D8B42AD0010E2C6E06D0D8902436F1
:101200002536263627362C2A27AEF8D7D89028360A
:1012100029362A362B362450205C2550215826505A
:10122000225827502358D8A009D02450205E25509A
:10123000215A2650225A2750235A2880D8902732E4
:101240002632253224322C2EE1D728C020F029C0A6
:1012500021F02AC022F02BC023F0120075EC0AF016
:101260009FEC0BF0EDEC0BF043EC0BF0010ED6EC29
:101270000BF0C00E146E170E156E000E166E140EC7
:10128000176E95EC09F0BA0E146E170E156E020E5D
:10129000166E640E176E95EC09F0B40E146E170EF0
:1012A000156E010E166E020E176E95EC09F0220EE9
:1012B000146E170E156E030E166E0A0E176E95EC51
:1012C00009F0A7EC08F012001A6E5150D8A42AD0E9
:1012D000330E166027D0010E516E000E1B6E13D018
:1012E0001B50010DF3501424D96EF4501520DA6E02
:1012F0001B50010D800EF324E16E000EF420E26E0F
:10130000DFCFE7FF1B2A16501B5CD8A0E9D716C019
:101310004FF01AC050F017C043F018C044F0010E4F
:10132000196E1200000E196E1200040E16601200E3
:101330001650040DB20EF324D96E000EF420DA6EAE
:1013400014C0DEFF15C0DDFF1650040D020EF3269B
:10135000000EF422B20EF324D96E000EF420DA6EE1
:1013600017C0DFFF1650040D030EF326000EF42203
:10137000B20EF324D96E000EF420DA6E000EDF6E8A
:101380001200000E1C6E000E1D6E000E1E6E000E72
:101390001F6E14A008D018501C2619501D221A5078
:1013A0001E221B501F22D890183619361A361B36AB
:1013B000D8901732163215321432145015101610F8
:1013C0001710D8A4E6D71CC014F01DC015F01EC01D
:1013D00016F01FC017F01200000E1A6E000E196EE4
:1013E00016501710D8B41CD0010E186E04D0D89027
:1013F00016361736182A17AEFAD7D89019361A3675
:101400001650145C17501558D8A005D01650145E0D
:101410001750155A1980D89017321632182EEDD75A
:1014200019C014F01AC015F012001C6E000E1E6ECA
:101430005150D8B411D017D01E50010DF3501824BC
:10144000146EF4501920156E1C501E2457EC0BF02E
:101450001D6E1D04D8B41E2A1A501E5CD8A0ECD7ED
:10146000010E1B6E1200000E1B6E12005104D8A458
:1014700012004F504E18D8A405D0000E4E6E000E2C
:10148000516E12004E50010D800EF324D96E000EE5
:10149000F420DA6EDF50146E50504E24E9EC0AF05E
:1014A000176E1704D8A412004E2A1200D80EF66E3A
:1014B000170EF76E000EF86E0900F5CF66F0090002
:1014C000F5CF67F000EE80F0520EEE6AE806FDE11F
:1014D00000EE39F02D0EEE6AE806FDE168906892A4
:1014E000000EF86E0001D2EF0BF093809382F00EA5
:1014F000F26E080EF06ED10ED56E850ECD6E9D0E7D
:10150000B16EF18CF18AF294F28A9E909D80A19244
:10151000A082130ED66E000ECF6E000ECE6E000EA1
:10152000B26E000EB36E1200146E0FD0000E81B4B6
:10153000010E09D0000E81B6010E05D0000E81B853
:10154000010E01D0000E156E0BD014500F0AD8B446
:10155000EDD71F0AD8B4EED7010AD8B4EFD7F2D727
:1015600015501200036E000E056E000E046E09D0B9
:10157000CECF04F0CFCF05F0000ECF6E000ECE6EB2
:101580000AD00350000AD8B4F3D7010AD8B4F0D770
:10159000030AD8B4EDD704C001F005C002F0120070
:1015A000156E0FD08B50F00B1410826E12008C5001
:1015B000F00B1410836E12008C50F00B1410836E1D
:1015C00012001550000AD8B4EDD7010AD8B4EFD7ED
:1015D000F3D7156EA6B210D015C0A9FF14C0A8FF8E
:1015E000A69EA69CA684F29E550EA76EAA0EA76E76
:1015F000A682F28E010E01D0000E166E1650120059
:10160000156E1550030D5B0EF324D96E000EF420F9
:10161000DA6EDF50146E1550030D5B0EF324D96E95
:10162000000EF420DA6E3F0EDF16145012004D50FB
:10163000D8A40FD0010E4D6E4C2A010EB2EC0AF068
:1016400001C03DF002C03EF04AC04BF0000E4A6EB1
:1016500012004C50D8B412004C061200000E016E5D
:10166000030E016401D012000150040D030EF32695
:10167000000EF422B20EF324D96E000EF420DA6EBE
:10168000DF2A012AEDD7640E186E000E196E020EC5
:101690001A6E010E15EC0AF0100E645C270E6558E8
:1016A000D8A01200000E656E000E646E1200166E59
:1016B000A6B20DD016C0A9FFA69EA69CA68014C0F7
:1016C000D9FF15C0DAFFA8CFDFFF010E01D0000E51
:1016D000176E1750120014501602F3CF18F0F4CF03
:1016E00019F014501702F350192615501602F35032
:1016F000192618C014F019C015F01200156E09D083
:1017000014C082FF120014C083FF120014C083FFB4
:1017100012001550000AD8B4F3D7010AD8B4F3D791
:10172000F5D7000E1B6E020E1B6401D005D01B50B6
:1017300020EC03F01B2AF7D736EC0AF01200000E5B
:10174000956E000E836E000E946E9384938693883C
:10175000939A939C939E12004D04D8A403D0000E3C
:101760004D6E12004C50D8B412004C06120039C015
:1017700014F03AC015F03BC016F03CC017F0120050
:10178000166E16C058F015C057F014C056F012006F
:1017900014C066F015C067F01200400E4A601200D7
:1017A0004A2A12002EEC09F007EF00F0146E14C064
:1017B00059F01200C5EC07F0120037EC05F01200EA
:1017C0005FEC08F01200CDEC0BF0120017EC0BF000
:0C17D0001200ACEC0BF01200C80012007C
:020000040020DA
:08000000FFFFFFFFFFFFFFFF00
:020000040030CA
:0E000000FF011F1EFF0185FF0FC00FE00F4024
:00000001FF
