:0400000007EF00F016
:0A000800608282ED03F010EF06F0B5
:0D06000000FC60DAF266B6BEE0FEF6010016
:10060E0017C020F018C021F0000E226E030E2264D7
:10061E0001D05CD020502110D8A404D02250195CF7
:10062E00D8A02DD020C01CF021C01DF020C010F08D
:10063E0021C011F0000E136E0A0E126EBFEC05F003
:10064E0010C020F011C021F020C010F021C011F018
:10065E00000E136E0A0E126E90EC06F0101E111E96
:10066E00104A112A1C5010241E6E1D5011201F6E90
:10067E00010E1E24F66E060E1F20F76E08D02250B5
:10068E00195CD8A015D0010EF66E060EF76E080096
:10069E00F5501A6E1B6A2250020D480EF324D96EC5
:1006AE00000EF420DA6E1AC0DEFF1BC0DDFF0CD088
:1006BE002250020D480EF324D96E000EF420DA6E8D
:1006CE00000EDE6E000EDD6E222AA0D71950D8B4B1
:1006DE0012001950020D480EF324D96E000EF420AC
:1006EE00DA6E0B0EF66E060EF76E0800F550DE1281
:1006FE00000EDD1212000600FACF02F0FBCF03F05F
:10070E00E9CF04F0EACF05F0E1CF06F0E2CF07F033
:10071E00D9CF08F0DACF09F0F3CF0AF0F4CF0BF00F
:10072E00F6CF0CF0F7CF0DF0F8CF0EF0F5CF0FF0AF
:10073E00F2A405D0F294120ED66E7BEC06F0A1A2B6
:10074E0005D0A192EF0EB36E000EB26E9EA005D034
:10075E009E90000ECE6EAA0ECF6EF2A203D0F29233
:10076E00FDEC06F0F0A003D0F090FAEC06F00FC00E
:10077E00F5FF0EC0F8FF0DC0F7FF0CC0F6FF0BC063
:10078E00F4FF0AC0F3FF09C0DAFF08C0D9FF07C0A3
:10079E00E2FF06C0E1FF05C0EAFF04C0E9FF03C0A7
:1007AE00FBFF02C0FAFF609211005A2A0A0E5A1875
:1007BE00D8A41200000E5A6E5B505626000E572219
:1007CE005950010D800EF324D96E000EF420DA6E0E
:1007DE00DF50296E2950565E000E575A5950010DA2
:1007EE00800EF324D96E000EF420DA6E5BC0DFFFAC
:1007FE005B505426000E5522000E5B6EA00E1C6E32
:10080E00860E1D6E010E1E6E000E1F6E5EC020F057
:10081E005FC021F0226A236ACAEC04F01CC02AF0E1
:10082E001DC02BF02A50545C2B505558D8A00AD01E
:10083E00010E5026000E5122522253222A50545E8F
:10084E002B50555A592A240E5918D8A41200000EAE
:10085E00596E1200316E3104D8A404D0680E326E77
:10086E00010E03D0E10E326E000E336E000E346EAA
:10087E00000E356E5EC010F05FC011F0126A136A82
:10088E0056C014F057C015F0166A176A6AEC05F0D8
:10089E0010C02BF011C02CF012C02DF013C02EF092
:1008AE002BC010F02CC011F02DC012F02EC013F082
:1008BE0032C014F033C015F034C016F035C017F046
:1008CE006AEC05F010C01CF011C01DF012C01EF035
:1008DE0013C01FF0400E206E190E216E010E226EF7
:1008EE00000E236ECAEC04F01CC02FF01DC030F0B9
:1008FE002FC029F030C02AF01200000E586E020EE2
:10090E00586401D0FAD75850040D020EF326000E8B
:10091E00F4223C0EF324D96E000EF420DA6E5850F9
:10092E00040D030EF326000EF4223C0EF324E16EAA
:10093E00000EF420E26EDE50E65CD8A022D05850B5
:10094E00040D3C0EF324D96E000EF420DA6E01D89D
:10095E000AD00500FA6EDE50FD6EDE50FE6EF850C7
:10096E00FF6EFA5012005850040D030EF326000EBF
:10097E00F4223C0EF324D96E000EF420DA6E000E33
:10098E00DF6E582ABCD7000E246E000E256E000EA8
:10099E00266E000E276E2050211022102310D8B480
:1009AE002AD0010E286E06D0D89020362136223657
:1009BE002336282A23AEF8D7D89024362536263665
:1009CE00273620501C5C21501D5822501E58235093
:1009DE001F58D8A009D020501C5E21501D5A2250FD
:1009EE001E5A23501F5A2480D8902332223221328D
:1009FE002032282EE1D724C01CF025C01DF026C0C1
:100A0E001EF027C01FF01200080E116E080E106E99
:100A1E00ECEC06F0000E31EC04F029C036F02AC0E2
:100A2E0037F0DCEC06F010C038F011C039F038C0E9
:100A3E0010F039C011F0000E136E0A0E126E90EC0B
:100A4E0006F010C038F011C039F0383A393A0F0EAE
:100A5E0038163950F00B38120F0E391638C017F001
:100A6E0039C018F0010E196E07EC03F01200030ED8
:100A7E00126012001250040D3C0EF324D96E000EBB
:100A8E00F420DA6E10C0DEFF11C0DDFF1250040D2F
:100A9E00020EF326000EF4223C0EF324D96E000E45
:100AAE00F420DA6E13C0DFFF1250040D030EF3268E
:100ABE00000EF4223C0EF324D96E000EF420DA6EF2
:100ACE00000EDF6E1200000E186E000E196E000E74
:100ADE001A6E000E1B6E10A008D01450182615505A
:100AEE00192216501A2217501B22D890143615367A
:100AFE0016361736D8901332123211321032105079
:100B0E00111012101310D8A4E6D718C010F019C087
:100B1E0011F01AC012F01BC013F012002FEC06F0E9
:100B2E00E5EC06F0B6EC06F001EC07F0EE0E106EFA
:100B3E000D0E116E000E126E140E136E3EEC05F0BD
:100B4E00E80E106E0D0E116E020E126E640E136E06
:100B5E003EEC05F0E20E106E0D0E116E010E126ED1
:100B6E00320E136E3EEC05F084EC04F007EF00F04D
:100B7E00000E156E000E146E12501310D8B41CD049
:100B8E00010E166E04D0D89012361336162A13AEF6
:100B9E00FAD7D890143615361250105C13501158DF
:100BAE00D8A005D01250105E1350115A1480D89050
:100BBE0013321232162EEDD714C010F015C011F0EC
:100BCE0012005DC012F0080E136E000E146E122A83
:100BDE0003D0143414321332122EFBD71350FF0AE3
:100BEE00106E000E4CEC06F05D50020D480EF32414
:100BFE00D96E000EF420DA6EDF50106E010EA3ECEB
:100C0E0006F05D2A040E5D18D8A41200000E5D6E6B
:100C1E001200000EF66E0E0EF76E000EF86E090044
:100C2E00F5CF5EF00900F5CF5FF000EE80F0240EF8
:100C3E00EE6AE806FDE100EE3CF0220EEE6AE806F2
:100C4E00FDE160906092000EF86E000195EF05F0E8
:100C5E0093809382F00EF26E080EF06ED10ED56E6A
:100C6E00850ECD6E9D0EB16EF18CF18A130ED66E81
:100C7E009E909D80A192A082000ECE6EAA0ECF6E87
:100C8E00000EB26E000EB36E1200116E0FD08B50AE
:100C9E00F00B1010826E12008C50F00B1010836E41
:100CAE0012008C50F00B1010836E12001150000ABF
:100CBE00D8B4EDD7010AD8B4EFD7F3D710C016F0D9
:100CCE0011C017F008D016C0D9FF17C0DAFF12C036
:100CDE00DFFF164A172A1406D8A015061428F3E1CA
:100CEE001528D8B41200EFD7000E016E020E016463
:100CFE0001D012000150040D030EF326000EF42253
:100D0E003C0EF324D96E000EF420DA6EDF2A012A8F
:100D1E00EDD710501202F3CF14F0F4CF15F010509F
:100D2E001302F350152611501202F350152614C05B
:100D3E0010F015C011F01200116E09D010C082FF14
:100D4E00120010C083FF120010C083FF120011505A
:100D5E00000AD8B4F3D7010AD8B4F3D7F5D7800E6A
:100D6E00106E000E116E000E136E000E126E000E3F
:100D7E00156E240E146E65EC06F012005C50D8A4AD
:100D8E0004D0010E5C6E5B2A12005B50D8B41200C8
:100D9E005B0612005C04D8A403D0000E5C6E120039
:100DAE005B50D8B412005B06120050C010F051C058
:100DBE0011F052C012F053C013F01200000E956ED7
:100DCE00000E836E000E946E120010C05EF011C005
:100DDE005FF01200E8EC05F012000BEC05F01200CB
:100DEE00DCEC03F01200C5EC06F01200D1EC06F0BC
:060DFE001200C800120003
:020000040020DA
:08000000FFFFFFFFFFFFFFFF00
:020000040030CA
:0E000000FF011F1EFF0185FF0FC00FE00F4024
:00000001FF
