:0400000007EF00F016
:0A0008006C8228ED06F0F4EF08F01A
:10060000000F0004000400640010000400040064F3
:0D06100000FC60DAF266B6BEE0FEF6010006
:10061E00546E5450030D340EF324D96E000EF42094
:10062E00DA6EDF507F0B526E5450080D010EF3241C
:10063E00F66E060EF420F76E0800F55082EC09F007
:10064E00536EF2D15450080D010EF326000EF42213
:10065E00010EF324F66E060EF420F76E0800F55028
:10066E005318D8A459D05450030D010EF326000E82
:10067E00F422340EF324D96E000EF420DA6EDE2A44
:10068E00000EDD225450030D010EF326000EF4224F
:10069E00340EF324D96E000EF420DA6E5450080D89
:1006AE00040EF326000EF422010EF324F66E060E4F
:1006BE00F420F76EDE500900F51804E1DE50090053
:1006CE00F518D8A412005450030D340EF324D96E2D
:1006DE00000EF420DA6E810EDF6E5450080D020EFD
:1006EE00F326000EF422010EF324F66E060EF4200D
:1006FE00F76E5450030D010EF326000EF422340E45
:10070E00F324D96E000EF420DA6E0900F5CFDEFF69
:10071E000800F5CFDDFF12005450030D010EF32635
:10072E00000EF422340EF324D96E000EF420DA6E8D
:10073E00000EDE6E000EDD6E12005450080D010E1E
:10074E00F326000EF422010EF324F66E060EF420AC
:10075E00F76E0800F5505318D8A498D05450080DD1
:10076E00020EF326000EF422010EF324F66E060E90
:10077E00F420F76E5450030D010EF326000EF422F2
:10078E00340EF324D96E000EF420DA6E0900F55003
:10079E00DE5C0900F550DE58D8A059D05450030D38
:1007AE00010EF326000EF422340EF324D96E000E41
:1007BE00F420DA6EDE2A000EDD225450030D010EF7
:1007CE00F326000EF422340EF324D96E000EF4201C
:1007DE00DA6E5450080D060EF326000EF422010EAA
:1007EE00F324F66E060EF420F76EDE500900F518AF
:1007FE0004E1DE500900F518D8A412005450030D80
:10080E00340EF324D96E000EF420DA6E820EDF6EF3
:10081E005450080D020EF326000EF422010EF3249E
:10082E00F66E060EF420F76E5450030D010EF326ED
:10083E00000EF422340EF324D96E000EF420DA6E7C
:10084E000900F5CFDEFF0800F5CFDDFF1200545092
:10085E00080D020EF326000EF422010EF324F66E9E
:10086E00060EF420F76E5450030D010EF326000E03
:10087E00F422340EF324D96E000EF420DA6E090041
:10088E00F5CFDEFF0800F5CFDDFF12005450030D4B
:10089E00010EF326000EF422340EF324D96E000E50
:1008AE00F420DA6E5450080D020EF326000EF422D8
:1008BE00010EF324F66E060EF420F76EDE500900DC
:1008CE00F55CDE500900F558D8B01FD05450080D15
:1008DE00020EF326000EF422010EF324F66E060E1F
:1008EE00F420F76E5450030D010EF326000EF42281
:1008FE00340EF324D96E000EF420DA6E0900F5CF13
:10090E00DEFF0800F5CFDDFF12005450030D010E7F
:10091E00F326000EF422340EF324D96E000EF420CA
:10092E00DA6EDE06000EDD5A5450030D010EF3266C
:10093E00000EF422340EF324D96E000EF420DA6E7B
:10094E00DE50DE10D8A412005450030D340EF324E2
:10095E00D96E000EF420DA6E800EDF6E1200545047
:10096E00080D010EF326000EF422010EF324F66E8E
:10097E00060EF420F76E0800F5505318D8A41FD0B9
:10098E005450080D020EF326000EF422010EF3242D
:10099E00F66E060EF420F76E5450030D010EF3267C
:1009AE00000EF422340EF324D96E000EF420DA6E0B
:1009BE000900F5CFDEFF0800F5CFDDFF1200545021
:1009CE00030D010EF326000EF422340EF324D96E1D
:1009DE00000EF420DA6EDE06000EDD5A5450030DC2
:1009EE00010EF326000EF422340EF324D96E000EFF
:1009FE00F420DA6EDE50DE10D8A412005450030D2F
:100A0E00340EF324D96E000EF420DA6E800EDF6EF3
:100A1E0012005450030D340EF324D96E000EF42040
:100A2E00DA6E000EDF6E12005250000AD8B40AD6EB
:100A3E00010AD8B482D6030AD8B491D7EAD7080EE1
:100A4E004F6E080E4E6E62EC0AF0010E86EC06F04A
:100A5E0067C087F068C088F053EC0AF04EC089F08A
:100A6E004FC08AF089C04EF08AC04FF0000E516E12
:100A7E000A0E506E07EC0AF04EC089F04FC08AF095
:100A8E000001893B8A3B0F0E89178A51F00B89139F
:100A9E000F0E8A17890E4E6E000E4F6E020E506E9E
:100AAE00010E81EC08F0870E526E000E536E020E90
:100ABE00546E010E50EC09F087C055F088C056F008
:100ACE00010E576EADEC05F023502410D8A40FD0B4
:100ADE00000EB0EC09F000018B6F820E00018B1935
:100AEE00D8A41200000E246E010E236E1200640EA6
:100AFE004E6E25505CEC0AF0000EB0EC09F00001D1
:100B0E008B6F810E00018B19D8A40CD0254A262A92
:100B1E00040E25182610D8A41200000E266E000E04
:100B2E00256E1200010EB0EC09F000018B6F820EE3
:100B3E0000018B19D8A41200000E4E6E010E5CEC53
:100B4E000AF0000E246E000E236E120055C05EF0E9
:100B5E0056C05FF0000E606E030E606401D05CD074
:100B6E005E505F10D8A404D06050575CD8A02DD032
:100B7E005EC05AF05FC05BF05EC04EF05FC04FF0DB
:100B8E00000E516E0A0E506EABEC08F04EC05EF0C9
:100B9E004FC05FF05EC04EF05FC04FF0000E516E62
:100BAE000A0E506E07EC0AF04E1E4F1E4E4A4F2A8A
:100BBE005A504E245C6E5B504F205D6E110E5C24BD
:100BCE00F66E060E5D20F76E08D06050575CD8A00A
:100BDE0015D0110EF66E060EF76E0800F550586E13
:100BEE00596A6050020D110EF324D96E000EF420D6
:100BFE00DA6E58C0DEFF59C0DDFF0CD06050020D1A
:100C0E00110EF324D96E000EF420DA6E000EDE6E95
:100C1E00000EDD6E602AA0D75750D8B41200575080
:100C2E00020D110EF324D96E000EF420DA6E1B0E97
:100C3E00F66E060EF76E0800F550DE12000EDD128F
:100C4E0012000600FACF40F0FBCF41F0E9CF42F0A0
:100C5E00EACF43F0E1CF44F0E2CF45F0D9CF46F0F2
:100C6E00DACF47F0F3CF48F0F4CF49F0F6CF4AF0A1
:100C7E00F7CF4BF0F8CF4CF0F5CF4DF0F2A405D0F6
:100C8E00F294120ED66EDEEC09F0A1A205D0A1925E
:100C9E00EF0EB36E000EB26E9EA007D09E90000EA9
:100CAE00CF6E000ECE6E7DEC0AF09EB29E92F2A238
:100CBE0003D0F29283EC0AF0F0A003D0F09080EC17
:100CCE000AF04DC0F5FF4CC0F8FF4BC0F7FF4AC00D
:100CDE00F6FF49C0F4FF48C0F3FF47C0DAFF46C035
:100CEE00D9FF45C0E2FF44C0E1FF43C0EAFF42C066
:100CFE00E9FF41C0FBFF40C0FAFF6C9211000001FA
:100D0E00806F000E0001866F000E856F000180055A
:100D1E00D8A405D0680E0001816F010E04D0E10E3B
:100D2E000001816F000E826F000E836F000E846FC4
:100D3E001F502010D8B424D069C04EF06AC04FF0B6
:100D4E00506A516A81C052F082C053F083C054F091
:100D5E0084C055F056EC08F04EC05AF04FC05BF010
:100D6E0050C05CF051C05DF01FC05EF020C05FF05F
:100D7E00606A616AB3EC07F05AC085F05BC086F01A
:100D8E00400E2818D8A405D0000E0001866F000E64
:100D9E00856F85C067F086C068F012001DC04EF0EA
:100DAE001EC04FF0000E516E640E506EABEC08F08C
:100DBE004EC067F04FC068F029C04EF04F6A020E69
:100DCE00516E8F0E506E07EC0AF04E5067241F6E58
:100DDE004F506820206E2A502126000E2222000E2F
:100DEE002A6EA00E5A6E860E5B6E010E5C6E000EA3
:100DFE005D6E69C05EF06AC05FF0606A616AB3ECF6
:100E0E0007F05AC080F05BC081F000018051215C78
:100E1E00000181512258D8A01200010E1926000E91
:100E2E001A221B221C2200018051215E00018151D9
:100E3E00225A1200000E536E3250D8B40AD0302A05
:100E4E0032503018D8A407D0010E311A000E306E71
:100E5E0002D0000E316E3104D8A407D033503A18A8
:100E6E00D8A403D00F0E526E1AD03A280008506E36
:100E7E00040E5026010E516E502A02D0D8905136D3
:100E8E00502EFCD75150FF0A526E3A50020D110EE1
:100E9E00F324D96E000EF420DA6EDF50536E6B041D
:100EAE00D8A402D0521E531E52C04EF0000E69EC52
:100EBE0009F053C04EF0010E1AEC0AF03A2A040E55
:100ECE003A18D8A41200000E3A6E1200000E276EC9
:100EDE00030E276401D0FAD72750040D020EF32615
:100EEE00000EF422010EF324D96E000EF420DA6EF9
:100EFE002750040D030EF326000EF422010EF324E8
:100F0E00E16E000EF420E26EDE50E65CD8A022D038
:100F1E002750040D010EF324D96E000EF420DA6E64
:100F2E0001D80AD00500FA6EDE50FD6EDE50FE6E60
:100F3E00F850FF6EFA5012002750040D030EF326E0
:100F4E00000EF422010EF324D96E000EF420DA6E98
:100F5E00000EDF6E272ABCD7000E626E000E636E87
:100F6E00000E646E000E656E5E505F1060106110B4
:100F7E00D8B42AD0010E666E06D0D8905E365F3693
:100F8E0060366136662A61AEF8D7D890623663361F
:100F9E00643665365E505A5C5F505B5860505C58E4
:100FAE0061505D58D8A009D05E505A5E5F505B5AB2
:100FBE0060505C5A61505D5A6280D89061326032E6
:100FCE005F325E32662EE1D762C05AF063C05BF0CC
:100FDE0064C05CF065C05DF0120013EC09F03BECF0
:100FEE000AF087EC0AF088EC0AF0010E70EC0AF0B9
:100FFE00F40E4E6E140E4F6E000E506E140E516E99
:10100E002AEC08F0EE0E4E6E140E4F6E020E506E5F
:10101E00640E516E2AEC08F0E80E4E6E140E4F6EF2
:10102E00010E506E040E516E2AEC08F05A0E4E6EE2
:10103E00140E4F6E030E506E0A0E516E2AEC08F00F
:10104E006DEC07F01200040E506012005050040DAB
:10105E00010EF324D96E000EF420DA6E4EC0DEFFC0
:10106E004FC0DDFF5050040D020EF326000EF42289
:10107E00010EF324D96E000EF420DA6E51C0DFFF9C
:10108E005050040D030EF326000EF422010EF3242D
:10109E00D96E000EF420DA6E000EDF6E1200000E16
:1010AE00566E000E576E000E586E000E596E4EA004
:1010BE0008D052505626535057225450582255504D
:1010CE005922D8905236533654365536D89051321E
:1010DE0050324F324E324E504F1050105110D8A445
:1010EE00E6D756C04EF057C04FF058C050F059C01A
:1010FE0051F01200526E2F50D8A423D0010E2F6E35
:10110E00000E536E13D05350010DF3504E24D96E72
:10111E00F4504F20DA6E5350010D8E0EF324E16E13
:10112E00000EF420E26EDFCFE7FF532A5050535CDF
:10113E00D8A0E9D750C02DF052C02EF0010E516E3E
:10114E001200000E516E1200000E546E000E536E01
:10115E0050505110D8B41CD0010E526E04D0D890FD
:10116E0050365136522A51AEFAD7D890533654369D
:10117E0050504E5C51504F58D8A005D050504E5E36
:10118E0051504F5A5380D89051325032522EEDD783
:10119E0053C04EF054C04FF012002F04D8A41200CA
:1011AE002D502C18D8A405D0000E2C6E000E2F6ECC
:1011BE0012002C50010D8E0EF324D96E000EF42069
:1011CE00DA6EDF504E6E2E502C2499EC09F0516ED3
:1011DE005104D8A412002C2A12000C0EF66E150E15
:1011EE00F76E000EF86E0900F5CF69F00900F5CF25
:1011FE006AF000EE8EF00A0EEE6AE806FDE100EEF1
:10120E0001F03A0EEE6AE806FDE16C906C92000E6B
:10121E00F86E00016CEF0AF093809382F00EF26E7E
:10122E00080EF06ED10ED56E850ECD6E9D0EB16E82
:10123E00F18CF18AF294F28A9E909D80A192A08206
:10124E00130ED66E000ECF6E000ECE6E000EB26E68
:10125E00000EB36E12003D6E000E3F6E000E3E6E1F
:10126E0009D0CECF3EF0CFCF3FF0000ECF6E000EA6
:10127E00CE6E0AD03D50000AD8B4F3D7010AD8B4C6
:10128E00F0D7030AD8B4EDD73EC03BF03FC03CF0D8
:10129E001200556E000E576E10D05750010DF350C0
:1012AE0052244E6EF45053204F6E55505724F3EC8B
:1012BE0009F0566E5604D8B4572A5450575CD8B01D
:1012CE001200EBD74F6E0FD08B50F00B4E10826E7C
:1012DE0012008C50F00B4E10836E12008C50F00BDF
:1012EE004E10836E12004F50000AD8B4EDD7010A8B
:1012FE00D8B4EFD7F3D74E6E0BD0000E81B4010EDB
:10130E0005D0000E81B6010E01D0000E4F6E08D032
:10131E004E500F0AD8B4F1D71F0AD8B4F2D7F5D76A
:10132E004F5012004F6EA6B210D04FC0A9FF4EC044
:10133E00A8FFA69EA69CA684F29E550EA76EAA0E88
:10134E00A76EA682F28E010E01D0000E506E505086
:10135E0012004F6E4F50030D340EF324D96E000E53
:10136E00F420DA6EDF504E6E4F50030D340EF32420
:10137E00D96E000EF420DA6E7F0EDF164E5012007C
:10138E002B50D8A40FD0010E2B6E2A2A010E32EC50
:10139E0009F03BC01DF03CC01EF028C029F0000E25
:1013AE00286E12002A50D8B412002A061200000E1F
:1013BE003B6E030E3B6401D012003B50040D030E36
:1013CE00F326000EF422010EF324D96E000EF42043
:1013DE00DA6EDF2A3B2AEDD7506EA6B20DD050C082
:1013EE00A9FFA69EA69CA6804EC0D9FF4FC0DAFFCD
:1013FE00A8CFDFFF010E01D0000E516E515012002A
:10140E004E505002F3CF52F0F4CF53F04E505102E3
:10141E00F35053264F505002F350532652C04EF005
:10142E0053C04FF012004F6E09D04EC082FF120013
:10143E004EC083FF12004EC083FF12004F50000AB1
:10144E00D8B4F3D7010AD8B4F3D7F5D7000E556E3A
:10145E00010E556401D005D055500FEC03F0552AFE
:10146E00F7D7D4EC08F01200000E956E000E836EC6
:10147E00000E946E938493869398939A939C939E66
:10148E0012002B04D8A403D0000E2B6E12002A508B
:10149E00D8B412002A06120019C04EF01AC04FF02E
:1014AE001BC050F01CC051F012004F6E4FC033F0F5
:1014BE004EC032F012004EC069F04FC06AF01200FA
:1014CE00400E28601200282A1200F4EC07F007EFF5
:1014DE0000F04E6E4EC06BF0120021EC07F01200C1
:1014EE0026EC05F01200D5EC06F0120067EC0AF0BF
:1014FE001200C7EC09F0120048EC0AF01200C80006
:04150E0012001200B5
:020000040020DA
:08000000FFFFFFFFFFFFFFFF00
:020000040030CA
:0E000000FF011F1EFF0185FF0FC00FE00F4024
:00000001FF
