:1000000012C0D7C1F9C12AC029C028C027C026C044
:1000100025C0A6C123C022C021C020C01FC01EC051
:100020001DC01CC01BC011241FBECFE5D4E0DEBF25
:10003000CDBF10E0A0E6B0E0E6E2F5E002C005903A
:100040000D92AE36B107D9F710E0AEE6B0E001C0D0
:100050001D92A23BB107E1F7F8D163C2D1CF089559
:1000600088ECF5D003D105966AE070E024D2CB018C
:1000700060E001D00895CF92DF92EF92FF921F933C
:10008000CF93DF93162FCEE6D0E0E82FF92F40E094
:100090000F2EFAE0EF2EFF24F02D0F2EF0E6CF2EDC
:1000A000F0E0DF2EF02D309711F41417C0F0CF01DF
:1000B000B70101D2862F972F880F991F9C01220F1D
:1000C000331F220F331F820F931FE81BF90BEC0D18
:1000D000FD1D808188831982E62FF72F02C01982C7
:1000E00018824F5F22964430F1F6112359F0E12F28
:1000F000F0E0EE0FFF1FE259FF4F80819181816098
:1001000091838083DF91CF911F91FF90EF90DF90DB
:10011000CF90089568E070E00090760002C0759579
:1001200067950A94E2F7609580E00AD1E091760045
:10013000F0E0EE0FFF1FE259FF4F81E0608103D135
:10014000809176008F5F80937600843011F4109256
:100150007600089584E2E7E7F0E0DF011D928A95DA
:10016000E9F7089580919B00813019F410929B006B
:10017000089580919C00882319F0815080939C0001
:10018000089580919B00882349F481E080939B002F
:1001900080919C008F5F80939C00089580919C00CB
:1001A000882319F0815080939C00089580919D00D0
:1001B0008F5F80939D008A30A9F510929D00309149
:1001C0009C002091A00080919E0090919F00830F41
:1001D000911DE7E7F0E0E20FF11D4081841B9109DA
:1001E00090939F0080939E00308310929C0080919A
:1001F000A1009091A200A091A300B091A40001964B
:10020000A11DB11D8093A1009093A200A093A30013
:10021000B093A400822F8F5F8093A000843211F4EA
:100220001092A0000895DC01CB018093A10090936F
:10023000A200A093A300B093A40008956091A10030
:100240007091A2008091A3009091A4000895682F5E
:1002500070E080E090E024E230E040E050E00CD13B
:100260003ED130936C0020936B00089560919E0006
:1002700070919F0080E090E020916B0030916C00C5
:1002800040E050E0F9D024E130E040E050E027D1F8
:10029000822F932F089566DF089573DF08956330EA
:1002A00060F4E62FF0E0EE0FFF1FEE0FFF1FEB559F
:1002B000FF4F918380834283138208958091A80029
:1002C0008F5F8093A8008091AC008F5F8093AC001B
:1002D0008091B0008F5F8093B0000895C5EAD0E0B0
:1002E0001092B10080E090E0FC01EE0FFF1FEE0FD6
:1002F000FF1FEC0FFD1F328123812317A8F0FC01A3
:10030000EE0FFF1FEE0FFF1FEC0FFD1F0190F0819E
:10031000E02D0995E091B100F0E0EE0FFF1FEE0F28
:10032000FF1FEC0FFD1F13828091B1008F5F809340
:10033000B1008330A8F6D7CF089580E008950895DE
:10034000089580E00895089580E0089583B782605D
:1003500083BF12BE89B7816089BF7894A09A08953F
:100360001F920F920FB60F9211242F933F934F932A
:100370005F936F937F938F939F93AF93BF93EF930D
:10038000FF9380E882BF9ADF95B381E0892785BB20
:10039000FF91EF91BF91AF919F918F917F916F915D
:1003A0005F914F913F912F910F900FBE0F901F9033
:1003B00018951F920F920FB60F9211242F933F930F
:1003C0004F935F936F937F938F939F93AF93BF935D
:1003D000EF93FF9360DFFF91EF91BF91AF919F91FA
:1003E0008F917F916F915F914F913F912F910F90DE
:1003F0000FBE0F901F9018951F920F920FB60F927D
:1004000011242F933F934F935F936F937F938F9319
:100410009F93AF93BF93EF93FF933FDFFF91EF91D4
:10042000BF91AF919F918F917F916F915F914F910C
:100430003F912F910F900FBE0F901F901895B6DE31
:1004400008950EDE089566DE089580DF75DF82DE92
:1004500006DE8FE192E060E04DE021DF81E292E094
:1004600062E044E61CDF83E292E061E042E317DFF2
:1004700035DF80E090E00895629FD001739FF00126
:10048000829FE00DF11D649FE00DF11D929FF00D24
:10049000839FF00D749FF00D659FF00D9927729F5B
:1004A000B00DE11DF91F639FB00DE11DF91FBD01E6
:1004B000CF0111240895AA1BBB1B51E107C0AA1F3D
:1004C000BB1FA617B70710F0A61BB70B881F991FF5
:1004D0005A95A9F780959095BC01CD010895A1E2A8
:1004E0001A2EAA1BBB1BFD010DC0AA1FBB1FEE1FAE
:1004F000FF1FA217B307E407F50720F0A21BB30BF9
:10050000E40BF50B661F771F881F991F1A9469F774
:1005100060957095809590959B01AC01BD01CF01D0
:060520000895F894FFCFDE
:0E052600FC60DAF266B6BEE0FEF601C8000028
:00000001FF
